{
	"contracts/3_Ballot.sol": {
		"Ballot": {
			"abi": [
				{
					"inputs": [
						{
							"internalType": "uint256",
							"name": "",
							"type": "uint256"
						}
					],
					"name": "cendidates",
					"outputs": [
						{
							"internalType": "string",
							"name": "name",
							"type": "string"
						},
						{
							"internalType": "uint256",
							"name": "voteCount",
							"type": "uint256"
						}
					],
					"stateMutability": "view",
					"type": "function"
				},
				{
					"inputs": [
						{
							"internalType": "address",
							"name": "",
							"type": "address"
						}
					],
					"name": "electors",
					"outputs": [
						{
							"internalType": "address",
							"name": "delegate",
							"type": "address"
						},
						{
							"internalType": "uint256",
							"name": "electoralNumber",
							"type": "uint256"
						},
						{
							"internalType": "bool",
							"name": "voted",
							"type": "bool"
						},
						{
							"internalType": "uint256",
							"name": "vote",
							"type": "uint256"
						}
					],
					"stateMutability": "view",
					"type": "function"
				},
				{
					"inputs": [
						{
							"internalType": "uint256",
							"name": "_number",
							"type": "uint256"
						}
					],
					"name": "register",
					"outputs": [],
					"stateMutability": "nonpayable",
					"type": "function"
				}
			],
			"devdoc": {
				"kind": "dev",
				"methods": {},
				"version": 1
			},
			"evm": {
				"assembly": "    /* \"contracts/3_Ballot.sol\":62:960  contract Ballot {... */\n  mstore(0x40, 0x80)\n  callvalue\n  dup1\n  iszero\n  tag_1\n  jumpi\n  0x00\n  dup1\n  revert\ntag_1:\n  pop\n  dataSize(sub_0)\n  dup1\n  dataOffset(sub_0)\n  0x00\n  codecopy\n  0x00\n  return\nstop\n\nsub_0: assembly {\n        /* \"contracts/3_Ballot.sol\":62:960  contract Ballot {... */\n      mstore(0x40, 0x80)\n      callvalue\n      dup1\n      iszero\n      tag_1\n      jumpi\n      0x00\n      dup1\n      revert\n    tag_1:\n      pop\n      jumpi(tag_2, lt(calldatasize, 0x04))\n      shr(0xe0, calldataload(0x00))\n      dup1\n      0x067efedf\n      eq\n      tag_3\n      jumpi\n      dup1\n      0xb51ce2a9\n      eq\n      tag_4\n      jumpi\n      dup1\n      0xf207564e\n      eq\n      tag_5\n      jumpi\n    tag_2:\n      0x00\n      dup1\n      revert\n        /* \"contracts/3_Ballot.sol\":328:372  mapping (address => Elector) public electors */\n    tag_3:\n      tag_6\n      0x04\n      dup1\n      calldatasize\n      sub\n      dup2\n      add\n      swap1\n      tag_7\n      swap2\n      swap1\n      tag_8\n      jump\t// in\n    tag_7:\n      tag_9\n      jump\t// in\n    tag_6:\n      mload(0x40)\n      tag_10\n      swap5\n      swap4\n      swap3\n      swap2\n      swap1\n      tag_11\n      jump\t// in\n    tag_10:\n      mload(0x40)\n      dup1\n      swap2\n      sub\n      swap1\n      return\n        /* \"contracts/3_Ballot.sol\":378:407  Cendidate[] public cendidates */\n    tag_4:\n      tag_12\n      0x04\n      dup1\n      calldatasize\n      sub\n      dup2\n      add\n      swap1\n      tag_13\n      swap2\n      swap1\n      tag_14\n      jump\t// in\n    tag_13:\n      tag_15\n      jump\t// in\n    tag_12:\n      mload(0x40)\n      tag_16\n      swap3\n      swap2\n      swap1\n      tag_17\n      jump\t// in\n    tag_16:\n      mload(0x40)\n      dup1\n      swap2\n      sub\n      swap1\n      return\n        /* \"contracts/3_Ballot.sol\":414:920  function register(uint _number) public... */\n    tag_5:\n      tag_18\n      0x04\n      dup1\n      calldatasize\n      sub\n      dup2\n      add\n      swap1\n      tag_19\n      swap2\n      swap1\n      tag_14\n      jump\t// in\n    tag_19:\n      tag_20\n      jump\t// in\n    tag_18:\n      stop\n        /* \"contracts/3_Ballot.sol\":328:372  mapping (address => Elector) public electors */\n    tag_9:\n      mstore(0x20, 0x01)\n      dup1\n      0x00\n      mstore\n      keccak256(0x00, 0x40)\n      0x00\n      swap2\n      pop\n      swap1\n      pop\n      dup1\n      0x00\n      add\n      0x00\n      swap1\n      sload\n      swap1\n      0x0100\n      exp\n      swap1\n      div\n      0xffffffffffffffffffffffffffffffffffffffff\n      and\n      swap1\n      dup1\n      0x01\n      add\n      sload\n      swap1\n      dup1\n      0x02\n      add\n      0x00\n      swap1\n      sload\n      swap1\n      0x0100\n      exp\n      swap1\n      div\n      0xff\n      and\n      swap1\n      dup1\n      0x03\n      add\n      sload\n      swap1\n      pop\n      dup5\n      jump\t// out\n        /* \"contracts/3_Ballot.sol\":378:407  Cendidate[] public cendidates */\n    tag_15:\n      0x02\n      dup2\n      dup2\n      sload\n      dup2\n      lt\n      tag_21\n      jumpi\n      0x00\n      dup1\n      revert\n    tag_21:\n      swap1\n      0x00\n      mstore\n      keccak256(0x00, 0x20)\n      swap1\n      0x02\n      mul\n      add\n      0x00\n      swap2\n      pop\n      swap1\n      pop\n      dup1\n      0x00\n      add\n      dup1\n      sload\n      tag_23\n      swap1\n      tag_24\n      jump\t// in\n    tag_23:\n      dup1\n      0x1f\n      add\n      0x20\n      dup1\n      swap2\n      div\n      mul\n      0x20\n      add\n      mload(0x40)\n      swap1\n      dup2\n      add\n      0x40\n      mstore\n      dup1\n      swap3\n      swap2\n      swap1\n      dup2\n      dup2\n      mstore\n      0x20\n      add\n      dup3\n      dup1\n      sload\n      tag_25\n      swap1\n      tag_24\n      jump\t// in\n    tag_25:\n      dup1\n      iszero\n      tag_26\n      jumpi\n      dup1\n      0x1f\n      lt\n      tag_27\n      jumpi\n      0x0100\n      dup1\n      dup4\n      sload\n      div\n      mul\n      dup4\n      mstore\n      swap2\n      0x20\n      add\n      swap2\n      jump(tag_26)\n    tag_27:\n      dup3\n      add\n      swap2\n      swap1\n      0x00\n      mstore\n      keccak256(0x00, 0x20)\n      swap1\n    tag_28:\n      dup2\n      sload\n      dup2\n      mstore\n      swap1\n      0x01\n      add\n      swap1\n      0x20\n      add\n      dup1\n      dup4\n      gt\n      tag_28\n      jumpi\n      dup3\n      swap1\n      sub\n      0x1f\n      and\n      dup3\n      add\n      swap2\n    tag_26:\n      pop\n      pop\n      pop\n      pop\n      pop\n      swap1\n      dup1\n      0x01\n      add\n      sload\n      swap1\n      pop\n      dup3\n      jump\t// out\n        /* \"contracts/3_Ballot.sol\":414:920  function register(uint _number) public... */\n    tag_20:\n        /* \"contracts/3_Ballot.sol\":504:505  0 */\n      0x00\n        /* \"contracts/3_Ballot.sol\":475:506  adresses[_number] == address(0) */\n      0xffffffffffffffffffffffffffffffffffffffff\n      and\n        /* \"contracts/3_Ballot.sol\":475:483  adresses */\n      0x00\n        /* \"contracts/3_Ballot.sol\":475:492  adresses[_number] */\n      dup1\n        /* \"contracts/3_Ballot.sol\":484:491  _number */\n      dup4\n        /* \"contracts/3_Ballot.sol\":475:492  adresses[_number] */\n      dup2\n      mstore\n      0x20\n      add\n      swap1\n      dup2\n      mstore\n      0x20\n      add\n      0x00\n      keccak256\n      0x00\n      swap1\n      sload\n      swap1\n      0x0100\n      exp\n      swap1\n      div\n      0xffffffffffffffffffffffffffffffffffffffff\n      and\n        /* \"contracts/3_Ballot.sol\":475:506  adresses[_number] == address(0) */\n      0xffffffffffffffffffffffffffffffffffffffff\n      and\n      eq\n        /* \"contracts/3_Ballot.sol\":467:538  require(adresses[_number] == address(0), \"this number already exists.\") */\n      tag_30\n      jumpi\n      mload(0x40)\n      0x08c379a000000000000000000000000000000000000000000000000000000000\n      dup2\n      mstore\n      0x04\n      add\n      tag_31\n      swap1\n      tag_32\n      jump\t// in\n    tag_31:\n      mload(0x40)\n      dup1\n      swap2\n      sub\n      swap1\n      revert\n    tag_30:\n        /* \"contracts/3_Ballot.sol\":596:597  0 */\n      0x00\n        /* \"contracts/3_Ballot.sol\":556:564  electors */\n      0x01\n        /* \"contracts/3_Ballot.sol\":556:576  electors[msg.sender] */\n      0x00\n        /* \"contracts/3_Ballot.sol\":565:575  msg.sender */\n      caller\n        /* \"contracts/3_Ballot.sol\":556:576  electors[msg.sender] */\n      0xffffffffffffffffffffffffffffffffffffffff\n      and\n      0xffffffffffffffffffffffffffffffffffffffff\n      and\n      dup2\n      mstore\n      0x20\n      add\n      swap1\n      dup2\n      mstore\n      0x20\n      add\n      0x00\n      keccak256\n        /* \"contracts/3_Ballot.sol\":556:592  electors[msg.sender].electoralNumber */\n      0x01\n      add\n      sload\n        /* \"contracts/3_Ballot.sol\":556:597  electors[msg.sender].electoralNumber == 0 */\n      eq\n        /* \"contracts/3_Ballot.sol\":548:647  require(electors[msg.sender].electoralNumber == 0, \"this address is already assigned to a number.\") */\n      tag_33\n      jumpi\n      mload(0x40)\n      0x08c379a000000000000000000000000000000000000000000000000000000000\n      dup2\n      mstore\n      0x04\n      add\n      tag_34\n      swap1\n      tag_35\n      jump\t// in\n    tag_34:\n      mload(0x40)\n      dup1\n      swap2\n      sub\n      swap1\n      revert\n    tag_33:\n        /* \"contracts/3_Ballot.sol\":766:790  Elector memory newPerson */\n      0x00\n        /* \"contracts/3_Ballot.sol\":793:831  Elector(msg.sender, _number, false, 0) */\n      mload(0x40)\n      dup1\n      0x80\n      add\n      0x40\n      mstore\n      dup1\n        /* \"contracts/3_Ballot.sol\":801:811  msg.sender */\n      caller\n        /* \"contracts/3_Ballot.sol\":793:831  Elector(msg.sender, _number, false, 0) */\n      0xffffffffffffffffffffffffffffffffffffffff\n      and\n      dup2\n      mstore\n      0x20\n      add\n        /* \"contracts/3_Ballot.sol\":813:820  _number */\n      dup4\n        /* \"contracts/3_Ballot.sol\":793:831  Elector(msg.sender, _number, false, 0) */\n      dup2\n      mstore\n      0x20\n      add\n        /* \"contracts/3_Ballot.sol\":822:827  false */\n      0x00\n        /* \"contracts/3_Ballot.sol\":793:831  Elector(msg.sender, _number, false, 0) */\n      iszero\n      iszero\n      dup2\n      mstore\n      0x20\n      add\n        /* \"contracts/3_Ballot.sol\":829:830  0 */\n      0x00\n        /* \"contracts/3_Ballot.sol\":793:831  Elector(msg.sender, _number, false, 0) */\n      dup2\n      mstore\n      pop\n        /* \"contracts/3_Ballot.sol\":766:831  Elector memory newPerson = Elector(msg.sender, _number, false, 0) */\n      swap1\n      pop\n        /* \"contracts/3_Ballot.sol\":864:873  newPerson */\n      dup1\n        /* \"contracts/3_Ballot.sol\":841:849  electors */\n      0x01\n        /* \"contracts/3_Ballot.sol\":841:861  electors[msg.sender] */\n      0x00\n        /* \"contracts/3_Ballot.sol\":850:860  msg.sender */\n      caller\n        /* \"contracts/3_Ballot.sol\":841:861  electors[msg.sender] */\n      0xffffffffffffffffffffffffffffffffffffffff\n      and\n      0xffffffffffffffffffffffffffffffffffffffff\n      and\n      dup2\n      mstore\n      0x20\n      add\n      swap1\n      dup2\n      mstore\n      0x20\n      add\n      0x00\n      keccak256\n        /* \"contracts/3_Ballot.sol\":841:873  electors[msg.sender] = newPerson */\n      0x00\n      dup3\n      add\n      mload\n      dup2\n      0x00\n      add\n      exp(0x0100, 0x00)\n      dup2\n      sload\n      dup2\n      0xffffffffffffffffffffffffffffffffffffffff\n      mul\n      not\n      and\n      swap1\n      dup4\n      0xffffffffffffffffffffffffffffffffffffffff\n      and\n      mul\n      or\n      swap1\n      sstore\n      pop\n      0x20\n      dup3\n      add\n      mload\n      dup2\n      0x01\n      add\n      sstore\n      0x40\n      dup3\n      add\n      mload\n      dup2\n      0x02\n      add\n      exp(0x0100, 0x00)\n      dup2\n      sload\n      dup2\n      0xff\n      mul\n      not\n      and\n      swap1\n      dup4\n      iszero\n      iszero\n      mul\n      or\n      swap1\n      sstore\n      pop\n      0x60\n      dup3\n      add\n      mload\n      dup2\n      0x03\n      add\n      sstore\n      swap1\n      pop\n      pop\n        /* \"contracts/3_Ballot.sol\":903:913  msg.sender */\n      caller\n        /* \"contracts/3_Ballot.sol\":883:891  adresses */\n      0x00\n        /* \"contracts/3_Ballot.sol\":883:900  adresses[_number] */\n      dup1\n        /* \"contracts/3_Ballot.sol\":892:899  _number */\n      dup5\n        /* \"contracts/3_Ballot.sol\":883:900  adresses[_number] */\n      dup2\n      mstore\n      0x20\n      add\n      swap1\n      dup2\n      mstore\n      0x20\n      add\n      0x00\n      keccak256\n      0x00\n        /* \"contracts/3_Ballot.sol\":883:913  adresses[_number] = msg.sender */\n      0x0100\n      exp\n      dup2\n      sload\n      dup2\n      0xffffffffffffffffffffffffffffffffffffffff\n      mul\n      not\n      and\n      swap1\n      dup4\n      0xffffffffffffffffffffffffffffffffffffffff\n      and\n      mul\n      or\n      swap1\n      sstore\n      pop\n        /* \"contracts/3_Ballot.sol\":457:920  {... */\n      pop\n        /* \"contracts/3_Ballot.sol\":414:920  function register(uint _number) public... */\n      pop\n      jump\t// out\n        /* \"#utility.yul\":88:205   */\n    tag_37:\n        /* \"#utility.yul\":197:198   */\n      0x00\n        /* \"#utility.yul\":194:195   */\n      dup1\n        /* \"#utility.yul\":187:199   */\n      revert\n        /* \"#utility.yul\":334:460   */\n    tag_39:\n        /* \"#utility.yul\":371:378   */\n      0x00\n        /* \"#utility.yul\":411:453   */\n      0xffffffffffffffffffffffffffffffffffffffff\n        /* \"#utility.yul\":404:409   */\n      dup3\n        /* \"#utility.yul\":400:454   */\n      and\n        /* \"#utility.yul\":389:454   */\n      swap1\n      pop\n        /* \"#utility.yul\":334:460   */\n      swap2\n      swap1\n      pop\n      jump\t// out\n        /* \"#utility.yul\":466:562   */\n    tag_40:\n        /* \"#utility.yul\":503:510   */\n      0x00\n        /* \"#utility.yul\":532:556   */\n      tag_66\n        /* \"#utility.yul\":550:555   */\n      dup3\n        /* \"#utility.yul\":532:556   */\n      tag_39\n      jump\t// in\n    tag_66:\n        /* \"#utility.yul\":521:556   */\n      swap1\n      pop\n        /* \"#utility.yul\":466:562   */\n      swap2\n      swap1\n      pop\n      jump\t// out\n        /* \"#utility.yul\":568:690   */\n    tag_41:\n        /* \"#utility.yul\":641:665   */\n      tag_68\n        /* \"#utility.yul\":659:664   */\n      dup2\n        /* \"#utility.yul\":641:665   */\n      tag_40\n      jump\t// in\n    tag_68:\n        /* \"#utility.yul\":634:639   */\n      dup2\n        /* \"#utility.yul\":631:666   */\n      eq\n        /* \"#utility.yul\":621:684   */\n      tag_69\n      jumpi\n        /* \"#utility.yul\":680:681   */\n      0x00\n        /* \"#utility.yul\":677:678   */\n      dup1\n        /* \"#utility.yul\":670:682   */\n      revert\n        /* \"#utility.yul\":621:684   */\n    tag_69:\n        /* \"#utility.yul\":568:690   */\n      pop\n      jump\t// out\n        /* \"#utility.yul\":696:835   */\n    tag_42:\n        /* \"#utility.yul\":742:747   */\n      0x00\n        /* \"#utility.yul\":780:786   */\n      dup2\n        /* \"#utility.yul\":767:787   */\n      calldataload\n        /* \"#utility.yul\":758:787   */\n      swap1\n      pop\n        /* \"#utility.yul\":796:829   */\n      tag_71\n        /* \"#utility.yul\":823:828   */\n      dup2\n        /* \"#utility.yul\":796:829   */\n      tag_41\n      jump\t// in\n    tag_71:\n        /* \"#utility.yul\":696:835   */\n      swap3\n      swap2\n      pop\n      pop\n      jump\t// out\n        /* \"#utility.yul\":841:1170   */\n    tag_8:\n        /* \"#utility.yul\":900:906   */\n      0x00\n        /* \"#utility.yul\":949:951   */\n      0x20\n        /* \"#utility.yul\":937:946   */\n      dup3\n        /* \"#utility.yul\":928:935   */\n      dup5\n        /* \"#utility.yul\":924:947   */\n      sub\n        /* \"#utility.yul\":920:952   */\n      slt\n        /* \"#utility.yul\":917:1036   */\n      iszero\n      tag_73\n      jumpi\n        /* \"#utility.yul\":955:1034   */\n      tag_74\n      tag_37\n      jump\t// in\n    tag_74:\n        /* \"#utility.yul\":917:1036   */\n    tag_73:\n        /* \"#utility.yul\":1075:1076   */\n      0x00\n        /* \"#utility.yul\":1100:1153   */\n      tag_75\n        /* \"#utility.yul\":1145:1152   */\n      dup5\n        /* \"#utility.yul\":1136:1142   */\n      dup3\n        /* \"#utility.yul\":1125:1134   */\n      dup6\n        /* \"#utility.yul\":1121:1143   */\n      add\n        /* \"#utility.yul\":1100:1153   */\n      tag_42\n      jump\t// in\n    tag_75:\n        /* \"#utility.yul\":1090:1153   */\n      swap2\n      pop\n        /* \"#utility.yul\":1046:1163   */\n      pop\n        /* \"#utility.yul\":841:1170   */\n      swap3\n      swap2\n      pop\n      pop\n      jump\t// out\n        /* \"#utility.yul\":1176:1294   */\n    tag_43:\n        /* \"#utility.yul\":1263:1287   */\n      tag_77\n        /* \"#utility.yul\":1281:1286   */\n      dup2\n        /* \"#utility.yul\":1263:1287   */\n      tag_40\n      jump\t// in\n    tag_77:\n        /* \"#utility.yul\":1258:1261   */\n      dup3\n        /* \"#utility.yul\":1251:1288   */\n      mstore\n        /* \"#utility.yul\":1176:1294   */\n      pop\n      pop\n      jump\t// out\n        /* \"#utility.yul\":1300:1377   */\n    tag_44:\n        /* \"#utility.yul\":1337:1344   */\n      0x00\n        /* \"#utility.yul\":1366:1371   */\n      dup2\n        /* \"#utility.yul\":1355:1371   */\n      swap1\n      pop\n        /* \"#utility.yul\":1300:1377   */\n      swap2\n      swap1\n      pop\n      jump\t// out\n        /* \"#utility.yul\":1383:1501   */\n    tag_45:\n        /* \"#utility.yul\":1470:1494   */\n      tag_80\n        /* \"#utility.yul\":1488:1493   */\n      dup2\n        /* \"#utility.yul\":1470:1494   */\n      tag_44\n      jump\t// in\n    tag_80:\n        /* \"#utility.yul\":1465:1468   */\n      dup3\n        /* \"#utility.yul\":1458:1495   */\n      mstore\n        /* \"#utility.yul\":1383:1501   */\n      pop\n      pop\n      jump\t// out\n        /* \"#utility.yul\":1507:1597   */\n    tag_46:\n        /* \"#utility.yul\":1541:1548   */\n      0x00\n        /* \"#utility.yul\":1584:1589   */\n      dup2\n        /* \"#utility.yul\":1577:1590   */\n      iszero\n        /* \"#utility.yul\":1570:1591   */\n      iszero\n        /* \"#utility.yul\":1559:1591   */\n      swap1\n      pop\n        /* \"#utility.yul\":1507:1597   */\n      swap2\n      swap1\n      pop\n      jump\t// out\n        /* \"#utility.yul\":1603:1712   */\n    tag_47:\n        /* \"#utility.yul\":1684:1705   */\n      tag_83\n        /* \"#utility.yul\":1699:1704   */\n      dup2\n        /* \"#utility.yul\":1684:1705   */\n      tag_46\n      jump\t// in\n    tag_83:\n        /* \"#utility.yul\":1679:1682   */\n      dup3\n        /* \"#utility.yul\":1672:1706   */\n      mstore\n        /* \"#utility.yul\":1603:1712   */\n      pop\n      pop\n      jump\t// out\n        /* \"#utility.yul\":1718:2259   */\n    tag_11:\n        /* \"#utility.yul\":1889:1893   */\n      0x00\n        /* \"#utility.yul\":1927:1930   */\n      0x80\n        /* \"#utility.yul\":1916:1925   */\n      dup3\n        /* \"#utility.yul\":1912:1931   */\n      add\n        /* \"#utility.yul\":1904:1931   */\n      swap1\n      pop\n        /* \"#utility.yul\":1941:2012   */\n      tag_85\n        /* \"#utility.yul\":2009:2010   */\n      0x00\n        /* \"#utility.yul\":1998:2007   */\n      dup4\n        /* \"#utility.yul\":1994:2011   */\n      add\n        /* \"#utility.yul\":1985:1991   */\n      dup8\n        /* \"#utility.yul\":1941:2012   */\n      tag_43\n      jump\t// in\n    tag_85:\n        /* \"#utility.yul\":2022:2094   */\n      tag_86\n        /* \"#utility.yul\":2090:2092   */\n      0x20\n        /* \"#utility.yul\":2079:2088   */\n      dup4\n        /* \"#utility.yul\":2075:2093   */\n      add\n        /* \"#utility.yul\":2066:2072   */\n      dup7\n        /* \"#utility.yul\":2022:2094   */\n      tag_45\n      jump\t// in\n    tag_86:\n        /* \"#utility.yul\":2104:2170   */\n      tag_87\n        /* \"#utility.yul\":2166:2168   */\n      0x40\n        /* \"#utility.yul\":2155:2164   */\n      dup4\n        /* \"#utility.yul\":2151:2169   */\n      add\n        /* \"#utility.yul\":2142:2148   */\n      dup6\n        /* \"#utility.yul\":2104:2170   */\n      tag_47\n      jump\t// in\n    tag_87:\n        /* \"#utility.yul\":2180:2252   */\n      tag_88\n        /* \"#utility.yul\":2248:2250   */\n      0x60\n        /* \"#utility.yul\":2237:2246   */\n      dup4\n        /* \"#utility.yul\":2233:2251   */\n      add\n        /* \"#utility.yul\":2224:2230   */\n      dup5\n        /* \"#utility.yul\":2180:2252   */\n      tag_45\n      jump\t// in\n    tag_88:\n        /* \"#utility.yul\":1718:2259   */\n      swap6\n      swap5\n      pop\n      pop\n      pop\n      pop\n      pop\n      jump\t// out\n        /* \"#utility.yul\":2265:2387   */\n    tag_48:\n        /* \"#utility.yul\":2338:2362   */\n      tag_90\n        /* \"#utility.yul\":2356:2361   */\n      dup2\n        /* \"#utility.yul\":2338:2362   */\n      tag_44\n      jump\t// in\n    tag_90:\n        /* \"#utility.yul\":2331:2336   */\n      dup2\n        /* \"#utility.yul\":2328:2363   */\n      eq\n        /* \"#utility.yul\":2318:2381   */\n      tag_91\n      jumpi\n        /* \"#utility.yul\":2377:2378   */\n      0x00\n        /* \"#utility.yul\":2374:2375   */\n      dup1\n        /* \"#utility.yul\":2367:2379   */\n      revert\n        /* \"#utility.yul\":2318:2381   */\n    tag_91:\n        /* \"#utility.yul\":2265:2387   */\n      pop\n      jump\t// out\n        /* \"#utility.yul\":2393:2532   */\n    tag_49:\n        /* \"#utility.yul\":2439:2444   */\n      0x00\n        /* \"#utility.yul\":2477:2483   */\n      dup2\n        /* \"#utility.yul\":2464:2484   */\n      calldataload\n        /* \"#utility.yul\":2455:2484   */\n      swap1\n      pop\n        /* \"#utility.yul\":2493:2526   */\n      tag_93\n        /* \"#utility.yul\":2520:2525   */\n      dup2\n        /* \"#utility.yul\":2493:2526   */\n      tag_48\n      jump\t// in\n    tag_93:\n        /* \"#utility.yul\":2393:2532   */\n      swap3\n      swap2\n      pop\n      pop\n      jump\t// out\n        /* \"#utility.yul\":2538:2867   */\n    tag_14:\n        /* \"#utility.yul\":2597:2603   */\n      0x00\n        /* \"#utility.yul\":2646:2648   */\n      0x20\n        /* \"#utility.yul\":2634:2643   */\n      dup3\n        /* \"#utility.yul\":2625:2632   */\n      dup5\n        /* \"#utility.yul\":2621:2644   */\n      sub\n        /* \"#utility.yul\":2617:2649   */\n      slt\n        /* \"#utility.yul\":2614:2733   */\n      iszero\n      tag_95\n      jumpi\n        /* \"#utility.yul\":2652:2731   */\n      tag_96\n      tag_37\n      jump\t// in\n    tag_96:\n        /* \"#utility.yul\":2614:2733   */\n    tag_95:\n        /* \"#utility.yul\":2772:2773   */\n      0x00\n        /* \"#utility.yul\":2797:2850   */\n      tag_97\n        /* \"#utility.yul\":2842:2849   */\n      dup5\n        /* \"#utility.yul\":2833:2839   */\n      dup3\n        /* \"#utility.yul\":2822:2831   */\n      dup6\n        /* \"#utility.yul\":2818:2840   */\n      add\n        /* \"#utility.yul\":2797:2850   */\n      tag_49\n      jump\t// in\n    tag_97:\n        /* \"#utility.yul\":2787:2850   */\n      swap2\n      pop\n        /* \"#utility.yul\":2743:2860   */\n      pop\n        /* \"#utility.yul\":2538:2867   */\n      swap3\n      swap2\n      pop\n      pop\n      jump\t// out\n        /* \"#utility.yul\":2873:2972   */\n    tag_50:\n        /* \"#utility.yul\":2925:2931   */\n      0x00\n        /* \"#utility.yul\":2959:2964   */\n      dup2\n        /* \"#utility.yul\":2953:2965   */\n      mload\n        /* \"#utility.yul\":2943:2965   */\n      swap1\n      pop\n        /* \"#utility.yul\":2873:2972   */\n      swap2\n      swap1\n      pop\n      jump\t// out\n        /* \"#utility.yul\":2978:3147   */\n    tag_51:\n        /* \"#utility.yul\":3062:3073   */\n      0x00\n        /* \"#utility.yul\":3096:3102   */\n      dup3\n        /* \"#utility.yul\":3091:3094   */\n      dup3\n        /* \"#utility.yul\":3084:3103   */\n      mstore\n        /* \"#utility.yul\":3136:3140   */\n      0x20\n        /* \"#utility.yul\":3131:3134   */\n      dup3\n        /* \"#utility.yul\":3127:3141   */\n      add\n        /* \"#utility.yul\":3112:3141   */\n      swap1\n      pop\n        /* \"#utility.yul\":2978:3147   */\n      swap3\n      swap2\n      pop\n      pop\n      jump\t// out\n        /* \"#utility.yul\":3153:3292   */\n    tag_52:\n        /* \"#utility.yul\":3242:3248   */\n      dup3\n        /* \"#utility.yul\":3237:3240   */\n      dup2\n        /* \"#utility.yul\":3232:3235   */\n      dup4\n        /* \"#utility.yul\":3226:3249   */\n      mcopy\n        /* \"#utility.yul\":3283:3284   */\n      0x00\n        /* \"#utility.yul\":3274:3280   */\n      dup4\n        /* \"#utility.yul\":3269:3272   */\n      dup4\n        /* \"#utility.yul\":3265:3281   */\n      add\n        /* \"#utility.yul\":3258:3285   */\n      mstore\n        /* \"#utility.yul\":3153:3292   */\n      pop\n      pop\n      pop\n      jump\t// out\n        /* \"#utility.yul\":3298:3400   */\n    tag_53:\n        /* \"#utility.yul\":3339:3345   */\n      0x00\n        /* \"#utility.yul\":3390:3392   */\n      0x1f\n        /* \"#utility.yul\":3386:3393   */\n      not\n        /* \"#utility.yul\":3381:3383   */\n      0x1f\n        /* \"#utility.yul\":3374:3379   */\n      dup4\n        /* \"#utility.yul\":3370:3384   */\n      add\n        /* \"#utility.yul\":3366:3394   */\n      and\n        /* \"#utility.yul\":3356:3394   */\n      swap1\n      pop\n        /* \"#utility.yul\":3298:3400   */\n      swap2\n      swap1\n      pop\n      jump\t// out\n        /* \"#utility.yul\":3406:3783   */\n    tag_54:\n        /* \"#utility.yul\":3494:3497   */\n      0x00\n        /* \"#utility.yul\":3522:3561   */\n      tag_103\n        /* \"#utility.yul\":3555:3560   */\n      dup3\n        /* \"#utility.yul\":3522:3561   */\n      tag_50\n      jump\t// in\n    tag_103:\n        /* \"#utility.yul\":3577:3648   */\n      tag_104\n        /* \"#utility.yul\":3641:3647   */\n      dup2\n        /* \"#utility.yul\":3636:3639   */\n      dup6\n        /* \"#utility.yul\":3577:3648   */\n      tag_51\n      jump\t// in\n    tag_104:\n        /* \"#utility.yul\":3570:3648   */\n      swap4\n      pop\n        /* \"#utility.yul\":3657:3722   */\n      tag_105\n        /* \"#utility.yul\":3715:3721   */\n      dup2\n        /* \"#utility.yul\":3710:3713   */\n      dup6\n        /* \"#utility.yul\":3703:3707   */\n      0x20\n        /* \"#utility.yul\":3696:3701   */\n      dup7\n        /* \"#utility.yul\":3692:3708   */\n      add\n        /* \"#utility.yul\":3657:3722   */\n      tag_52\n      jump\t// in\n    tag_105:\n        /* \"#utility.yul\":3747:3776   */\n      tag_106\n        /* \"#utility.yul\":3769:3775   */\n      dup2\n        /* \"#utility.yul\":3747:3776   */\n      tag_53\n      jump\t// in\n    tag_106:\n        /* \"#utility.yul\":3742:3745   */\n      dup5\n        /* \"#utility.yul\":3738:3777   */\n      add\n        /* \"#utility.yul\":3731:3777   */\n      swap2\n      pop\n        /* \"#utility.yul\":3498:3783   */\n      pop\n        /* \"#utility.yul\":3406:3783   */\n      swap3\n      swap2\n      pop\n      pop\n      jump\t// out\n        /* \"#utility.yul\":3789:4212   */\n    tag_17:\n        /* \"#utility.yul\":3930:3934   */\n      0x00\n        /* \"#utility.yul\":3968:3970   */\n      0x40\n        /* \"#utility.yul\":3957:3966   */\n      dup3\n        /* \"#utility.yul\":3953:3971   */\n      add\n        /* \"#utility.yul\":3945:3971   */\n      swap1\n      pop\n        /* \"#utility.yul\":4017:4026   */\n      dup2\n        /* \"#utility.yul\":4011:4015   */\n      dup2\n        /* \"#utility.yul\":4007:4027   */\n      sub\n        /* \"#utility.yul\":4003:4004   */\n      0x00\n        /* \"#utility.yul\":3992:4001   */\n      dup4\n        /* \"#utility.yul\":3988:4005   */\n      add\n        /* \"#utility.yul\":3981:4028   */\n      mstore\n        /* \"#utility.yul\":4045:4123   */\n      tag_108\n        /* \"#utility.yul\":4118:4122   */\n      dup2\n        /* \"#utility.yul\":4109:4115   */\n      dup6\n        /* \"#utility.yul\":4045:4123   */\n      tag_54\n      jump\t// in\n    tag_108:\n        /* \"#utility.yul\":4037:4123   */\n      swap1\n      pop\n        /* \"#utility.yul\":4133:4205   */\n      tag_109\n        /* \"#utility.yul\":4201:4203   */\n      0x20\n        /* \"#utility.yul\":4190:4199   */\n      dup4\n        /* \"#utility.yul\":4186:4204   */\n      add\n        /* \"#utility.yul\":4177:4183   */\n      dup5\n        /* \"#utility.yul\":4133:4205   */\n      tag_45\n      jump\t// in\n    tag_109:\n        /* \"#utility.yul\":3789:4212   */\n      swap4\n      swap3\n      pop\n      pop\n      pop\n      jump\t// out\n        /* \"#utility.yul\":4218:4398   */\n    tag_55:\n        /* \"#utility.yul\":4266:4343   */\n      0x4e487b7100000000000000000000000000000000000000000000000000000000\n        /* \"#utility.yul\":4263:4264   */\n      0x00\n        /* \"#utility.yul\":4256:4344   */\n      mstore\n        /* \"#utility.yul\":4363:4367   */\n      0x22\n        /* \"#utility.yul\":4360:4361   */\n      0x04\n        /* \"#utility.yul\":4353:4368   */\n      mstore\n        /* \"#utility.yul\":4387:4391   */\n      0x24\n        /* \"#utility.yul\":4384:4385   */\n      0x00\n        /* \"#utility.yul\":4377:4392   */\n      revert\n        /* \"#utility.yul\":4404:4724   */\n    tag_24:\n        /* \"#utility.yul\":4448:4454   */\n      0x00\n        /* \"#utility.yul\":4485:4486   */\n      0x02\n        /* \"#utility.yul\":4479:4483   */\n      dup3\n        /* \"#utility.yul\":4475:4487   */\n      div\n        /* \"#utility.yul\":4465:4487   */\n      swap1\n      pop\n        /* \"#utility.yul\":4532:4533   */\n      0x01\n        /* \"#utility.yul\":4526:4530   */\n      dup3\n        /* \"#utility.yul\":4522:4534   */\n      and\n        /* \"#utility.yul\":4553:4571   */\n      dup1\n        /* \"#utility.yul\":4543:4624   */\n      tag_112\n      jumpi\n        /* \"#utility.yul\":4609:4613   */\n      0x7f\n        /* \"#utility.yul\":4601:4607   */\n      dup3\n        /* \"#utility.yul\":4597:4614   */\n      and\n        /* \"#utility.yul\":4587:4614   */\n      swap2\n      pop\n        /* \"#utility.yul\":4543:4624   */\n    tag_112:\n        /* \"#utility.yul\":4671:4673   */\n      0x20\n        /* \"#utility.yul\":4663:4669   */\n      dup3\n        /* \"#utility.yul\":4660:4674   */\n      lt\n        /* \"#utility.yul\":4640:4658   */\n      dup2\n        /* \"#utility.yul\":4637:4675   */\n      sub\n        /* \"#utility.yul\":4634:4718   */\n      tag_113\n      jumpi\n        /* \"#utility.yul\":4690:4708   */\n      tag_114\n      tag_55\n      jump\t// in\n    tag_114:\n        /* \"#utility.yul\":4634:4718   */\n    tag_113:\n        /* \"#utility.yul\":4455:4724   */\n      pop\n        /* \"#utility.yul\":4404:4724   */\n      swap2\n      swap1\n      pop\n      jump\t// out\n        /* \"#utility.yul\":4730:4907   */\n    tag_56:\n        /* \"#utility.yul\":4870:4899   */\n      0x74686973206e756d62657220616c7265616479206578697374732e0000000000\n        /* \"#utility.yul\":4866:4867   */\n      0x00\n        /* \"#utility.yul\":4858:4864   */\n      dup3\n        /* \"#utility.yul\":4854:4868   */\n      add\n        /* \"#utility.yul\":4847:4900   */\n      mstore\n        /* \"#utility.yul\":4730:4907   */\n      pop\n      jump\t// out\n        /* \"#utility.yul\":4913:5279   */\n    tag_57:\n        /* \"#utility.yul\":5055:5058   */\n      0x00\n        /* \"#utility.yul\":5076:5143   */\n      tag_117\n        /* \"#utility.yul\":5140:5142   */\n      0x1b\n        /* \"#utility.yul\":5135:5138   */\n      dup4\n        /* \"#utility.yul\":5076:5143   */\n      tag_51\n      jump\t// in\n    tag_117:\n        /* \"#utility.yul\":5069:5143   */\n      swap2\n      pop\n        /* \"#utility.yul\":5152:5245   */\n      tag_118\n        /* \"#utility.yul\":5241:5244   */\n      dup3\n        /* \"#utility.yul\":5152:5245   */\n      tag_56\n      jump\t// in\n    tag_118:\n        /* \"#utility.yul\":5270:5272   */\n      0x20\n        /* \"#utility.yul\":5265:5268   */\n      dup3\n        /* \"#utility.yul\":5261:5273   */\n      add\n        /* \"#utility.yul\":5254:5273   */\n      swap1\n      pop\n        /* \"#utility.yul\":4913:5279   */\n      swap2\n      swap1\n      pop\n      jump\t// out\n        /* \"#utility.yul\":5285:5704   */\n    tag_32:\n        /* \"#utility.yul\":5451:5455   */\n      0x00\n        /* \"#utility.yul\":5489:5491   */\n      0x20\n        /* \"#utility.yul\":5478:5487   */\n      dup3\n        /* \"#utility.yul\":5474:5492   */\n      add\n        /* \"#utility.yul\":5466:5492   */\n      swap1\n      pop\n        /* \"#utility.yul\":5538:5547   */\n      dup2\n        /* \"#utility.yul\":5532:5536   */\n      dup2\n        /* \"#utility.yul\":5528:5548   */\n      sub\n        /* \"#utility.yul\":5524:5525   */\n      0x00\n        /* \"#utility.yul\":5513:5522   */\n      dup4\n        /* \"#utility.yul\":5509:5526   */\n      add\n        /* \"#utility.yul\":5502:5549   */\n      mstore\n        /* \"#utility.yul\":5566:5697   */\n      tag_120\n        /* \"#utility.yul\":5692:5696   */\n      dup2\n        /* \"#utility.yul\":5566:5697   */\n      tag_57\n      jump\t// in\n    tag_120:\n        /* \"#utility.yul\":5558:5697   */\n      swap1\n      pop\n        /* \"#utility.yul\":5285:5704   */\n      swap2\n      swap1\n      pop\n      jump\t// out\n        /* \"#utility.yul\":5710:5942   */\n    tag_58:\n        /* \"#utility.yul\":5850:5884   */\n      0x74686973206164647265737320697320616c72656164792061737369676e6564\n        /* \"#utility.yul\":5846:5847   */\n      0x00\n        /* \"#utility.yul\":5838:5844   */\n      dup3\n        /* \"#utility.yul\":5834:5848   */\n      add\n        /* \"#utility.yul\":5827:5885   */\n      mstore\n        /* \"#utility.yul\":5919:5934   */\n      0x20746f2061206e756d6265722e00000000000000000000000000000000000000\n        /* \"#utility.yul\":5914:5916   */\n      0x20\n        /* \"#utility.yul\":5906:5912   */\n      dup3\n        /* \"#utility.yul\":5902:5917   */\n      add\n        /* \"#utility.yul\":5895:5935   */\n      mstore\n        /* \"#utility.yul\":5710:5942   */\n      pop\n      jump\t// out\n        /* \"#utility.yul\":5948:6314   */\n    tag_59:\n        /* \"#utility.yul\":6090:6093   */\n      0x00\n        /* \"#utility.yul\":6111:6178   */\n      tag_123\n        /* \"#utility.yul\":6175:6177   */\n      0x2d\n        /* \"#utility.yul\":6170:6173   */\n      dup4\n        /* \"#utility.yul\":6111:6178   */\n      tag_51\n      jump\t// in\n    tag_123:\n        /* \"#utility.yul\":6104:6178   */\n      swap2\n      pop\n        /* \"#utility.yul\":6187:6280   */\n      tag_124\n        /* \"#utility.yul\":6276:6279   */\n      dup3\n        /* \"#utility.yul\":6187:6280   */\n      tag_58\n      jump\t// in\n    tag_124:\n        /* \"#utility.yul\":6305:6307   */\n      0x40\n        /* \"#utility.yul\":6300:6303   */\n      dup3\n        /* \"#utility.yul\":6296:6308   */\n      add\n        /* \"#utility.yul\":6289:6308   */\n      swap1\n      pop\n        /* \"#utility.yul\":5948:6314   */\n      swap2\n      swap1\n      pop\n      jump\t// out\n        /* \"#utility.yul\":6320:6739   */\n    tag_35:\n        /* \"#utility.yul\":6486:6490   */\n      0x00\n        /* \"#utility.yul\":6524:6526   */\n      0x20\n        /* \"#utility.yul\":6513:6522   */\n      dup3\n        /* \"#utility.yul\":6509:6527   */\n      add\n        /* \"#utility.yul\":6501:6527   */\n      swap1\n      pop\n        /* \"#utility.yul\":6573:6582   */\n      dup2\n        /* \"#utility.yul\":6567:6571   */\n      dup2\n        /* \"#utility.yul\":6563:6583   */\n      sub\n        /* \"#utility.yul\":6559:6560   */\n      0x00\n        /* \"#utility.yul\":6548:6557   */\n      dup4\n        /* \"#utility.yul\":6544:6561   */\n      add\n        /* \"#utility.yul\":6537:6584   */\n      mstore\n        /* \"#utility.yul\":6601:6732   */\n      tag_126\n        /* \"#utility.yul\":6727:6731   */\n      dup2\n        /* \"#utility.yul\":6601:6732   */\n      tag_59\n      jump\t// in\n    tag_126:\n        /* \"#utility.yul\":6593:6732   */\n      swap1\n      pop\n        /* \"#utility.yul\":6320:6739   */\n      swap2\n      swap1\n      pop\n      jump\t// out\n\n    auxdata: 0xa2646970667358221220dfaaedf1dca5bf7eaf270a89c704bb0d1baf9b4ae22dc938166e7fb10686d5c764736f6c63430008190033\n}\n",
				"bytecode": {
					"linkReferences": {},
					"object": "6080604052348015600e575f80fd5b506107bd8061001c5f395ff3fe608060405234801561000f575f80fd5b506004361061003f575f3560e01c8063067efedf14610043578063b51ce2a914610076578063f207564e146100a7575b5f80fd5b61005d60048036038101906100589190610492565b6100c3565b60405161006d94939291906104fe565b60405180910390f35b610090600480360381019061008b919061056b565b61011a565b60405161009e929190610606565b60405180910390f35b6100c160048036038101906100bc919061056b565b6101cf565b005b6001602052805f5260405f205f91509050805f015f9054906101000a900473ffffffffffffffffffffffffffffffffffffffff1690806001015490806002015f9054906101000a900460ff16908060030154905084565b60028181548110610129575f80fd5b905f5260205f2090600202015f91509050805f01805461014890610661565b80601f016020809104026020016040519081016040528092919081815260200182805461017490610661565b80156101bf5780601f10610196576101008083540402835291602001916101bf565b820191905f5260205f20905b8154815290600101906020018083116101a257829003601f168201915b5050505050908060010154905082565b5f73ffffffffffffffffffffffffffffffffffffffff165f808381526020019081526020015f205f9054906101000a900473ffffffffffffffffffffffffffffffffffffffff1673ffffffffffffffffffffffffffffffffffffffff161461026c576040517f08c379a0000000000000000000000000000000000000000000000000000000008152600401610263906106db565b60405180910390fd5b5f60015f3373ffffffffffffffffffffffffffffffffffffffff1673ffffffffffffffffffffffffffffffffffffffff1681526020019081526020015f2060010154146102ee576040517f08c379a00000000000000000000000000000000000000000000000000000000081526004016102e590610769565b60405180910390fd5b5f60405180608001604052803373ffffffffffffffffffffffffffffffffffffffff1681526020018381526020015f151581526020015f81525090508060015f3373ffffffffffffffffffffffffffffffffffffffff1673ffffffffffffffffffffffffffffffffffffffff1681526020019081526020015f205f820151815f015f6101000a81548173ffffffffffffffffffffffffffffffffffffffff021916908373ffffffffffffffffffffffffffffffffffffffff160217905550602082015181600101556040820151816002015f6101000a81548160ff02191690831515021790555060608201518160030155905050335f808481526020019081526020015f205f6101000a81548173ffffffffffffffffffffffffffffffffffffffff021916908373ffffffffffffffffffffffffffffffffffffffff1602179055505050565b5f80fd5b5f73ffffffffffffffffffffffffffffffffffffffff82169050919050565b5f61046182610438565b9050919050565b61047181610457565b811461047b575f80fd5b50565b5f8135905061048c81610468565b92915050565b5f602082840312156104a7576104a6610434565b5b5f6104b48482850161047e565b91505092915050565b6104c681610457565b82525050565b5f819050919050565b6104de816104cc565b82525050565b5f8115159050919050565b6104f8816104e4565b82525050565b5f6080820190506105115f8301876104bd565b61051e60208301866104d5565b61052b60408301856104ef565b61053860608301846104d5565b95945050505050565b61054a816104cc565b8114610554575f80fd5b50565b5f8135905061056581610541565b92915050565b5f602082840312156105805761057f610434565b5b5f61058d84828501610557565b91505092915050565b5f81519050919050565b5f82825260208201905092915050565b8281835e5f83830152505050565b5f601f19601f8301169050919050565b5f6105d882610596565b6105e281856105a0565b93506105f28185602086016105b0565b6105fb816105be565b840191505092915050565b5f6040820190508181035f83015261061e81856105ce565b905061062d60208301846104d5565b9392505050565b7f4e487b71000000000000000000000000000000000000000000000000000000005f52602260045260245ffd5b5f600282049050600182168061067857607f821691505b60208210810361068b5761068a610634565b5b50919050565b7f74686973206e756d62657220616c7265616479206578697374732e00000000005f82015250565b5f6106c5601b836105a0565b91506106d082610691565b602082019050919050565b5f6020820190508181035f8301526106f2816106b9565b9050919050565b7f74686973206164647265737320697320616c72656164792061737369676e65645f8201527f20746f2061206e756d6265722e00000000000000000000000000000000000000602082015250565b5f610753602d836105a0565b915061075e826106f9565b604082019050919050565b5f6020820190508181035f83015261078081610747565b905091905056fea2646970667358221220dfaaedf1dca5bf7eaf270a89c704bb0d1baf9b4ae22dc938166e7fb10686d5c764736f6c63430008190033",
					"opcodes": "PUSH1 0x80 PUSH1 0x40 MSTORE CALLVALUE DUP1 ISZERO PUSH1 0xE JUMPI PUSH0 DUP1 REVERT JUMPDEST POP PUSH2 0x7BD DUP1 PUSH2 0x1C PUSH0 CODECOPY PUSH0 RETURN INVALID PUSH1 0x80 PUSH1 0x40 MSTORE CALLVALUE DUP1 ISZERO PUSH2 0xF JUMPI PUSH0 DUP1 REVERT JUMPDEST POP PUSH1 0x4 CALLDATASIZE LT PUSH2 0x3F JUMPI PUSH0 CALLDATALOAD PUSH1 0xE0 SHR DUP1 PUSH4 0x67EFEDF EQ PUSH2 0x43 JUMPI DUP1 PUSH4 0xB51CE2A9 EQ PUSH2 0x76 JUMPI DUP1 PUSH4 0xF207564E EQ PUSH2 0xA7 JUMPI JUMPDEST PUSH0 DUP1 REVERT JUMPDEST PUSH2 0x5D PUSH1 0x4 DUP1 CALLDATASIZE SUB DUP2 ADD SWAP1 PUSH2 0x58 SWAP2 SWAP1 PUSH2 0x492 JUMP JUMPDEST PUSH2 0xC3 JUMP JUMPDEST PUSH1 0x40 MLOAD PUSH2 0x6D SWAP5 SWAP4 SWAP3 SWAP2 SWAP1 PUSH2 0x4FE JUMP JUMPDEST PUSH1 0x40 MLOAD DUP1 SWAP2 SUB SWAP1 RETURN JUMPDEST PUSH2 0x90 PUSH1 0x4 DUP1 CALLDATASIZE SUB DUP2 ADD SWAP1 PUSH2 0x8B SWAP2 SWAP1 PUSH2 0x56B JUMP JUMPDEST PUSH2 0x11A JUMP JUMPDEST PUSH1 0x40 MLOAD PUSH2 0x9E SWAP3 SWAP2 SWAP1 PUSH2 0x606 JUMP JUMPDEST PUSH1 0x40 MLOAD DUP1 SWAP2 SUB SWAP1 RETURN JUMPDEST PUSH2 0xC1 PUSH1 0x4 DUP1 CALLDATASIZE SUB DUP2 ADD SWAP1 PUSH2 0xBC SWAP2 SWAP1 PUSH2 0x56B JUMP JUMPDEST PUSH2 0x1CF JUMP JUMPDEST STOP JUMPDEST PUSH1 0x1 PUSH1 0x20 MSTORE DUP1 PUSH0 MSTORE PUSH1 0x40 PUSH0 KECCAK256 PUSH0 SWAP2 POP SWAP1 POP DUP1 PUSH0 ADD PUSH0 SWAP1 SLOAD SWAP1 PUSH2 0x100 EXP SWAP1 DIV PUSH20 0xFFFFFFFFFFFFFFFFFFFFFFFFFFFFFFFFFFFFFFFF AND SWAP1 DUP1 PUSH1 0x1 ADD SLOAD SWAP1 DUP1 PUSH1 0x2 ADD PUSH0 SWAP1 SLOAD SWAP1 PUSH2 0x100 EXP SWAP1 DIV PUSH1 0xFF AND SWAP1 DUP1 PUSH1 0x3 ADD SLOAD SWAP1 POP DUP5 JUMP JUMPDEST PUSH1 0x2 DUP2 DUP2 SLOAD DUP2 LT PUSH2 0x129 JUMPI PUSH0 DUP1 REVERT JUMPDEST SWAP1 PUSH0 MSTORE PUSH1 0x20 PUSH0 KECCAK256 SWAP1 PUSH1 0x2 MUL ADD PUSH0 SWAP2 POP SWAP1 POP DUP1 PUSH0 ADD DUP1 SLOAD PUSH2 0x148 SWAP1 PUSH2 0x661 JUMP JUMPDEST DUP1 PUSH1 0x1F ADD PUSH1 0x20 DUP1 SWAP2 DIV MUL PUSH1 0x20 ADD PUSH1 0x40 MLOAD SWAP1 DUP2 ADD PUSH1 0x40 MSTORE DUP1 SWAP3 SWAP2 SWAP1 DUP2 DUP2 MSTORE PUSH1 0x20 ADD DUP3 DUP1 SLOAD PUSH2 0x174 SWAP1 PUSH2 0x661 JUMP JUMPDEST DUP1 ISZERO PUSH2 0x1BF JUMPI DUP1 PUSH1 0x1F LT PUSH2 0x196 JUMPI PUSH2 0x100 DUP1 DUP4 SLOAD DIV MUL DUP4 MSTORE SWAP2 PUSH1 0x20 ADD SWAP2 PUSH2 0x1BF JUMP JUMPDEST DUP3 ADD SWAP2 SWAP1 PUSH0 MSTORE PUSH1 0x20 PUSH0 KECCAK256 SWAP1 JUMPDEST DUP2 SLOAD DUP2 MSTORE SWAP1 PUSH1 0x1 ADD SWAP1 PUSH1 0x20 ADD DUP1 DUP4 GT PUSH2 0x1A2 JUMPI DUP3 SWAP1 SUB PUSH1 0x1F AND DUP3 ADD SWAP2 JUMPDEST POP POP POP POP POP SWAP1 DUP1 PUSH1 0x1 ADD SLOAD SWAP1 POP DUP3 JUMP JUMPDEST PUSH0 PUSH20 0xFFFFFFFFFFFFFFFFFFFFFFFFFFFFFFFFFFFFFFFF AND PUSH0 DUP1 DUP4 DUP2 MSTORE PUSH1 0x20 ADD SWAP1 DUP2 MSTORE PUSH1 0x20 ADD PUSH0 KECCAK256 PUSH0 SWAP1 SLOAD SWAP1 PUSH2 0x100 EXP SWAP1 DIV PUSH20 0xFFFFFFFFFFFFFFFFFFFFFFFFFFFFFFFFFFFFFFFF AND PUSH20 0xFFFFFFFFFFFFFFFFFFFFFFFFFFFFFFFFFFFFFFFF AND EQ PUSH2 0x26C JUMPI PUSH1 0x40 MLOAD PUSH32 0x8C379A000000000000000000000000000000000000000000000000000000000 DUP2 MSTORE PUSH1 0x4 ADD PUSH2 0x263 SWAP1 PUSH2 0x6DB JUMP JUMPDEST PUSH1 0x40 MLOAD DUP1 SWAP2 SUB SWAP1 REVERT JUMPDEST PUSH0 PUSH1 0x1 PUSH0 CALLER PUSH20 0xFFFFFFFFFFFFFFFFFFFFFFFFFFFFFFFFFFFFFFFF AND PUSH20 0xFFFFFFFFFFFFFFFFFFFFFFFFFFFFFFFFFFFFFFFF AND DUP2 MSTORE PUSH1 0x20 ADD SWAP1 DUP2 MSTORE PUSH1 0x20 ADD PUSH0 KECCAK256 PUSH1 0x1 ADD SLOAD EQ PUSH2 0x2EE JUMPI PUSH1 0x40 MLOAD PUSH32 0x8C379A000000000000000000000000000000000000000000000000000000000 DUP2 MSTORE PUSH1 0x4 ADD PUSH2 0x2E5 SWAP1 PUSH2 0x769 JUMP JUMPDEST PUSH1 0x40 MLOAD DUP1 SWAP2 SUB SWAP1 REVERT JUMPDEST PUSH0 PUSH1 0x40 MLOAD DUP1 PUSH1 0x80 ADD PUSH1 0x40 MSTORE DUP1 CALLER PUSH20 0xFFFFFFFFFFFFFFFFFFFFFFFFFFFFFFFFFFFFFFFF AND DUP2 MSTORE PUSH1 0x20 ADD DUP4 DUP2 MSTORE PUSH1 0x20 ADD PUSH0 ISZERO ISZERO DUP2 MSTORE PUSH1 0x20 ADD PUSH0 DUP2 MSTORE POP SWAP1 POP DUP1 PUSH1 0x1 PUSH0 CALLER PUSH20 0xFFFFFFFFFFFFFFFFFFFFFFFFFFFFFFFFFFFFFFFF AND PUSH20 0xFFFFFFFFFFFFFFFFFFFFFFFFFFFFFFFFFFFFFFFF AND DUP2 MSTORE PUSH1 0x20 ADD SWAP1 DUP2 MSTORE PUSH1 0x20 ADD PUSH0 KECCAK256 PUSH0 DUP3 ADD MLOAD DUP2 PUSH0 ADD PUSH0 PUSH2 0x100 EXP DUP2 SLOAD DUP2 PUSH20 0xFFFFFFFFFFFFFFFFFFFFFFFFFFFFFFFFFFFFFFFF MUL NOT AND SWAP1 DUP4 PUSH20 0xFFFFFFFFFFFFFFFFFFFFFFFFFFFFFFFFFFFFFFFF AND MUL OR SWAP1 SSTORE POP PUSH1 0x20 DUP3 ADD MLOAD DUP2 PUSH1 0x1 ADD SSTORE PUSH1 0x40 DUP3 ADD MLOAD DUP2 PUSH1 0x2 ADD PUSH0 PUSH2 0x100 EXP DUP2 SLOAD DUP2 PUSH1 0xFF MUL NOT AND SWAP1 DUP4 ISZERO ISZERO MUL OR SWAP1 SSTORE POP PUSH1 0x60 DUP3 ADD MLOAD DUP2 PUSH1 0x3 ADD SSTORE SWAP1 POP POP CALLER PUSH0 DUP1 DUP5 DUP2 MSTORE PUSH1 0x20 ADD SWAP1 DUP2 MSTORE PUSH1 0x20 ADD PUSH0 KECCAK256 PUSH0 PUSH2 0x100 EXP DUP2 SLOAD DUP2 PUSH20 0xFFFFFFFFFFFFFFFFFFFFFFFFFFFFFFFFFFFFFFFF MUL NOT AND SWAP1 DUP4 PUSH20 0xFFFFFFFFFFFFFFFFFFFFFFFFFFFFFFFFFFFFFFFF AND MUL OR SWAP1 SSTORE POP POP POP JUMP JUMPDEST PUSH0 DUP1 REVERT JUMPDEST PUSH0 PUSH20 0xFFFFFFFFFFFFFFFFFFFFFFFFFFFFFFFFFFFFFFFF DUP3 AND SWAP1 POP SWAP2 SWAP1 POP JUMP JUMPDEST PUSH0 PUSH2 0x461 DUP3 PUSH2 0x438 JUMP JUMPDEST SWAP1 POP SWAP2 SWAP1 POP JUMP JUMPDEST PUSH2 0x471 DUP2 PUSH2 0x457 JUMP JUMPDEST DUP2 EQ PUSH2 0x47B JUMPI PUSH0 DUP1 REVERT JUMPDEST POP JUMP JUMPDEST PUSH0 DUP2 CALLDATALOAD SWAP1 POP PUSH2 0x48C DUP2 PUSH2 0x468 JUMP JUMPDEST SWAP3 SWAP2 POP POP JUMP JUMPDEST PUSH0 PUSH1 0x20 DUP3 DUP5 SUB SLT ISZERO PUSH2 0x4A7 JUMPI PUSH2 0x4A6 PUSH2 0x434 JUMP JUMPDEST JUMPDEST PUSH0 PUSH2 0x4B4 DUP5 DUP3 DUP6 ADD PUSH2 0x47E JUMP JUMPDEST SWAP2 POP POP SWAP3 SWAP2 POP POP JUMP JUMPDEST PUSH2 0x4C6 DUP2 PUSH2 0x457 JUMP JUMPDEST DUP3 MSTORE POP POP JUMP JUMPDEST PUSH0 DUP2 SWAP1 POP SWAP2 SWAP1 POP JUMP JUMPDEST PUSH2 0x4DE DUP2 PUSH2 0x4CC JUMP JUMPDEST DUP3 MSTORE POP POP JUMP JUMPDEST PUSH0 DUP2 ISZERO ISZERO SWAP1 POP SWAP2 SWAP1 POP JUMP JUMPDEST PUSH2 0x4F8 DUP2 PUSH2 0x4E4 JUMP JUMPDEST DUP3 MSTORE POP POP JUMP JUMPDEST PUSH0 PUSH1 0x80 DUP3 ADD SWAP1 POP PUSH2 0x511 PUSH0 DUP4 ADD DUP8 PUSH2 0x4BD JUMP JUMPDEST PUSH2 0x51E PUSH1 0x20 DUP4 ADD DUP7 PUSH2 0x4D5 JUMP JUMPDEST PUSH2 0x52B PUSH1 0x40 DUP4 ADD DUP6 PUSH2 0x4EF JUMP JUMPDEST PUSH2 0x538 PUSH1 0x60 DUP4 ADD DUP5 PUSH2 0x4D5 JUMP JUMPDEST SWAP6 SWAP5 POP POP POP POP POP JUMP JUMPDEST PUSH2 0x54A DUP2 PUSH2 0x4CC JUMP JUMPDEST DUP2 EQ PUSH2 0x554 JUMPI PUSH0 DUP1 REVERT JUMPDEST POP JUMP JUMPDEST PUSH0 DUP2 CALLDATALOAD SWAP1 POP PUSH2 0x565 DUP2 PUSH2 0x541 JUMP JUMPDEST SWAP3 SWAP2 POP POP JUMP JUMPDEST PUSH0 PUSH1 0x20 DUP3 DUP5 SUB SLT ISZERO PUSH2 0x580 JUMPI PUSH2 0x57F PUSH2 0x434 JUMP JUMPDEST JUMPDEST PUSH0 PUSH2 0x58D DUP5 DUP3 DUP6 ADD PUSH2 0x557 JUMP JUMPDEST SWAP2 POP POP SWAP3 SWAP2 POP POP JUMP JUMPDEST PUSH0 DUP2 MLOAD SWAP1 POP SWAP2 SWAP1 POP JUMP JUMPDEST PUSH0 DUP3 DUP3 MSTORE PUSH1 0x20 DUP3 ADD SWAP1 POP SWAP3 SWAP2 POP POP JUMP JUMPDEST DUP3 DUP2 DUP4 MCOPY PUSH0 DUP4 DUP4 ADD MSTORE POP POP POP JUMP JUMPDEST PUSH0 PUSH1 0x1F NOT PUSH1 0x1F DUP4 ADD AND SWAP1 POP SWAP2 SWAP1 POP JUMP JUMPDEST PUSH0 PUSH2 0x5D8 DUP3 PUSH2 0x596 JUMP JUMPDEST PUSH2 0x5E2 DUP2 DUP6 PUSH2 0x5A0 JUMP JUMPDEST SWAP4 POP PUSH2 0x5F2 DUP2 DUP6 PUSH1 0x20 DUP7 ADD PUSH2 0x5B0 JUMP JUMPDEST PUSH2 0x5FB DUP2 PUSH2 0x5BE JUMP JUMPDEST DUP5 ADD SWAP2 POP POP SWAP3 SWAP2 POP POP JUMP JUMPDEST PUSH0 PUSH1 0x40 DUP3 ADD SWAP1 POP DUP2 DUP2 SUB PUSH0 DUP4 ADD MSTORE PUSH2 0x61E DUP2 DUP6 PUSH2 0x5CE JUMP JUMPDEST SWAP1 POP PUSH2 0x62D PUSH1 0x20 DUP4 ADD DUP5 PUSH2 0x4D5 JUMP JUMPDEST SWAP4 SWAP3 POP POP POP JUMP JUMPDEST PUSH32 0x4E487B7100000000000000000000000000000000000000000000000000000000 PUSH0 MSTORE PUSH1 0x22 PUSH1 0x4 MSTORE PUSH1 0x24 PUSH0 REVERT JUMPDEST PUSH0 PUSH1 0x2 DUP3 DIV SWAP1 POP PUSH1 0x1 DUP3 AND DUP1 PUSH2 0x678 JUMPI PUSH1 0x7F DUP3 AND SWAP2 POP JUMPDEST PUSH1 0x20 DUP3 LT DUP2 SUB PUSH2 0x68B JUMPI PUSH2 0x68A PUSH2 0x634 JUMP JUMPDEST JUMPDEST POP SWAP2 SWAP1 POP JUMP JUMPDEST PUSH32 0x74686973206E756D62657220616C7265616479206578697374732E0000000000 PUSH0 DUP3 ADD MSTORE POP JUMP JUMPDEST PUSH0 PUSH2 0x6C5 PUSH1 0x1B DUP4 PUSH2 0x5A0 JUMP JUMPDEST SWAP2 POP PUSH2 0x6D0 DUP3 PUSH2 0x691 JUMP JUMPDEST PUSH1 0x20 DUP3 ADD SWAP1 POP SWAP2 SWAP1 POP JUMP JUMPDEST PUSH0 PUSH1 0x20 DUP3 ADD SWAP1 POP DUP2 DUP2 SUB PUSH0 DUP4 ADD MSTORE PUSH2 0x6F2 DUP2 PUSH2 0x6B9 JUMP JUMPDEST SWAP1 POP SWAP2 SWAP1 POP JUMP JUMPDEST PUSH32 0x74686973206164647265737320697320616C72656164792061737369676E6564 PUSH0 DUP3 ADD MSTORE PUSH32 0x20746F2061206E756D6265722E00000000000000000000000000000000000000 PUSH1 0x20 DUP3 ADD MSTORE POP JUMP JUMPDEST PUSH0 PUSH2 0x753 PUSH1 0x2D DUP4 PUSH2 0x5A0 JUMP JUMPDEST SWAP2 POP PUSH2 0x75E DUP3 PUSH2 0x6F9 JUMP JUMPDEST PUSH1 0x40 DUP3 ADD SWAP1 POP SWAP2 SWAP1 POP JUMP JUMPDEST PUSH0 PUSH1 0x20 DUP3 ADD SWAP1 POP DUP2 DUP2 SUB PUSH0 DUP4 ADD MSTORE PUSH2 0x780 DUP2 PUSH2 0x747 JUMP JUMPDEST SWAP1 POP SWAP2 SWAP1 POP JUMP INVALID LOG2 PUSH5 0x6970667358 0x22 SLT KECCAK256 0xDF 0xAA 0xED CALL 0xDC 0xA5 0xBF PUSH31 0xAF270A89C704BB0D1BAF9B4AE22DC938166E7FB10686D5C764736F6C634300 ADDMOD NOT STOP CALLER "
				},
				"gasEstimates": {
					"creation": {
						"codeDepositCost": "396200",
						"executionCost": "428",
						"totalCost": "396628"
					},
					"external": {
						"cendidates(uint256)": "infinite",
						"electors(address)": "infinite",
						"register(uint256)": "105139"
					}
				},
				"methodIdentifiers": {
					"cendidates(uint256)": "b51ce2a9",
					"electors(address)": "067efedf",
					"register(uint256)": "f207564e"
				}
			},
			"storageLayout": {
				"storage": [
					{
						"astId": 19,
						"contract": "contracts/3_Ballot.sol:Ballot",
						"label": "adresses",
						"offset": 0,
						"slot": "0",
						"type": "t_mapping(t_uint256,t_address)"
					},
					{
						"astId": 24,
						"contract": "contracts/3_Ballot.sol:Ballot",
						"label": "electors",
						"offset": 0,
						"slot": "1",
						"type": "t_mapping(t_address,t_struct(Elector)15_storage)"
					},
					{
						"astId": 28,
						"contract": "contracts/3_Ballot.sol:Ballot",
						"label": "cendidates",
						"offset": 0,
						"slot": "2",
						"type": "t_array(t_struct(Cendidate)6_storage)dyn_storage"
					}
				],
				"types": {
					"t_address": {
						"encoding": "inplace",
						"label": "address",
						"numberOfBytes": "20"
					},
					"t_array(t_struct(Cendidate)6_storage)dyn_storage": {
						"base": "t_struct(Cendidate)6_storage",
						"encoding": "dynamic_array",
						"label": "struct Ballot.Cendidate[]",
						"numberOfBytes": "32"
					},
					"t_bool": {
						"encoding": "inplace",
						"label": "bool",
						"numberOfBytes": "1"
					},
					"t_mapping(t_address,t_struct(Elector)15_storage)": {
						"encoding": "mapping",
						"key": "t_address",
						"label": "mapping(address => struct Ballot.Elector)",
						"numberOfBytes": "32",
						"value": "t_struct(Elector)15_storage"
					},
					"t_mapping(t_uint256,t_address)": {
						"encoding": "mapping",
						"key": "t_uint256",
						"label": "mapping(uint256 => address)",
						"numberOfBytes": "32",
						"value": "t_address"
					},
					"t_string_storage": {
						"encoding": "bytes",
						"label": "string",
						"numberOfBytes": "32"
					},
					"t_struct(Cendidate)6_storage": {
						"encoding": "inplace",
						"label": "struct Ballot.Cendidate",
						"members": [
							{
								"astId": 3,
								"contract": "contracts/3_Ballot.sol:Ballot",
								"label": "name",
								"offset": 0,
								"slot": "0",
								"type": "t_string_storage"
							},
							{
								"astId": 5,
								"contract": "contracts/3_Ballot.sol:Ballot",
								"label": "voteCount",
								"offset": 0,
								"slot": "1",
								"type": "t_uint256"
							}
						],
						"numberOfBytes": "64"
					},
					"t_struct(Elector)15_storage": {
						"encoding": "inplace",
						"label": "struct Ballot.Elector",
						"members": [
							{
								"astId": 8,
								"contract": "contracts/3_Ballot.sol:Ballot",
								"label": "delegate",
								"offset": 0,
								"slot": "0",
								"type": "t_address"
							},
							{
								"astId": 10,
								"contract": "contracts/3_Ballot.sol:Ballot",
								"label": "electoralNumber",
								"offset": 0,
								"slot": "1",
								"type": "t_uint256"
							},
							{
								"astId": 12,
								"contract": "contracts/3_Ballot.sol:Ballot",
								"label": "voted",
								"offset": 0,
								"slot": "2",
								"type": "t_bool"
							},
							{
								"astId": 14,
								"contract": "contracts/3_Ballot.sol:Ballot",
								"label": "vote",
								"offset": 0,
								"slot": "3",
								"type": "t_uint256"
							}
						],
						"numberOfBytes": "128"
					},
					"t_uint256": {
						"encoding": "inplace",
						"label": "uint256",
						"numberOfBytes": "32"
					}
				}
			},
			"userdoc": {
				"kind": "user",
				"methods": {},
				"version": 1
			}
		}
	}
}