{
	"contracts/3_Ballot.sol": {
		"Ballot": {
			"abi": [
				{
					"inputs": [
						{
							"internalType": "string",
							"name": "_name",
							"type": "string"
						}
					],
					"name": "addCendidate",
					"outputs": [],
					"stateMutability": "nonpayable",
					"type": "function"
				},
				{
					"inputs": [
						{
							"internalType": "uint256",
							"name": "",
							"type": "uint256"
						}
					],
					"name": "cendidates",
					"outputs": [
						{
							"internalType": "string",
							"name": "name",
							"type": "string"
						},
						{
							"internalType": "uint256",
							"name": "voteCount",
							"type": "uint256"
						}
					],
					"stateMutability": "view",
					"type": "function"
				},
				{
					"inputs": [
						{
							"internalType": "address",
							"name": "",
							"type": "address"
						}
					],
					"name": "electors",
					"outputs": [
						{
							"internalType": "address",
							"name": "delegate",
							"type": "address"
						},
						{
							"internalType": "uint256",
							"name": "electoralNumber",
							"type": "uint256"
						},
						{
							"internalType": "bool",
							"name": "voted",
							"type": "bool"
						},
						{
							"internalType": "uint256",
							"name": "vote",
							"type": "uint256"
						}
					],
					"stateMutability": "view",
					"type": "function"
				},
				{
					"inputs": [],
					"name": "getNameCendidate",
					"outputs": [
						{
							"internalType": "string[]",
							"name": "",
							"type": "string[]"
						}
					],
					"stateMutability": "view",
					"type": "function"
				},
				{
					"inputs": [],
					"name": "getNumberCendidate",
					"outputs": [
						{
							"internalType": "uint256",
							"name": "",
							"type": "uint256"
						}
					],
					"stateMutability": "view",
					"type": "function"
				},
				{
					"inputs": [],
					"name": "register",
					"outputs": [],
					"stateMutability": "nonpayable",
					"type": "function"
				}
			],
			"devdoc": {
				"kind": "dev",
				"methods": {},
				"version": 1
			},
			"evm": {
				"assembly": "    /* \"contracts/3_Ballot.sol\":62:1496  contract Ballot {... */\n  mstore(0x40, 0x80)\n  callvalue\n  dup1\n  iszero\n  tag_1\n  jumpi\n  0x00\n  dup1\n  revert\ntag_1:\n  pop\n  dataSize(sub_0)\n  dup1\n  dataOffset(sub_0)\n  0x00\n  codecopy\n  0x00\n  return\nstop\n\nsub_0: assembly {\n        /* \"contracts/3_Ballot.sol\":62:1496  contract Ballot {... */\n      mstore(0x40, 0x80)\n      callvalue\n      dup1\n      iszero\n      tag_1\n      jumpi\n      0x00\n      dup1\n      revert\n    tag_1:\n      pop\n      jumpi(tag_2, lt(calldatasize, 0x04))\n      shr(0xe0, calldataload(0x00))\n      dup1\n      0x067efedf\n      eq\n      tag_3\n      jumpi\n      dup1\n      0x15fab77a\n      eq\n      tag_4\n      jumpi\n      dup1\n      0x1aa3a008\n      eq\n      tag_5\n      jumpi\n      dup1\n      0x52d2912d\n      eq\n      tag_6\n      jumpi\n      dup1\n      0xafdfa3a3\n      eq\n      tag_7\n      jumpi\n      dup1\n      0xb51ce2a9\n      eq\n      tag_8\n      jumpi\n    tag_2:\n      0x00\n      dup1\n      revert\n        /* \"contracts/3_Ballot.sol\":328:372  mapping (address => Elector) public electors */\n    tag_3:\n      tag_9\n      0x04\n      dup1\n      calldatasize\n      sub\n      dup2\n      add\n      swap1\n      tag_10\n      swap2\n      swap1\n      tag_11\n      jump\t// in\n    tag_10:\n      tag_12\n      jump\t// in\n    tag_9:\n      mload(0x40)\n      tag_13\n      swap5\n      swap4\n      swap3\n      swap2\n      swap1\n      tag_14\n      jump\t// in\n    tag_13:\n      mload(0x40)\n      dup1\n      swap2\n      sub\n      swap1\n      return\n        /* \"contracts/3_Ballot.sol\":443:546  function addCendidate(string memory _name) public {... */\n    tag_4:\n      tag_15\n      0x04\n      dup1\n      calldatasize\n      sub\n      dup2\n      add\n      swap1\n      tag_16\n      swap2\n      swap1\n      tag_17\n      jump\t// in\n    tag_16:\n      tag_18\n      jump\t// in\n    tag_15:\n      stop\n        /* \"contracts/3_Ballot.sol\":941:1483  function register() public... */\n    tag_5:\n      tag_19\n      tag_20\n      jump\t// in\n    tag_19:\n      stop\n        /* \"contracts/3_Ballot.sol\":552:649  function getNumberCendidate() public view returns (uint){... */\n    tag_6:\n      tag_21\n      tag_22\n      jump\t// in\n    tag_21:\n      mload(0x40)\n      tag_23\n      swap2\n      swap1\n      tag_24\n      jump\t// in\n    tag_23:\n      mload(0x40)\n      dup1\n      swap2\n      sub\n      swap1\n      return\n        /* \"contracts/3_Ballot.sol\":655:935  function getNameCendidate() public view returns (string[] memory)... */\n    tag_7:\n      tag_25\n      tag_26\n      jump\t// in\n    tag_25:\n      mload(0x40)\n      tag_27\n      swap2\n      swap1\n      tag_28\n      jump\t// in\n    tag_27:\n      mload(0x40)\n      dup1\n      swap2\n      sub\n      swap1\n      return\n        /* \"contracts/3_Ballot.sol\":378:407  Cendidate[] public cendidates */\n    tag_8:\n      tag_29\n      0x04\n      dup1\n      calldatasize\n      sub\n      dup2\n      add\n      swap1\n      tag_30\n      swap2\n      swap1\n      tag_31\n      jump\t// in\n    tag_30:\n      tag_32\n      jump\t// in\n    tag_29:\n      mload(0x40)\n      tag_33\n      swap3\n      swap2\n      swap1\n      tag_34\n      jump\t// in\n    tag_33:\n      mload(0x40)\n      dup1\n      swap2\n      sub\n      swap1\n      return\n        /* \"contracts/3_Ballot.sol\":328:372  mapping (address => Elector) public electors */\n    tag_12:\n      mstore(0x20, 0x01)\n      dup1\n      0x00\n      mstore\n      keccak256(0x00, 0x40)\n      0x00\n      swap2\n      pop\n      swap1\n      pop\n      dup1\n      0x00\n      add\n      0x00\n      swap1\n      sload\n      swap1\n      0x0100\n      exp\n      swap1\n      div\n      0xffffffffffffffffffffffffffffffffffffffff\n      and\n      swap1\n      dup1\n      0x01\n      add\n      sload\n      swap1\n      dup1\n      0x02\n      add\n      0x00\n      swap1\n      sload\n      swap1\n      0x0100\n      exp\n      swap1\n      div\n      0xff\n      and\n      swap1\n      dup1\n      0x03\n      add\n      sload\n      swap1\n      pop\n      dup5\n      jump\t// out\n        /* \"contracts/3_Ballot.sol\":443:546  function addCendidate(string memory _name) public {... */\n    tag_18:\n        /* \"contracts/3_Ballot.sol\":503:513  cendidates */\n      0x02\n        /* \"contracts/3_Ballot.sol\":519:538  Cendidate(_name, 0) */\n      mload(0x40)\n      dup1\n      0x40\n      add\n      0x40\n      mstore\n      dup1\n        /* \"contracts/3_Ballot.sol\":529:534  _name */\n      dup4\n        /* \"contracts/3_Ballot.sol\":519:538  Cendidate(_name, 0) */\n      dup2\n      mstore\n      0x20\n      add\n        /* \"contracts/3_Ballot.sol\":536:537  0 */\n      0x00\n        /* \"contracts/3_Ballot.sol\":519:538  Cendidate(_name, 0) */\n      dup2\n      mstore\n      pop\n        /* \"contracts/3_Ballot.sol\":503:539  cendidates.push(Cendidate(_name, 0)) */\n      swap1\n      dup1\n      0x01\n      dup2\n      sload\n      add\n      dup1\n      dup3\n      sstore\n      dup1\n      swap2\n      pop\n      pop\n      0x01\n      swap1\n      sub\n      swap1\n      0x00\n      mstore\n      keccak256(0x00, 0x20)\n      swap1\n      0x02\n      mul\n      add\n      0x00\n      swap1\n      swap2\n      swap1\n      swap2\n      swap1\n      swap2\n      pop\n      0x00\n      dup3\n      add\n      mload\n      dup2\n      0x00\n      add\n      swap1\n      dup2\n      tag_37\n      swap2\n      swap1\n      tag_38\n      jump\t// in\n    tag_37:\n      pop\n      0x20\n      dup3\n      add\n      mload\n      dup2\n      0x01\n      add\n      sstore\n      pop\n      pop\n        /* \"contracts/3_Ballot.sol\":443:546  function addCendidate(string memory _name) public {... */\n      pop\n      jump\t// out\n        /* \"contracts/3_Ballot.sol\":941:1483  function register() public... */\n    tag_20:\n        /* \"contracts/3_Ballot.sol\":982:1003  uint _electoralNumber */\n      0x00\n        /* \"contracts/3_Ballot.sol\":1032:1050  electoralNumberMax */\n      sload(0x03)\n        /* \"contracts/3_Ballot.sol\":1013:1050  _electoralNumber = electoralNumberMax */\n      swap1\n      pop\n        /* \"contracts/3_Ballot.sol\":1082:1083  1 */\n      0x01\n        /* \"contracts/3_Ballot.sol\":1060:1078  electoralNumberMax */\n      0x03\n      0x00\n        /* \"contracts/3_Ballot.sol\":1060:1083  electoralNumberMax += 1 */\n      dup3\n      dup3\n      sload\n      tag_40\n      swap2\n      swap1\n      tag_41\n      jump\t// in\n    tag_40:\n      swap3\n      pop\n      pop\n      dup2\n      swap1\n      sstore\n      pop\n        /* \"contracts/3_Ballot.sol\":1141:1142  0 */\n      0x00\n        /* \"contracts/3_Ballot.sol\":1101:1109  electors */\n      0x01\n        /* \"contracts/3_Ballot.sol\":1101:1121  electors[msg.sender] */\n      0x00\n        /* \"contracts/3_Ballot.sol\":1110:1120  msg.sender */\n      caller\n        /* \"contracts/3_Ballot.sol\":1101:1121  electors[msg.sender] */\n      0xffffffffffffffffffffffffffffffffffffffff\n      and\n      0xffffffffffffffffffffffffffffffffffffffff\n      and\n      dup2\n      mstore\n      0x20\n      add\n      swap1\n      dup2\n      mstore\n      0x20\n      add\n      0x00\n      keccak256\n        /* \"contracts/3_Ballot.sol\":1101:1137  electors[msg.sender].electoralNumber */\n      0x01\n      add\n      sload\n        /* \"contracts/3_Ballot.sol\":1101:1142  electors[msg.sender].electoralNumber == 0 */\n      eq\n        /* \"contracts/3_Ballot.sol\":1093:1192  require(electors[msg.sender].electoralNumber == 0, \"this address is already assigned to a number.\") */\n      tag_42\n      jumpi\n      mload(0x40)\n      0x08c379a000000000000000000000000000000000000000000000000000000000\n      dup2\n      mstore\n      0x04\n      add\n      tag_43\n      swap1\n      tag_44\n      jump\t// in\n    tag_43:\n      mload(0x40)\n      dup1\n      swap2\n      sub\n      swap1\n      revert\n    tag_42:\n        /* \"contracts/3_Ballot.sol\":1311:1335  Elector memory newPerson */\n      0x00\n        /* \"contracts/3_Ballot.sol\":1338:1385  Elector(msg.sender, _electoralNumber, false, 0) */\n      mload(0x40)\n      dup1\n      0x80\n      add\n      0x40\n      mstore\n      dup1\n        /* \"contracts/3_Ballot.sol\":1346:1356  msg.sender */\n      caller\n        /* \"contracts/3_Ballot.sol\":1338:1385  Elector(msg.sender, _electoralNumber, false, 0) */\n      0xffffffffffffffffffffffffffffffffffffffff\n      and\n      dup2\n      mstore\n      0x20\n      add\n        /* \"contracts/3_Ballot.sol\":1358:1374  _electoralNumber */\n      dup4\n        /* \"contracts/3_Ballot.sol\":1338:1385  Elector(msg.sender, _electoralNumber, false, 0) */\n      dup2\n      mstore\n      0x20\n      add\n        /* \"contracts/3_Ballot.sol\":1376:1381  false */\n      0x00\n        /* \"contracts/3_Ballot.sol\":1338:1385  Elector(msg.sender, _electoralNumber, false, 0) */\n      iszero\n      iszero\n      dup2\n      mstore\n      0x20\n      add\n        /* \"contracts/3_Ballot.sol\":1383:1384  0 */\n      0x00\n        /* \"contracts/3_Ballot.sol\":1338:1385  Elector(msg.sender, _electoralNumber, false, 0) */\n      dup2\n      mstore\n      pop\n        /* \"contracts/3_Ballot.sol\":1311:1385  Elector memory newPerson = Elector(msg.sender, _electoralNumber, false, 0) */\n      swap1\n      pop\n        /* \"contracts/3_Ballot.sol\":1418:1427  newPerson */\n      dup1\n        /* \"contracts/3_Ballot.sol\":1395:1403  electors */\n      0x01\n        /* \"contracts/3_Ballot.sol\":1395:1415  electors[msg.sender] */\n      0x00\n        /* \"contracts/3_Ballot.sol\":1404:1414  msg.sender */\n      caller\n        /* \"contracts/3_Ballot.sol\":1395:1415  electors[msg.sender] */\n      0xffffffffffffffffffffffffffffffffffffffff\n      and\n      0xffffffffffffffffffffffffffffffffffffffff\n      and\n      dup2\n      mstore\n      0x20\n      add\n      swap1\n      dup2\n      mstore\n      0x20\n      add\n      0x00\n      keccak256\n        /* \"contracts/3_Ballot.sol\":1395:1427  electors[msg.sender] = newPerson */\n      0x00\n      dup3\n      add\n      mload\n      dup2\n      0x00\n      add\n      exp(0x0100, 0x00)\n      dup2\n      sload\n      dup2\n      0xffffffffffffffffffffffffffffffffffffffff\n      mul\n      not\n      and\n      swap1\n      dup4\n      0xffffffffffffffffffffffffffffffffffffffff\n      and\n      mul\n      or\n      swap1\n      sstore\n      pop\n      0x20\n      dup3\n      add\n      mload\n      dup2\n      0x01\n      add\n      sstore\n      0x40\n      dup3\n      add\n      mload\n      dup2\n      0x02\n      add\n      exp(0x0100, 0x00)\n      dup2\n      sload\n      dup2\n      0xff\n      mul\n      not\n      and\n      swap1\n      dup4\n      iszero\n      iszero\n      mul\n      or\n      swap1\n      sstore\n      pop\n      0x60\n      dup3\n      add\n      mload\n      dup2\n      0x03\n      add\n      sstore\n      swap1\n      pop\n      pop\n        /* \"contracts/3_Ballot.sol\":1466:1476  msg.sender */\n      caller\n        /* \"contracts/3_Ballot.sol\":1437:1445  adresses */\n      0x00\n        /* \"contracts/3_Ballot.sol\":1437:1463  adresses[_electoralNumber] */\n      dup1\n        /* \"contracts/3_Ballot.sol\":1446:1462  _electoralNumber */\n      dup5\n        /* \"contracts/3_Ballot.sol\":1437:1463  adresses[_electoralNumber] */\n      dup2\n      mstore\n      0x20\n      add\n      swap1\n      dup2\n      mstore\n      0x20\n      add\n      0x00\n      keccak256\n      0x00\n        /* \"contracts/3_Ballot.sol\":1437:1476  adresses[_electoralNumber] = msg.sender */\n      0x0100\n      exp\n      dup2\n      sload\n      dup2\n      0xffffffffffffffffffffffffffffffffffffffff\n      mul\n      not\n      and\n      swap1\n      dup4\n      0xffffffffffffffffffffffffffffffffffffffff\n      and\n      mul\n      or\n      swap1\n      sstore\n      pop\n        /* \"contracts/3_Ballot.sol\":972:1483  {... */\n      pop\n      pop\n        /* \"contracts/3_Ballot.sol\":941:1483  function register() public... */\n      jump\t// out\n        /* \"contracts/3_Ballot.sol\":552:649  function getNumberCendidate() public view returns (uint){... */\n    tag_22:\n        /* \"contracts/3_Ballot.sol\":603:607  uint */\n      0x00\n        /* \"contracts/3_Ballot.sol\":625:635  cendidates */\n      0x02\n        /* \"contracts/3_Ballot.sol\":625:642  cendidates.length */\n      dup1\n      sload\n      swap1\n      pop\n        /* \"contracts/3_Ballot.sol\":618:642  return cendidates.length */\n      swap1\n      pop\n        /* \"contracts/3_Ballot.sol\":552:649  function getNumberCendidate() public view returns (uint){... */\n      swap1\n      jump\t// out\n        /* \"contracts/3_Ballot.sol\":655:935  function getNameCendidate() public view returns (string[] memory)... */\n    tag_26:\n        /* \"contracts/3_Ballot.sol\":704:719  string[] memory */\n      0x60\n        /* \"contracts/3_Ballot.sol\":735:756  string[] memory names */\n      0x00\n        /* \"contracts/3_Ballot.sol\":772:782  cendidates */\n      0x02\n        /* \"contracts/3_Ballot.sol\":772:789  cendidates.length */\n      dup1\n      sload\n      swap1\n      pop\n        /* \"contracts/3_Ballot.sol\":759:790  new string[](cendidates.length) */\n      0xffffffffffffffff\n      dup2\n      gt\n      iszero\n      tag_47\n      jumpi\n      tag_48\n      tag_49\n      jump\t// in\n    tag_48:\n    tag_47:\n      mload(0x40)\n      swap1\n      dup1\n      dup3\n      mstore\n      dup1\n      0x20\n      mul\n      0x20\n      add\n      dup3\n      add\n      0x40\n      mstore\n      dup1\n      iszero\n      tag_50\n      jumpi\n      dup2\n      0x20\n      add\n    tag_51:\n      0x60\n      dup2\n      mstore\n      0x20\n      add\n      swap1\n      0x01\n      swap1\n      sub\n      swap1\n      dup2\n      tag_51\n      jumpi\n      swap1\n      pop\n    tag_50:\n      pop\n        /* \"contracts/3_Ballot.sol\":735:790  string[] memory names = new string[](cendidates.length) */\n      swap1\n      pop\n        /* \"contracts/3_Ballot.sol\":805:811  uint i */\n      0x00\n        /* \"contracts/3_Ballot.sol\":800:907  for (uint i = 0; i < cendidates.length; i++)... */\n    tag_52:\n        /* \"contracts/3_Ballot.sol\":821:831  cendidates */\n      0x02\n        /* \"contracts/3_Ballot.sol\":821:838  cendidates.length */\n      dup1\n      sload\n      swap1\n      pop\n        /* \"contracts/3_Ballot.sol\":817:818  i */\n      dup2\n        /* \"contracts/3_Ballot.sol\":817:838  i < cendidates.length */\n      lt\n        /* \"contracts/3_Ballot.sol\":800:907  for (uint i = 0; i < cendidates.length; i++)... */\n      iszero\n      tag_53\n      jumpi\n        /* \"contracts/3_Ballot.sol\":878:888  cendidates */\n      0x02\n        /* \"contracts/3_Ballot.sol\":889:890  i */\n      dup2\n        /* \"contracts/3_Ballot.sol\":878:891  cendidates[i] */\n      dup2\n      sload\n      dup2\n      lt\n      tag_55\n      jumpi\n      tag_56\n      tag_57\n      jump\t// in\n    tag_56:\n    tag_55:\n      swap1\n      0x00\n      mstore\n      keccak256(0x00, 0x20)\n      swap1\n      0x02\n      mul\n      add\n        /* \"contracts/3_Ballot.sol\":878:896  cendidates[i].name */\n      0x00\n      add\n        /* \"contracts/3_Ballot.sol\":867:896  names[i] = cendidates[i].name */\n      dup1\n      sload\n      tag_59\n      swap1\n      tag_60\n      jump\t// in\n    tag_59:\n      dup1\n      0x1f\n      add\n      0x20\n      dup1\n      swap2\n      div\n      mul\n      0x20\n      add\n      mload(0x40)\n      swap1\n      dup2\n      add\n      0x40\n      mstore\n      dup1\n      swap3\n      swap2\n      swap1\n      dup2\n      dup2\n      mstore\n      0x20\n      add\n      dup3\n      dup1\n      sload\n      tag_61\n      swap1\n      tag_60\n      jump\t// in\n    tag_61:\n      dup1\n      iszero\n      tag_62\n      jumpi\n      dup1\n      0x1f\n      lt\n      tag_63\n      jumpi\n      0x0100\n      dup1\n      dup4\n      sload\n      div\n      mul\n      dup4\n      mstore\n      swap2\n      0x20\n      add\n      swap2\n      jump(tag_62)\n    tag_63:\n      dup3\n      add\n      swap2\n      swap1\n      0x00\n      mstore\n      keccak256(0x00, 0x20)\n      swap1\n    tag_64:\n      dup2\n      sload\n      dup2\n      mstore\n      swap1\n      0x01\n      add\n      swap1\n      0x20\n      add\n      dup1\n      dup4\n      gt\n      tag_64\n      jumpi\n      dup3\n      swap1\n      sub\n      0x1f\n      and\n      dup3\n      add\n      swap2\n    tag_62:\n      pop\n      pop\n      pop\n      pop\n      pop\n        /* \"contracts/3_Ballot.sol\":867:872  names */\n      dup3\n        /* \"contracts/3_Ballot.sol\":873:874  i */\n      dup3\n        /* \"contracts/3_Ballot.sol\":867:875  names[i] */\n      dup2\n      mload\n      dup2\n      lt\n      tag_65\n      jumpi\n      tag_66\n      tag_57\n      jump\t// in\n    tag_66:\n    tag_65:\n      0x20\n      mul\n      0x20\n      add\n      add\n        /* \"contracts/3_Ballot.sol\":867:896  names[i] = cendidates[i].name */\n      dup2\n      swap1\n      mstore\n      pop\n        /* \"contracts/3_Ballot.sol\":840:843  i++ */\n      dup1\n      dup1\n      0x01\n      add\n      swap2\n      pop\n      pop\n        /* \"contracts/3_Ballot.sol\":800:907  for (uint i = 0; i < cendidates.length; i++)... */\n      jump(tag_52)\n    tag_53:\n      pop\n        /* \"contracts/3_Ballot.sol\":923:928  names */\n      dup1\n        /* \"contracts/3_Ballot.sol\":916:928  return names */\n      swap2\n      pop\n      pop\n        /* \"contracts/3_Ballot.sol\":655:935  function getNameCendidate() public view returns (string[] memory)... */\n      swap1\n      jump\t// out\n        /* \"contracts/3_Ballot.sol\":378:407  Cendidate[] public cendidates */\n    tag_32:\n      0x02\n      dup2\n      dup2\n      sload\n      dup2\n      lt\n      tag_67\n      jumpi\n      0x00\n      dup1\n      revert\n    tag_67:\n      swap1\n      0x00\n      mstore\n      keccak256(0x00, 0x20)\n      swap1\n      0x02\n      mul\n      add\n      0x00\n      swap2\n      pop\n      swap1\n      pop\n      dup1\n      0x00\n      add\n      dup1\n      sload\n      tag_69\n      swap1\n      tag_60\n      jump\t// in\n    tag_69:\n      dup1\n      0x1f\n      add\n      0x20\n      dup1\n      swap2\n      div\n      mul\n      0x20\n      add\n      mload(0x40)\n      swap1\n      dup2\n      add\n      0x40\n      mstore\n      dup1\n      swap3\n      swap2\n      swap1\n      dup2\n      dup2\n      mstore\n      0x20\n      add\n      dup3\n      dup1\n      sload\n      tag_70\n      swap1\n      tag_60\n      jump\t// in\n    tag_70:\n      dup1\n      iszero\n      tag_71\n      jumpi\n      dup1\n      0x1f\n      lt\n      tag_72\n      jumpi\n      0x0100\n      dup1\n      dup4\n      sload\n      div\n      mul\n      dup4\n      mstore\n      swap2\n      0x20\n      add\n      swap2\n      jump(tag_71)\n    tag_72:\n      dup3\n      add\n      swap2\n      swap1\n      0x00\n      mstore\n      keccak256(0x00, 0x20)\n      swap1\n    tag_73:\n      dup2\n      sload\n      dup2\n      mstore\n      swap1\n      0x01\n      add\n      swap1\n      0x20\n      add\n      dup1\n      dup4\n      gt\n      tag_73\n      jumpi\n      dup3\n      swap1\n      sub\n      0x1f\n      and\n      dup3\n      add\n      swap2\n    tag_71:\n      pop\n      pop\n      pop\n      pop\n      pop\n      swap1\n      dup1\n      0x01\n      add\n      sload\n      swap1\n      pop\n      dup3\n      jump\t// out\n        /* \"#utility.yul\":7:82   */\n    tag_74:\n        /* \"#utility.yul\":40:46   */\n      0x00\n        /* \"#utility.yul\":73:75   */\n      0x40\n        /* \"#utility.yul\":67:76   */\n      mload\n        /* \"#utility.yul\":57:76   */\n      swap1\n      pop\n        /* \"#utility.yul\":7:82   */\n      swap1\n      jump\t// out\n        /* \"#utility.yul\":88:205   */\n    tag_75:\n        /* \"#utility.yul\":197:198   */\n      0x00\n        /* \"#utility.yul\":194:195   */\n      dup1\n        /* \"#utility.yul\":187:199   */\n      revert\n        /* \"#utility.yul\":211:328   */\n    tag_76:\n        /* \"#utility.yul\":320:321   */\n      0x00\n        /* \"#utility.yul\":317:318   */\n      dup1\n        /* \"#utility.yul\":310:322   */\n      revert\n        /* \"#utility.yul\":334:460   */\n    tag_77:\n        /* \"#utility.yul\":371:378   */\n      0x00\n        /* \"#utility.yul\":411:453   */\n      0xffffffffffffffffffffffffffffffffffffffff\n        /* \"#utility.yul\":404:409   */\n      dup3\n        /* \"#utility.yul\":400:454   */\n      and\n        /* \"#utility.yul\":389:454   */\n      swap1\n      pop\n        /* \"#utility.yul\":334:460   */\n      swap2\n      swap1\n      pop\n      jump\t// out\n        /* \"#utility.yul\":466:562   */\n    tag_78:\n        /* \"#utility.yul\":503:510   */\n      0x00\n        /* \"#utility.yul\":532:556   */\n      tag_134\n        /* \"#utility.yul\":550:555   */\n      dup3\n        /* \"#utility.yul\":532:556   */\n      tag_77\n      jump\t// in\n    tag_134:\n        /* \"#utility.yul\":521:556   */\n      swap1\n      pop\n        /* \"#utility.yul\":466:562   */\n      swap2\n      swap1\n      pop\n      jump\t// out\n        /* \"#utility.yul\":568:690   */\n    tag_79:\n        /* \"#utility.yul\":641:665   */\n      tag_136\n        /* \"#utility.yul\":659:664   */\n      dup2\n        /* \"#utility.yul\":641:665   */\n      tag_78\n      jump\t// in\n    tag_136:\n        /* \"#utility.yul\":634:639   */\n      dup2\n        /* \"#utility.yul\":631:666   */\n      eq\n        /* \"#utility.yul\":621:684   */\n      tag_137\n      jumpi\n        /* \"#utility.yul\":680:681   */\n      0x00\n        /* \"#utility.yul\":677:678   */\n      dup1\n        /* \"#utility.yul\":670:682   */\n      revert\n        /* \"#utility.yul\":621:684   */\n    tag_137:\n        /* \"#utility.yul\":568:690   */\n      pop\n      jump\t// out\n        /* \"#utility.yul\":696:835   */\n    tag_80:\n        /* \"#utility.yul\":742:747   */\n      0x00\n        /* \"#utility.yul\":780:786   */\n      dup2\n        /* \"#utility.yul\":767:787   */\n      calldataload\n        /* \"#utility.yul\":758:787   */\n      swap1\n      pop\n        /* \"#utility.yul\":796:829   */\n      tag_139\n        /* \"#utility.yul\":823:828   */\n      dup2\n        /* \"#utility.yul\":796:829   */\n      tag_79\n      jump\t// in\n    tag_139:\n        /* \"#utility.yul\":696:835   */\n      swap3\n      swap2\n      pop\n      pop\n      jump\t// out\n        /* \"#utility.yul\":841:1170   */\n    tag_11:\n        /* \"#utility.yul\":900:906   */\n      0x00\n        /* \"#utility.yul\":949:951   */\n      0x20\n        /* \"#utility.yul\":937:946   */\n      dup3\n        /* \"#utility.yul\":928:935   */\n      dup5\n        /* \"#utility.yul\":924:947   */\n      sub\n        /* \"#utility.yul\":920:952   */\n      slt\n        /* \"#utility.yul\":917:1036   */\n      iszero\n      tag_141\n      jumpi\n        /* \"#utility.yul\":955:1034   */\n      tag_142\n      tag_75\n      jump\t// in\n    tag_142:\n        /* \"#utility.yul\":917:1036   */\n    tag_141:\n        /* \"#utility.yul\":1075:1076   */\n      0x00\n        /* \"#utility.yul\":1100:1153   */\n      tag_143\n        /* \"#utility.yul\":1145:1152   */\n      dup5\n        /* \"#utility.yul\":1136:1142   */\n      dup3\n        /* \"#utility.yul\":1125:1134   */\n      dup6\n        /* \"#utility.yul\":1121:1143   */\n      add\n        /* \"#utility.yul\":1100:1153   */\n      tag_80\n      jump\t// in\n    tag_143:\n        /* \"#utility.yul\":1090:1153   */\n      swap2\n      pop\n        /* \"#utility.yul\":1046:1163   */\n      pop\n        /* \"#utility.yul\":841:1170   */\n      swap3\n      swap2\n      pop\n      pop\n      jump\t// out\n        /* \"#utility.yul\":1176:1294   */\n    tag_81:\n        /* \"#utility.yul\":1263:1287   */\n      tag_145\n        /* \"#utility.yul\":1281:1286   */\n      dup2\n        /* \"#utility.yul\":1263:1287   */\n      tag_78\n      jump\t// in\n    tag_145:\n        /* \"#utility.yul\":1258:1261   */\n      dup3\n        /* \"#utility.yul\":1251:1288   */\n      mstore\n        /* \"#utility.yul\":1176:1294   */\n      pop\n      pop\n      jump\t// out\n        /* \"#utility.yul\":1300:1377   */\n    tag_82:\n        /* \"#utility.yul\":1337:1344   */\n      0x00\n        /* \"#utility.yul\":1366:1371   */\n      dup2\n        /* \"#utility.yul\":1355:1371   */\n      swap1\n      pop\n        /* \"#utility.yul\":1300:1377   */\n      swap2\n      swap1\n      pop\n      jump\t// out\n        /* \"#utility.yul\":1383:1501   */\n    tag_83:\n        /* \"#utility.yul\":1470:1494   */\n      tag_148\n        /* \"#utility.yul\":1488:1493   */\n      dup2\n        /* \"#utility.yul\":1470:1494   */\n      tag_82\n      jump\t// in\n    tag_148:\n        /* \"#utility.yul\":1465:1468   */\n      dup3\n        /* \"#utility.yul\":1458:1495   */\n      mstore\n        /* \"#utility.yul\":1383:1501   */\n      pop\n      pop\n      jump\t// out\n        /* \"#utility.yul\":1507:1597   */\n    tag_84:\n        /* \"#utility.yul\":1541:1548   */\n      0x00\n        /* \"#utility.yul\":1584:1589   */\n      dup2\n        /* \"#utility.yul\":1577:1590   */\n      iszero\n        /* \"#utility.yul\":1570:1591   */\n      iszero\n        /* \"#utility.yul\":1559:1591   */\n      swap1\n      pop\n        /* \"#utility.yul\":1507:1597   */\n      swap2\n      swap1\n      pop\n      jump\t// out\n        /* \"#utility.yul\":1603:1712   */\n    tag_85:\n        /* \"#utility.yul\":1684:1705   */\n      tag_151\n        /* \"#utility.yul\":1699:1704   */\n      dup2\n        /* \"#utility.yul\":1684:1705   */\n      tag_84\n      jump\t// in\n    tag_151:\n        /* \"#utility.yul\":1679:1682   */\n      dup3\n        /* \"#utility.yul\":1672:1706   */\n      mstore\n        /* \"#utility.yul\":1603:1712   */\n      pop\n      pop\n      jump\t// out\n        /* \"#utility.yul\":1718:2259   */\n    tag_14:\n        /* \"#utility.yul\":1889:1893   */\n      0x00\n        /* \"#utility.yul\":1927:1930   */\n      0x80\n        /* \"#utility.yul\":1916:1925   */\n      dup3\n        /* \"#utility.yul\":1912:1931   */\n      add\n        /* \"#utility.yul\":1904:1931   */\n      swap1\n      pop\n        /* \"#utility.yul\":1941:2012   */\n      tag_153\n        /* \"#utility.yul\":2009:2010   */\n      0x00\n        /* \"#utility.yul\":1998:2007   */\n      dup4\n        /* \"#utility.yul\":1994:2011   */\n      add\n        /* \"#utility.yul\":1985:1991   */\n      dup8\n        /* \"#utility.yul\":1941:2012   */\n      tag_81\n      jump\t// in\n    tag_153:\n        /* \"#utility.yul\":2022:2094   */\n      tag_154\n        /* \"#utility.yul\":2090:2092   */\n      0x20\n        /* \"#utility.yul\":2079:2088   */\n      dup4\n        /* \"#utility.yul\":2075:2093   */\n      add\n        /* \"#utility.yul\":2066:2072   */\n      dup7\n        /* \"#utility.yul\":2022:2094   */\n      tag_83\n      jump\t// in\n    tag_154:\n        /* \"#utility.yul\":2104:2170   */\n      tag_155\n        /* \"#utility.yul\":2166:2168   */\n      0x40\n        /* \"#utility.yul\":2155:2164   */\n      dup4\n        /* \"#utility.yul\":2151:2169   */\n      add\n        /* \"#utility.yul\":2142:2148   */\n      dup6\n        /* \"#utility.yul\":2104:2170   */\n      tag_85\n      jump\t// in\n    tag_155:\n        /* \"#utility.yul\":2180:2252   */\n      tag_156\n        /* \"#utility.yul\":2248:2250   */\n      0x60\n        /* \"#utility.yul\":2237:2246   */\n      dup4\n        /* \"#utility.yul\":2233:2251   */\n      add\n        /* \"#utility.yul\":2224:2230   */\n      dup5\n        /* \"#utility.yul\":2180:2252   */\n      tag_83\n      jump\t// in\n    tag_156:\n        /* \"#utility.yul\":1718:2259   */\n      swap6\n      swap5\n      pop\n      pop\n      pop\n      pop\n      pop\n      jump\t// out\n        /* \"#utility.yul\":2265:2382   */\n    tag_86:\n        /* \"#utility.yul\":2374:2375   */\n      0x00\n        /* \"#utility.yul\":2371:2372   */\n      dup1\n        /* \"#utility.yul\":2364:2376   */\n      revert\n        /* \"#utility.yul\":2388:2505   */\n    tag_87:\n        /* \"#utility.yul\":2497:2498   */\n      0x00\n        /* \"#utility.yul\":2494:2495   */\n      dup1\n        /* \"#utility.yul\":2487:2499   */\n      revert\n        /* \"#utility.yul\":2511:2613   */\n    tag_88:\n        /* \"#utility.yul\":2552:2558   */\n      0x00\n        /* \"#utility.yul\":2603:2605   */\n      0x1f\n        /* \"#utility.yul\":2599:2606   */\n      not\n        /* \"#utility.yul\":2594:2596   */\n      0x1f\n        /* \"#utility.yul\":2587:2592   */\n      dup4\n        /* \"#utility.yul\":2583:2597   */\n      add\n        /* \"#utility.yul\":2579:2607   */\n      and\n        /* \"#utility.yul\":2569:2607   */\n      swap1\n      pop\n        /* \"#utility.yul\":2511:2613   */\n      swap2\n      swap1\n      pop\n      jump\t// out\n        /* \"#utility.yul\":2619:2799   */\n    tag_49:\n        /* \"#utility.yul\":2667:2744   */\n      0x4e487b7100000000000000000000000000000000000000000000000000000000\n        /* \"#utility.yul\":2664:2665   */\n      0x00\n        /* \"#utility.yul\":2657:2745   */\n      mstore\n        /* \"#utility.yul\":2764:2768   */\n      0x41\n        /* \"#utility.yul\":2761:2762   */\n      0x04\n        /* \"#utility.yul\":2754:2769   */\n      mstore\n        /* \"#utility.yul\":2788:2792   */\n      0x24\n        /* \"#utility.yul\":2785:2786   */\n      0x00\n        /* \"#utility.yul\":2778:2793   */\n      revert\n        /* \"#utility.yul\":2805:3086   */\n    tag_89:\n        /* \"#utility.yul\":2888:2915   */\n      tag_162\n        /* \"#utility.yul\":2910:2914   */\n      dup3\n        /* \"#utility.yul\":2888:2915   */\n      tag_88\n      jump\t// in\n    tag_162:\n        /* \"#utility.yul\":2880:2886   */\n      dup2\n        /* \"#utility.yul\":2876:2916   */\n      add\n        /* \"#utility.yul\":3018:3024   */\n      dup2\n        /* \"#utility.yul\":3006:3016   */\n      dup2\n        /* \"#utility.yul\":3003:3025   */\n      lt\n        /* \"#utility.yul\":2982:3000   */\n      0xffffffffffffffff\n        /* \"#utility.yul\":2970:2980   */\n      dup3\n        /* \"#utility.yul\":2967:3001   */\n      gt\n        /* \"#utility.yul\":2964:3026   */\n      or\n        /* \"#utility.yul\":2961:3049   */\n      iszero\n      tag_163\n      jumpi\n        /* \"#utility.yul\":3029:3047   */\n      tag_164\n      tag_49\n      jump\t// in\n    tag_164:\n        /* \"#utility.yul\":2961:3049   */\n    tag_163:\n        /* \"#utility.yul\":3069:3079   */\n      dup1\n        /* \"#utility.yul\":3065:3067   */\n      0x40\n        /* \"#utility.yul\":3058:3080   */\n      mstore\n        /* \"#utility.yul\":2848:3086   */\n      pop\n        /* \"#utility.yul\":2805:3086   */\n      pop\n      pop\n      jump\t// out\n        /* \"#utility.yul\":3092:3221   */\n    tag_90:\n        /* \"#utility.yul\":3126:3132   */\n      0x00\n        /* \"#utility.yul\":3153:3173   */\n      tag_166\n      tag_74\n      jump\t// in\n    tag_166:\n        /* \"#utility.yul\":3143:3173   */\n      swap1\n      pop\n        /* \"#utility.yul\":3182:3215   */\n      tag_167\n        /* \"#utility.yul\":3210:3214   */\n      dup3\n        /* \"#utility.yul\":3202:3208   */\n      dup3\n        /* \"#utility.yul\":3182:3215   */\n      tag_89\n      jump\t// in\n    tag_167:\n        /* \"#utility.yul\":3092:3221   */\n      swap2\n      swap1\n      pop\n      jump\t// out\n        /* \"#utility.yul\":3227:3535   */\n    tag_91:\n        /* \"#utility.yul\":3289:3293   */\n      0x00\n        /* \"#utility.yul\":3379:3397   */\n      0xffffffffffffffff\n        /* \"#utility.yul\":3371:3377   */\n      dup3\n        /* \"#utility.yul\":3368:3398   */\n      gt\n        /* \"#utility.yul\":3365:3421   */\n      iszero\n      tag_169\n      jumpi\n        /* \"#utility.yul\":3401:3419   */\n      tag_170\n      tag_49\n      jump\t// in\n    tag_170:\n        /* \"#utility.yul\":3365:3421   */\n    tag_169:\n        /* \"#utility.yul\":3439:3468   */\n      tag_171\n        /* \"#utility.yul\":3461:3467   */\n      dup3\n        /* \"#utility.yul\":3439:3468   */\n      tag_88\n      jump\t// in\n    tag_171:\n        /* \"#utility.yul\":3431:3468   */\n      swap1\n      pop\n        /* \"#utility.yul\":3523:3527   */\n      0x20\n        /* \"#utility.yul\":3517:3521   */\n      dup2\n        /* \"#utility.yul\":3513:3528   */\n      add\n        /* \"#utility.yul\":3505:3528   */\n      swap1\n      pop\n        /* \"#utility.yul\":3227:3535   */\n      swap2\n      swap1\n      pop\n      jump\t// out\n        /* \"#utility.yul\":3541:3689   */\n    tag_92:\n        /* \"#utility.yul\":3639:3645   */\n      dup3\n        /* \"#utility.yul\":3634:3637   */\n      dup2\n        /* \"#utility.yul\":3629:3632   */\n      dup4\n        /* \"#utility.yul\":3616:3646   */\n      calldatacopy\n        /* \"#utility.yul\":3680:3681   */\n      0x00\n        /* \"#utility.yul\":3671:3677   */\n      dup4\n        /* \"#utility.yul\":3666:3669   */\n      dup4\n        /* \"#utility.yul\":3662:3678   */\n      add\n        /* \"#utility.yul\":3655:3682   */\n      mstore\n        /* \"#utility.yul\":3541:3689   */\n      pop\n      pop\n      pop\n      jump\t// out\n        /* \"#utility.yul\":3695:4120   */\n    tag_93:\n        /* \"#utility.yul\":3773:3778   */\n      0x00\n        /* \"#utility.yul\":3798:3864   */\n      tag_174\n        /* \"#utility.yul\":3814:3863   */\n      tag_175\n        /* \"#utility.yul\":3856:3862   */\n      dup5\n        /* \"#utility.yul\":3814:3863   */\n      tag_91\n      jump\t// in\n    tag_175:\n        /* \"#utility.yul\":3798:3864   */\n      tag_90\n      jump\t// in\n    tag_174:\n        /* \"#utility.yul\":3789:3864   */\n      swap1\n      pop\n        /* \"#utility.yul\":3887:3893   */\n      dup3\n        /* \"#utility.yul\":3880:3885   */\n      dup2\n        /* \"#utility.yul\":3873:3894   */\n      mstore\n        /* \"#utility.yul\":3925:3929   */\n      0x20\n        /* \"#utility.yul\":3918:3923   */\n      dup2\n        /* \"#utility.yul\":3914:3930   */\n      add\n        /* \"#utility.yul\":3963:3966   */\n      dup5\n        /* \"#utility.yul\":3954:3960   */\n      dup5\n        /* \"#utility.yul\":3949:3952   */\n      dup5\n        /* \"#utility.yul\":3945:3961   */\n      add\n        /* \"#utility.yul\":3942:3967   */\n      gt\n        /* \"#utility.yul\":3939:4051   */\n      iszero\n      tag_176\n      jumpi\n        /* \"#utility.yul\":3970:4049   */\n      tag_177\n      tag_87\n      jump\t// in\n    tag_177:\n        /* \"#utility.yul\":3939:4051   */\n    tag_176:\n        /* \"#utility.yul\":4060:4114   */\n      tag_178\n        /* \"#utility.yul\":4107:4113   */\n      dup5\n        /* \"#utility.yul\":4102:4105   */\n      dup3\n        /* \"#utility.yul\":4097:4100   */\n      dup6\n        /* \"#utility.yul\":4060:4114   */\n      tag_92\n      jump\t// in\n    tag_178:\n        /* \"#utility.yul\":3779:4120   */\n      pop\n        /* \"#utility.yul\":3695:4120   */\n      swap4\n      swap3\n      pop\n      pop\n      pop\n      jump\t// out\n        /* \"#utility.yul\":4140:4480   */\n    tag_94:\n        /* \"#utility.yul\":4196:4201   */\n      0x00\n        /* \"#utility.yul\":4245:4248   */\n      dup3\n        /* \"#utility.yul\":4238:4242   */\n      0x1f\n        /* \"#utility.yul\":4230:4236   */\n      dup4\n        /* \"#utility.yul\":4226:4243   */\n      add\n        /* \"#utility.yul\":4222:4249   */\n      slt\n        /* \"#utility.yul\":4212:4334   */\n      tag_180\n      jumpi\n        /* \"#utility.yul\":4253:4332   */\n      tag_181\n      tag_86\n      jump\t// in\n    tag_181:\n        /* \"#utility.yul\":4212:4334   */\n    tag_180:\n        /* \"#utility.yul\":4370:4376   */\n      dup2\n        /* \"#utility.yul\":4357:4377   */\n      calldataload\n        /* \"#utility.yul\":4395:4474   */\n      tag_182\n        /* \"#utility.yul\":4470:4473   */\n      dup5\n        /* \"#utility.yul\":4462:4468   */\n      dup3\n        /* \"#utility.yul\":4455:4459   */\n      0x20\n        /* \"#utility.yul\":4447:4453   */\n      dup7\n        /* \"#utility.yul\":4443:4460   */\n      add\n        /* \"#utility.yul\":4395:4474   */\n      tag_93\n      jump\t// in\n    tag_182:\n        /* \"#utility.yul\":4386:4474   */\n      swap2\n      pop\n        /* \"#utility.yul\":4202:4480   */\n      pop\n        /* \"#utility.yul\":4140:4480   */\n      swap3\n      swap2\n      pop\n      pop\n      jump\t// out\n        /* \"#utility.yul\":4486:4995   */\n    tag_17:\n        /* \"#utility.yul\":4555:4561   */\n      0x00\n        /* \"#utility.yul\":4604:4606   */\n      0x20\n        /* \"#utility.yul\":4592:4601   */\n      dup3\n        /* \"#utility.yul\":4583:4590   */\n      dup5\n        /* \"#utility.yul\":4579:4602   */\n      sub\n        /* \"#utility.yul\":4575:4607   */\n      slt\n        /* \"#utility.yul\":4572:4691   */\n      iszero\n      tag_184\n      jumpi\n        /* \"#utility.yul\":4610:4689   */\n      tag_185\n      tag_75\n      jump\t// in\n    tag_185:\n        /* \"#utility.yul\":4572:4691   */\n    tag_184:\n        /* \"#utility.yul\":4758:4759   */\n      0x00\n        /* \"#utility.yul\":4747:4756   */\n      dup3\n        /* \"#utility.yul\":4743:4760   */\n      add\n        /* \"#utility.yul\":4730:4761   */\n      calldataload\n        /* \"#utility.yul\":4788:4806   */\n      0xffffffffffffffff\n        /* \"#utility.yul\":4780:4786   */\n      dup2\n        /* \"#utility.yul\":4777:4807   */\n      gt\n        /* \"#utility.yul\":4774:4891   */\n      iszero\n      tag_186\n      jumpi\n        /* \"#utility.yul\":4810:4889   */\n      tag_187\n      tag_76\n      jump\t// in\n    tag_187:\n        /* \"#utility.yul\":4774:4891   */\n    tag_186:\n        /* \"#utility.yul\":4915:4978   */\n      tag_188\n        /* \"#utility.yul\":4970:4977   */\n      dup5\n        /* \"#utility.yul\":4961:4967   */\n      dup3\n        /* \"#utility.yul\":4950:4959   */\n      dup6\n        /* \"#utility.yul\":4946:4968   */\n      add\n        /* \"#utility.yul\":4915:4978   */\n      tag_94\n      jump\t// in\n    tag_188:\n        /* \"#utility.yul\":4905:4978   */\n      swap2\n      pop\n        /* \"#utility.yul\":4701:4988   */\n      pop\n        /* \"#utility.yul\":4486:4995   */\n      swap3\n      swap2\n      pop\n      pop\n      jump\t// out\n        /* \"#utility.yul\":5001:5223   */\n    tag_24:\n        /* \"#utility.yul\":5094:5098   */\n      0x00\n        /* \"#utility.yul\":5132:5134   */\n      0x20\n        /* \"#utility.yul\":5121:5130   */\n      dup3\n        /* \"#utility.yul\":5117:5135   */\n      add\n        /* \"#utility.yul\":5109:5135   */\n      swap1\n      pop\n        /* \"#utility.yul\":5145:5216   */\n      tag_190\n        /* \"#utility.yul\":5213:5214   */\n      0x00\n        /* \"#utility.yul\":5202:5211   */\n      dup4\n        /* \"#utility.yul\":5198:5215   */\n      add\n        /* \"#utility.yul\":5189:5195   */\n      dup5\n        /* \"#utility.yul\":5145:5216   */\n      tag_83\n      jump\t// in\n    tag_190:\n        /* \"#utility.yul\":5001:5223   */\n      swap3\n      swap2\n      pop\n      pop\n      jump\t// out\n        /* \"#utility.yul\":5229:5353   */\n    tag_95:\n        /* \"#utility.yul\":5306:5312   */\n      0x00\n        /* \"#utility.yul\":5340:5345   */\n      dup2\n        /* \"#utility.yul\":5334:5346   */\n      mload\n        /* \"#utility.yul\":5324:5346   */\n      swap1\n      pop\n        /* \"#utility.yul\":5229:5353   */\n      swap2\n      swap1\n      pop\n      jump\t// out\n        /* \"#utility.yul\":5359:5553   */\n    tag_96:\n        /* \"#utility.yul\":5468:5479   */\n      0x00\n        /* \"#utility.yul\":5502:5508   */\n      dup3\n        /* \"#utility.yul\":5497:5500   */\n      dup3\n        /* \"#utility.yul\":5490:5509   */\n      mstore\n        /* \"#utility.yul\":5542:5546   */\n      0x20\n        /* \"#utility.yul\":5537:5540   */\n      dup3\n        /* \"#utility.yul\":5533:5547   */\n      add\n        /* \"#utility.yul\":5518:5547   */\n      swap1\n      pop\n        /* \"#utility.yul\":5359:5553   */\n      swap3\n      swap2\n      pop\n      pop\n      jump\t// out\n        /* \"#utility.yul\":5559:5701   */\n    tag_97:\n        /* \"#utility.yul\":5636:5640   */\n      0x00\n        /* \"#utility.yul\":5659:5662   */\n      dup2\n        /* \"#utility.yul\":5651:5662   */\n      swap1\n      pop\n        /* \"#utility.yul\":5689:5693   */\n      0x20\n        /* \"#utility.yul\":5684:5687   */\n      dup3\n        /* \"#utility.yul\":5680:5694   */\n      add\n        /* \"#utility.yul\":5672:5694   */\n      swap1\n      pop\n        /* \"#utility.yul\":5559:5701   */\n      swap2\n      swap1\n      pop\n      jump\t// out\n        /* \"#utility.yul\":5707:5806   */\n    tag_98:\n        /* \"#utility.yul\":5759:5765   */\n      0x00\n        /* \"#utility.yul\":5793:5798   */\n      dup2\n        /* \"#utility.yul\":5787:5799   */\n      mload\n        /* \"#utility.yul\":5777:5799   */\n      swap1\n      pop\n        /* \"#utility.yul\":5707:5806   */\n      swap2\n      swap1\n      pop\n      jump\t// out\n        /* \"#utility.yul\":5812:5971   */\n    tag_99:\n        /* \"#utility.yul\":5886:5897   */\n      0x00\n        /* \"#utility.yul\":5920:5926   */\n      dup3\n        /* \"#utility.yul\":5915:5918   */\n      dup3\n        /* \"#utility.yul\":5908:5927   */\n      mstore\n        /* \"#utility.yul\":5960:5964   */\n      0x20\n        /* \"#utility.yul\":5955:5958   */\n      dup3\n        /* \"#utility.yul\":5951:5965   */\n      add\n        /* \"#utility.yul\":5936:5965   */\n      swap1\n      pop\n        /* \"#utility.yul\":5812:5971   */\n      swap3\n      swap2\n      pop\n      pop\n      jump\t// out\n        /* \"#utility.yul\":5977:6116   */\n    tag_100:\n        /* \"#utility.yul\":6066:6072   */\n      dup3\n        /* \"#utility.yul\":6061:6064   */\n      dup2\n        /* \"#utility.yul\":6056:6059   */\n      dup4\n        /* \"#utility.yul\":6050:6073   */\n      mcopy\n        /* \"#utility.yul\":6107:6108   */\n      0x00\n        /* \"#utility.yul\":6098:6104   */\n      dup4\n        /* \"#utility.yul\":6093:6096   */\n      dup4\n        /* \"#utility.yul\":6089:6105   */\n      add\n        /* \"#utility.yul\":6082:6109   */\n      mstore\n        /* \"#utility.yul\":5977:6116   */\n      pop\n      pop\n      pop\n      jump\t// out\n        /* \"#utility.yul\":6122:6479   */\n    tag_101:\n        /* \"#utility.yul\":6200:6203   */\n      0x00\n        /* \"#utility.yul\":6228:6267   */\n      tag_198\n        /* \"#utility.yul\":6261:6266   */\n      dup3\n        /* \"#utility.yul\":6228:6267   */\n      tag_98\n      jump\t// in\n    tag_198:\n        /* \"#utility.yul\":6283:6344   */\n      tag_199\n        /* \"#utility.yul\":6337:6343   */\n      dup2\n        /* \"#utility.yul\":6332:6335   */\n      dup6\n        /* \"#utility.yul\":6283:6344   */\n      tag_99\n      jump\t// in\n    tag_199:\n        /* \"#utility.yul\":6276:6344   */\n      swap4\n      pop\n        /* \"#utility.yul\":6353:6418   */\n      tag_200\n        /* \"#utility.yul\":6411:6417   */\n      dup2\n        /* \"#utility.yul\":6406:6409   */\n      dup6\n        /* \"#utility.yul\":6399:6403   */\n      0x20\n        /* \"#utility.yul\":6392:6397   */\n      dup7\n        /* \"#utility.yul\":6388:6404   */\n      add\n        /* \"#utility.yul\":6353:6418   */\n      tag_100\n      jump\t// in\n    tag_200:\n        /* \"#utility.yul\":6443:6472   */\n      tag_201\n        /* \"#utility.yul\":6465:6471   */\n      dup2\n        /* \"#utility.yul\":6443:6472   */\n      tag_88\n      jump\t// in\n    tag_201:\n        /* \"#utility.yul\":6438:6441   */\n      dup5\n        /* \"#utility.yul\":6434:6473   */\n      add\n        /* \"#utility.yul\":6427:6473   */\n      swap2\n      pop\n        /* \"#utility.yul\":6204:6479   */\n      pop\n        /* \"#utility.yul\":6122:6479   */\n      swap3\n      swap2\n      pop\n      pop\n      jump\t// out\n        /* \"#utility.yul\":6485:6681   */\n    tag_102:\n        /* \"#utility.yul\":6574:6584   */\n      0x00\n        /* \"#utility.yul\":6609:6675   */\n      tag_203\n        /* \"#utility.yul\":6671:6674   */\n      dup4\n        /* \"#utility.yul\":6663:6669   */\n      dup4\n        /* \"#utility.yul\":6609:6675   */\n      tag_101\n      jump\t// in\n    tag_203:\n        /* \"#utility.yul\":6595:6675   */\n      swap1\n      pop\n        /* \"#utility.yul\":6485:6681   */\n      swap3\n      swap2\n      pop\n      pop\n      jump\t// out\n        /* \"#utility.yul\":6687:6810   */\n    tag_103:\n        /* \"#utility.yul\":6767:6771   */\n      0x00\n        /* \"#utility.yul\":6799:6803   */\n      0x20\n        /* \"#utility.yul\":6794:6797   */\n      dup3\n        /* \"#utility.yul\":6790:6804   */\n      add\n        /* \"#utility.yul\":6782:6804   */\n      swap1\n      pop\n        /* \"#utility.yul\":6687:6810   */\n      swap2\n      swap1\n      pop\n      jump\t// out\n        /* \"#utility.yul\":6844:7835   */\n    tag_104:\n        /* \"#utility.yul\":6983:6986   */\n      0x00\n        /* \"#utility.yul\":7012:7076   */\n      tag_206\n        /* \"#utility.yul\":7070:7075   */\n      dup3\n        /* \"#utility.yul\":7012:7076   */\n      tag_95\n      jump\t// in\n    tag_206:\n        /* \"#utility.yul\":7092:7188   */\n      tag_207\n        /* \"#utility.yul\":7181:7187   */\n      dup2\n        /* \"#utility.yul\":7176:7179   */\n      dup6\n        /* \"#utility.yul\":7092:7188   */\n      tag_96\n      jump\t// in\n    tag_207:\n        /* \"#utility.yul\":7085:7188   */\n      swap4\n      pop\n        /* \"#utility.yul\":7214:7217   */\n      dup4\n        /* \"#utility.yul\":7259:7263   */\n      0x20\n        /* \"#utility.yul\":7251:7257   */\n      dup3\n        /* \"#utility.yul\":7247:7264   */\n      mul\n        /* \"#utility.yul\":7242:7245   */\n      dup6\n        /* \"#utility.yul\":7238:7265   */\n      add\n        /* \"#utility.yul\":7289:7355   */\n      tag_208\n        /* \"#utility.yul\":7349:7354   */\n      dup6\n        /* \"#utility.yul\":7289:7355   */\n      tag_97\n      jump\t// in\n    tag_208:\n        /* \"#utility.yul\":7378:7385   */\n      dup1\n        /* \"#utility.yul\":7409:7410   */\n      0x00\n        /* \"#utility.yul\":7394:7790   */\n    tag_209:\n        /* \"#utility.yul\":7419:7425   */\n      dup6\n        /* \"#utility.yul\":7416:7417   */\n      dup2\n        /* \"#utility.yul\":7413:7426   */\n      lt\n        /* \"#utility.yul\":7394:7790   */\n      iszero\n      tag_211\n      jumpi\n        /* \"#utility.yul\":7490:7499   */\n      dup5\n        /* \"#utility.yul\":7484:7488   */\n      dup5\n        /* \"#utility.yul\":7480:7500   */\n      sub\n        /* \"#utility.yul\":7475:7478   */\n      dup10\n        /* \"#utility.yul\":7468:7501   */\n      mstore\n        /* \"#utility.yul\":7541:7547   */\n      dup2\n        /* \"#utility.yul\":7535:7548   */\n      mload\n        /* \"#utility.yul\":7569:7653   */\n      tag_212\n        /* \"#utility.yul\":7648:7652   */\n      dup6\n        /* \"#utility.yul\":7633:7646   */\n      dup3\n        /* \"#utility.yul\":7569:7653   */\n      tag_102\n      jump\t// in\n    tag_212:\n        /* \"#utility.yul\":7561:7653   */\n      swap5\n      pop\n        /* \"#utility.yul\":7676:7746   */\n      tag_213\n        /* \"#utility.yul\":7739:7745   */\n      dup4\n        /* \"#utility.yul\":7676:7746   */\n      tag_103\n      jump\t// in\n    tag_213:\n        /* \"#utility.yul\":7666:7746   */\n      swap3\n      pop\n        /* \"#utility.yul\":7775:7779   */\n      0x20\n        /* \"#utility.yul\":7770:7773   */\n      dup11\n        /* \"#utility.yul\":7766:7780   */\n      add\n        /* \"#utility.yul\":7759:7780   */\n      swap10\n      pop\n        /* \"#utility.yul\":7454:7790   */\n      pop\n        /* \"#utility.yul\":7441:7442   */\n      0x01\n        /* \"#utility.yul\":7438:7439   */\n      dup2\n        /* \"#utility.yul\":7434:7443   */\n      add\n        /* \"#utility.yul\":7429:7443   */\n      swap1\n      pop\n        /* \"#utility.yul\":7394:7790   */\n      jump(tag_209)\n    tag_211:\n        /* \"#utility.yul\":7398:7412   */\n      pop\n        /* \"#utility.yul\":7806:7810   */\n      dup3\n        /* \"#utility.yul\":7799:7810   */\n      swap8\n      pop\n        /* \"#utility.yul\":7826:7829   */\n      dup8\n        /* \"#utility.yul\":7819:7829   */\n      swap6\n      pop\n        /* \"#utility.yul\":6988:7835   */\n      pop\n      pop\n      pop\n      pop\n      pop\n        /* \"#utility.yul\":6844:7835   */\n      swap3\n      swap2\n      pop\n      pop\n      jump\t// out\n        /* \"#utility.yul\":7841:8254   */\n    tag_28:\n        /* \"#utility.yul\":8004:8008   */\n      0x00\n        /* \"#utility.yul\":8042:8044   */\n      0x20\n        /* \"#utility.yul\":8031:8040   */\n      dup3\n        /* \"#utility.yul\":8027:8045   */\n      add\n        /* \"#utility.yul\":8019:8045   */\n      swap1\n      pop\n        /* \"#utility.yul\":8091:8100   */\n      dup2\n        /* \"#utility.yul\":8085:8089   */\n      dup2\n        /* \"#utility.yul\":8081:8101   */\n      sub\n        /* \"#utility.yul\":8077:8078   */\n      0x00\n        /* \"#utility.yul\":8066:8075   */\n      dup4\n        /* \"#utility.yul\":8062:8079   */\n      add\n        /* \"#utility.yul\":8055:8102   */\n      mstore\n        /* \"#utility.yul\":8119:8247   */\n      tag_215\n        /* \"#utility.yul\":8242:8246   */\n      dup2\n        /* \"#utility.yul\":8233:8239   */\n      dup5\n        /* \"#utility.yul\":8119:8247   */\n      tag_104\n      jump\t// in\n    tag_215:\n        /* \"#utility.yul\":8111:8247   */\n      swap1\n      pop\n        /* \"#utility.yul\":7841:8254   */\n      swap3\n      swap2\n      pop\n      pop\n      jump\t// out\n        /* \"#utility.yul\":8260:8382   */\n    tag_105:\n        /* \"#utility.yul\":8333:8357   */\n      tag_217\n        /* \"#utility.yul\":8351:8356   */\n      dup2\n        /* \"#utility.yul\":8333:8357   */\n      tag_82\n      jump\t// in\n    tag_217:\n        /* \"#utility.yul\":8326:8331   */\n      dup2\n        /* \"#utility.yul\":8323:8358   */\n      eq\n        /* \"#utility.yul\":8313:8376   */\n      tag_218\n      jumpi\n        /* \"#utility.yul\":8372:8373   */\n      0x00\n        /* \"#utility.yul\":8369:8370   */\n      dup1\n        /* \"#utility.yul\":8362:8374   */\n      revert\n        /* \"#utility.yul\":8313:8376   */\n    tag_218:\n        /* \"#utility.yul\":8260:8382   */\n      pop\n      jump\t// out\n        /* \"#utility.yul\":8388:8527   */\n    tag_106:\n        /* \"#utility.yul\":8434:8439   */\n      0x00\n        /* \"#utility.yul\":8472:8478   */\n      dup2\n        /* \"#utility.yul\":8459:8479   */\n      calldataload\n        /* \"#utility.yul\":8450:8479   */\n      swap1\n      pop\n        /* \"#utility.yul\":8488:8521   */\n      tag_220\n        /* \"#utility.yul\":8515:8520   */\n      dup2\n        /* \"#utility.yul\":8488:8521   */\n      tag_105\n      jump\t// in\n    tag_220:\n        /* \"#utility.yul\":8388:8527   */\n      swap3\n      swap2\n      pop\n      pop\n      jump\t// out\n        /* \"#utility.yul\":8533:8862   */\n    tag_31:\n        /* \"#utility.yul\":8592:8598   */\n      0x00\n        /* \"#utility.yul\":8641:8643   */\n      0x20\n        /* \"#utility.yul\":8629:8638   */\n      dup3\n        /* \"#utility.yul\":8620:8627   */\n      dup5\n        /* \"#utility.yul\":8616:8639   */\n      sub\n        /* \"#utility.yul\":8612:8644   */\n      slt\n        /* \"#utility.yul\":8609:8728   */\n      iszero\n      tag_222\n      jumpi\n        /* \"#utility.yul\":8647:8726   */\n      tag_223\n      tag_75\n      jump\t// in\n    tag_223:\n        /* \"#utility.yul\":8609:8728   */\n    tag_222:\n        /* \"#utility.yul\":8767:8768   */\n      0x00\n        /* \"#utility.yul\":8792:8845   */\n      tag_224\n        /* \"#utility.yul\":8837:8844   */\n      dup5\n        /* \"#utility.yul\":8828:8834   */\n      dup3\n        /* \"#utility.yul\":8817:8826   */\n      dup6\n        /* \"#utility.yul\":8813:8835   */\n      add\n        /* \"#utility.yul\":8792:8845   */\n      tag_106\n      jump\t// in\n    tag_224:\n        /* \"#utility.yul\":8782:8845   */\n      swap2\n      pop\n        /* \"#utility.yul\":8738:8855   */\n      pop\n        /* \"#utility.yul\":8533:8862   */\n      swap3\n      swap2\n      pop\n      pop\n      jump\t// out\n        /* \"#utility.yul\":8868:9037   */\n    tag_107:\n        /* \"#utility.yul\":8952:8963   */\n      0x00\n        /* \"#utility.yul\":8986:8992   */\n      dup3\n        /* \"#utility.yul\":8981:8984   */\n      dup3\n        /* \"#utility.yul\":8974:8993   */\n      mstore\n        /* \"#utility.yul\":9026:9030   */\n      0x20\n        /* \"#utility.yul\":9021:9024   */\n      dup3\n        /* \"#utility.yul\":9017:9031   */\n      add\n        /* \"#utility.yul\":9002:9031   */\n      swap1\n      pop\n        /* \"#utility.yul\":8868:9037   */\n      swap3\n      swap2\n      pop\n      pop\n      jump\t// out\n        /* \"#utility.yul\":9043:9420   */\n    tag_108:\n        /* \"#utility.yul\":9131:9134   */\n      0x00\n        /* \"#utility.yul\":9159:9198   */\n      tag_227\n        /* \"#utility.yul\":9192:9197   */\n      dup3\n        /* \"#utility.yul\":9159:9198   */\n      tag_98\n      jump\t// in\n    tag_227:\n        /* \"#utility.yul\":9214:9285   */\n      tag_228\n        /* \"#utility.yul\":9278:9284   */\n      dup2\n        /* \"#utility.yul\":9273:9276   */\n      dup6\n        /* \"#utility.yul\":9214:9285   */\n      tag_107\n      jump\t// in\n    tag_228:\n        /* \"#utility.yul\":9207:9285   */\n      swap4\n      pop\n        /* \"#utility.yul\":9294:9359   */\n      tag_229\n        /* \"#utility.yul\":9352:9358   */\n      dup2\n        /* \"#utility.yul\":9347:9350   */\n      dup6\n        /* \"#utility.yul\":9340:9344   */\n      0x20\n        /* \"#utility.yul\":9333:9338   */\n      dup7\n        /* \"#utility.yul\":9329:9345   */\n      add\n        /* \"#utility.yul\":9294:9359   */\n      tag_100\n      jump\t// in\n    tag_229:\n        /* \"#utility.yul\":9384:9413   */\n      tag_230\n        /* \"#utility.yul\":9406:9412   */\n      dup2\n        /* \"#utility.yul\":9384:9413   */\n      tag_88\n      jump\t// in\n    tag_230:\n        /* \"#utility.yul\":9379:9382   */\n      dup5\n        /* \"#utility.yul\":9375:9414   */\n      add\n        /* \"#utility.yul\":9368:9414   */\n      swap2\n      pop\n        /* \"#utility.yul\":9135:9420   */\n      pop\n        /* \"#utility.yul\":9043:9420   */\n      swap3\n      swap2\n      pop\n      pop\n      jump\t// out\n        /* \"#utility.yul\":9426:9849   */\n    tag_34:\n        /* \"#utility.yul\":9567:9571   */\n      0x00\n        /* \"#utility.yul\":9605:9607   */\n      0x40\n        /* \"#utility.yul\":9594:9603   */\n      dup3\n        /* \"#utility.yul\":9590:9608   */\n      add\n        /* \"#utility.yul\":9582:9608   */\n      swap1\n      pop\n        /* \"#utility.yul\":9654:9663   */\n      dup2\n        /* \"#utility.yul\":9648:9652   */\n      dup2\n        /* \"#utility.yul\":9644:9664   */\n      sub\n        /* \"#utility.yul\":9640:9641   */\n      0x00\n        /* \"#utility.yul\":9629:9638   */\n      dup4\n        /* \"#utility.yul\":9625:9642   */\n      add\n        /* \"#utility.yul\":9618:9665   */\n      mstore\n        /* \"#utility.yul\":9682:9760   */\n      tag_232\n        /* \"#utility.yul\":9755:9759   */\n      dup2\n        /* \"#utility.yul\":9746:9752   */\n      dup6\n        /* \"#utility.yul\":9682:9760   */\n      tag_108\n      jump\t// in\n    tag_232:\n        /* \"#utility.yul\":9674:9760   */\n      swap1\n      pop\n        /* \"#utility.yul\":9770:9842   */\n      tag_233\n        /* \"#utility.yul\":9838:9840   */\n      0x20\n        /* \"#utility.yul\":9827:9836   */\n      dup4\n        /* \"#utility.yul\":9823:9841   */\n      add\n        /* \"#utility.yul\":9814:9820   */\n      dup5\n        /* \"#utility.yul\":9770:9842   */\n      tag_83\n      jump\t// in\n    tag_233:\n        /* \"#utility.yul\":9426:9849   */\n      swap4\n      swap3\n      pop\n      pop\n      pop\n      jump\t// out\n        /* \"#utility.yul\":9855:10035   */\n    tag_109:\n        /* \"#utility.yul\":9903:9980   */\n      0x4e487b7100000000000000000000000000000000000000000000000000000000\n        /* \"#utility.yul\":9900:9901   */\n      0x00\n        /* \"#utility.yul\":9893:9981   */\n      mstore\n        /* \"#utility.yul\":10000:10004   */\n      0x22\n        /* \"#utility.yul\":9997:9998   */\n      0x04\n        /* \"#utility.yul\":9990:10005   */\n      mstore\n        /* \"#utility.yul\":10024:10028   */\n      0x24\n        /* \"#utility.yul\":10021:10022   */\n      0x00\n        /* \"#utility.yul\":10014:10029   */\n      revert\n        /* \"#utility.yul\":10041:10361   */\n    tag_60:\n        /* \"#utility.yul\":10085:10091   */\n      0x00\n        /* \"#utility.yul\":10122:10123   */\n      0x02\n        /* \"#utility.yul\":10116:10120   */\n      dup3\n        /* \"#utility.yul\":10112:10124   */\n      div\n        /* \"#utility.yul\":10102:10124   */\n      swap1\n      pop\n        /* \"#utility.yul\":10169:10170   */\n      0x01\n        /* \"#utility.yul\":10163:10167   */\n      dup3\n        /* \"#utility.yul\":10159:10171   */\n      and\n        /* \"#utility.yul\":10190:10208   */\n      dup1\n        /* \"#utility.yul\":10180:10261   */\n      tag_236\n      jumpi\n        /* \"#utility.yul\":10246:10250   */\n      0x7f\n        /* \"#utility.yul\":10238:10244   */\n      dup3\n        /* \"#utility.yul\":10234:10251   */\n      and\n        /* \"#utility.yul\":10224:10251   */\n      swap2\n      pop\n        /* \"#utility.yul\":10180:10261   */\n    tag_236:\n        /* \"#utility.yul\":10308:10310   */\n      0x20\n        /* \"#utility.yul\":10300:10306   */\n      dup3\n        /* \"#utility.yul\":10297:10311   */\n      lt\n        /* \"#utility.yul\":10277:10295   */\n      dup2\n        /* \"#utility.yul\":10274:10312   */\n      sub\n        /* \"#utility.yul\":10271:10355   */\n      tag_237\n      jumpi\n        /* \"#utility.yul\":10327:10345   */\n      tag_238\n      tag_109\n      jump\t// in\n    tag_238:\n        /* \"#utility.yul\":10271:10355   */\n    tag_237:\n        /* \"#utility.yul\":10092:10361   */\n      pop\n        /* \"#utility.yul\":10041:10361   */\n      swap2\n      swap1\n      pop\n      jump\t// out\n        /* \"#utility.yul\":10367:10508   */\n    tag_110:\n        /* \"#utility.yul\":10416:10420   */\n      0x00\n        /* \"#utility.yul\":10439:10442   */\n      dup2\n        /* \"#utility.yul\":10431:10442   */\n      swap1\n      pop\n        /* \"#utility.yul\":10462:10465   */\n      dup2\n        /* \"#utility.yul\":10459:10460   */\n      0x00\n        /* \"#utility.yul\":10452:10466   */\n      mstore\n        /* \"#utility.yul\":10496:10500   */\n      0x20\n        /* \"#utility.yul\":10493:10494   */\n      0x00\n        /* \"#utility.yul\":10483:10501   */\n      keccak256\n        /* \"#utility.yul\":10475:10501   */\n      swap1\n      pop\n        /* \"#utility.yul\":10367:10508   */\n      swap2\n      swap1\n      pop\n      jump\t// out\n        /* \"#utility.yul\":10514:10607   */\n    tag_111:\n        /* \"#utility.yul\":10551:10557   */\n      0x00\n        /* \"#utility.yul\":10598:10600   */\n      0x20\n        /* \"#utility.yul\":10593:10595   */\n      0x1f\n        /* \"#utility.yul\":10586:10591   */\n      dup4\n        /* \"#utility.yul\":10582:10596   */\n      add\n        /* \"#utility.yul\":10578:10601   */\n      div\n        /* \"#utility.yul\":10568:10601   */\n      swap1\n      pop\n        /* \"#utility.yul\":10514:10607   */\n      swap2\n      swap1\n      pop\n      jump\t// out\n        /* \"#utility.yul\":10613:10720   */\n    tag_112:\n        /* \"#utility.yul\":10657:10665   */\n      0x00\n        /* \"#utility.yul\":10707:10712   */\n      dup3\n        /* \"#utility.yul\":10701:10705   */\n      dup3\n        /* \"#utility.yul\":10697:10713   */\n      shl\n        /* \"#utility.yul\":10676:10713   */\n      swap1\n      pop\n        /* \"#utility.yul\":10613:10720   */\n      swap3\n      swap2\n      pop\n      pop\n      jump\t// out\n        /* \"#utility.yul\":10726:11119   */\n    tag_113:\n        /* \"#utility.yul\":10795:10801   */\n      0x00\n        /* \"#utility.yul\":10845:10846   */\n      0x08\n        /* \"#utility.yul\":10833:10843   */\n      dup4\n        /* \"#utility.yul\":10829:10847   */\n      mul\n        /* \"#utility.yul\":10868:10965   */\n      tag_243\n        /* \"#utility.yul\":10898:10964   */\n      0xffffffffffffffffffffffffffffffffffffffffffffffffffffffffffffffff\n        /* \"#utility.yul\":10887:10896   */\n      dup3\n        /* \"#utility.yul\":10868:10965   */\n      tag_112\n      jump\t// in\n    tag_243:\n        /* \"#utility.yul\":10986:11025   */\n      tag_244\n        /* \"#utility.yul\":11016:11024   */\n      dup7\n        /* \"#utility.yul\":11005:11014   */\n      dup4\n        /* \"#utility.yul\":10986:11025   */\n      tag_112\n      jump\t// in\n    tag_244:\n        /* \"#utility.yul\":10974:11025   */\n      swap6\n      pop\n        /* \"#utility.yul\":11058:11062   */\n      dup1\n        /* \"#utility.yul\":11054:11063   */\n      not\n        /* \"#utility.yul\":11047:11052   */\n      dup5\n        /* \"#utility.yul\":11043:11064   */\n      and\n        /* \"#utility.yul\":11034:11064   */\n      swap4\n      pop\n        /* \"#utility.yul\":11107:11111   */\n      dup1\n        /* \"#utility.yul\":11097:11105   */\n      dup7\n        /* \"#utility.yul\":11093:11112   */\n      and\n        /* \"#utility.yul\":11086:11091   */\n      dup5\n        /* \"#utility.yul\":11083:11113   */\n      or\n        /* \"#utility.yul\":11073:11113   */\n      swap3\n      pop\n        /* \"#utility.yul\":10802:11119   */\n      pop\n      pop\n        /* \"#utility.yul\":10726:11119   */\n      swap4\n      swap3\n      pop\n      pop\n      pop\n      jump\t// out\n        /* \"#utility.yul\":11125:11185   */\n    tag_114:\n        /* \"#utility.yul\":11153:11156   */\n      0x00\n        /* \"#utility.yul\":11174:11179   */\n      dup2\n        /* \"#utility.yul\":11167:11179   */\n      swap1\n      pop\n        /* \"#utility.yul\":11125:11185   */\n      swap2\n      swap1\n      pop\n      jump\t// out\n        /* \"#utility.yul\":11191:11333   */\n    tag_115:\n        /* \"#utility.yul\":11241:11250   */\n      0x00\n        /* \"#utility.yul\":11274:11327   */\n      tag_247\n        /* \"#utility.yul\":11292:11326   */\n      tag_248\n        /* \"#utility.yul\":11301:11325   */\n      tag_249\n        /* \"#utility.yul\":11319:11324   */\n      dup5\n        /* \"#utility.yul\":11301:11325   */\n      tag_82\n      jump\t// in\n    tag_249:\n        /* \"#utility.yul\":11292:11326   */\n      tag_114\n      jump\t// in\n    tag_248:\n        /* \"#utility.yul\":11274:11327   */\n      tag_82\n      jump\t// in\n    tag_247:\n        /* \"#utility.yul\":11261:11327   */\n      swap1\n      pop\n        /* \"#utility.yul\":11191:11333   */\n      swap2\n      swap1\n      pop\n      jump\t// out\n        /* \"#utility.yul\":11339:11414   */\n    tag_116:\n        /* \"#utility.yul\":11382:11385   */\n      0x00\n        /* \"#utility.yul\":11403:11408   */\n      dup2\n        /* \"#utility.yul\":11396:11408   */\n      swap1\n      pop\n        /* \"#utility.yul\":11339:11414   */\n      swap2\n      swap1\n      pop\n      jump\t// out\n        /* \"#utility.yul\":11420:11689   */\n    tag_117:\n        /* \"#utility.yul\":11530:11569   */\n      tag_252\n        /* \"#utility.yul\":11561:11568   */\n      dup4\n        /* \"#utility.yul\":11530:11569   */\n      tag_115\n      jump\t// in\n    tag_252:\n        /* \"#utility.yul\":11591:11682   */\n      tag_253\n        /* \"#utility.yul\":11640:11681   */\n      tag_254\n        /* \"#utility.yul\":11664:11680   */\n      dup3\n        /* \"#utility.yul\":11640:11681   */\n      tag_116\n      jump\t// in\n    tag_254:\n        /* \"#utility.yul\":11632:11638   */\n      dup5\n        /* \"#utility.yul\":11625:11629   */\n      dup5\n        /* \"#utility.yul\":11619:11630   */\n      sload\n        /* \"#utility.yul\":11591:11682   */\n      tag_113\n      jump\t// in\n    tag_253:\n        /* \"#utility.yul\":11585:11589   */\n      dup3\n        /* \"#utility.yul\":11578:11683   */\n      sstore\n        /* \"#utility.yul\":11496:11689   */\n      pop\n        /* \"#utility.yul\":11420:11689   */\n      pop\n      pop\n      pop\n      jump\t// out\n        /* \"#utility.yul\":11695:11768   */\n    tag_118:\n        /* \"#utility.yul\":11740:11743   */\n      0x00\n        /* \"#utility.yul\":11695:11768   */\n      swap1\n      jump\t// out\n        /* \"#utility.yul\":11774:11963   */\n    tag_119:\n        /* \"#utility.yul\":11851:11883   */\n      tag_257\n      tag_118\n      jump\t// in\n    tag_257:\n        /* \"#utility.yul\":11892:11957   */\n      tag_258\n        /* \"#utility.yul\":11950:11956   */\n      dup2\n        /* \"#utility.yul\":11942:11948   */\n      dup5\n        /* \"#utility.yul\":11936:11940   */\n      dup5\n        /* \"#utility.yul\":11892:11957   */\n      tag_117\n      jump\t// in\n    tag_258:\n        /* \"#utility.yul\":11827:11963   */\n      pop\n        /* \"#utility.yul\":11774:11963   */\n      pop\n      pop\n      jump\t// out\n        /* \"#utility.yul\":11969:12155   */\n    tag_120:\n        /* \"#utility.yul\":12029:12149   */\n    tag_260:\n        /* \"#utility.yul\":12046:12049   */\n      dup2\n        /* \"#utility.yul\":12039:12044   */\n      dup2\n        /* \"#utility.yul\":12036:12050   */\n      lt\n        /* \"#utility.yul\":12029:12149   */\n      iszero\n      tag_262\n      jumpi\n        /* \"#utility.yul\":12100:12139   */\n      tag_263\n        /* \"#utility.yul\":12137:12138   */\n      0x00\n        /* \"#utility.yul\":12130:12135   */\n      dup3\n        /* \"#utility.yul\":12100:12139   */\n      tag_119\n      jump\t// in\n    tag_263:\n        /* \"#utility.yul\":12073:12074   */\n      0x01\n        /* \"#utility.yul\":12066:12071   */\n      dup2\n        /* \"#utility.yul\":12062:12075   */\n      add\n        /* \"#utility.yul\":12053:12075   */\n      swap1\n      pop\n        /* \"#utility.yul\":12029:12149   */\n      jump(tag_260)\n    tag_262:\n        /* \"#utility.yul\":11969:12155   */\n      pop\n      pop\n      jump\t// out\n        /* \"#utility.yul\":12161:12704   */\n    tag_121:\n        /* \"#utility.yul\":12262:12264   */\n      0x1f\n        /* \"#utility.yul\":12257:12260   */\n      dup3\n        /* \"#utility.yul\":12254:12265   */\n      gt\n        /* \"#utility.yul\":12251:12697   */\n      iszero\n      tag_265\n      jumpi\n        /* \"#utility.yul\":12296:12334   */\n      tag_266\n        /* \"#utility.yul\":12328:12333   */\n      dup2\n        /* \"#utility.yul\":12296:12334   */\n      tag_110\n      jump\t// in\n    tag_266:\n        /* \"#utility.yul\":12380:12409   */\n      tag_267\n        /* \"#utility.yul\":12398:12408   */\n      dup5\n        /* \"#utility.yul\":12380:12409   */\n      tag_111\n      jump\t// in\n    tag_267:\n        /* \"#utility.yul\":12370:12378   */\n      dup2\n        /* \"#utility.yul\":12366:12410   */\n      add\n        /* \"#utility.yul\":12563:12565   */\n      0x20\n        /* \"#utility.yul\":12551:12561   */\n      dup6\n        /* \"#utility.yul\":12548:12566   */\n      lt\n        /* \"#utility.yul\":12545:12594   */\n      iszero\n      tag_268\n      jumpi\n        /* \"#utility.yul\":12584:12592   */\n      dup2\n        /* \"#utility.yul\":12569:12592   */\n      swap1\n      pop\n        /* \"#utility.yul\":12545:12594   */\n    tag_268:\n        /* \"#utility.yul\":12607:12687   */\n      tag_269\n        /* \"#utility.yul\":12663:12685   */\n      tag_270\n        /* \"#utility.yul\":12681:12684   */\n      dup6\n        /* \"#utility.yul\":12663:12685   */\n      tag_111\n      jump\t// in\n    tag_270:\n        /* \"#utility.yul\":12653:12661   */\n      dup4\n        /* \"#utility.yul\":12649:12686   */\n      add\n        /* \"#utility.yul\":12636:12647   */\n      dup3\n        /* \"#utility.yul\":12607:12687   */\n      tag_120\n      jump\t// in\n    tag_269:\n        /* \"#utility.yul\":12266:12697   */\n      pop\n      pop\n        /* \"#utility.yul\":12251:12697   */\n    tag_265:\n        /* \"#utility.yul\":12161:12704   */\n      pop\n      pop\n      pop\n      jump\t// out\n        /* \"#utility.yul\":12710:12827   */\n    tag_122:\n        /* \"#utility.yul\":12764:12772   */\n      0x00\n        /* \"#utility.yul\":12814:12819   */\n      dup3\n        /* \"#utility.yul\":12808:12812   */\n      dup3\n        /* \"#utility.yul\":12804:12820   */\n      shr\n        /* \"#utility.yul\":12783:12820   */\n      swap1\n      pop\n        /* \"#utility.yul\":12710:12827   */\n      swap3\n      swap2\n      pop\n      pop\n      jump\t// out\n        /* \"#utility.yul\":12833:13002   */\n    tag_123:\n        /* \"#utility.yul\":12877:12883   */\n      0x00\n        /* \"#utility.yul\":12910:12961   */\n      tag_273\n        /* \"#utility.yul\":12958:12959   */\n      0x00\n        /* \"#utility.yul\":12954:12960   */\n      not\n        /* \"#utility.yul\":12946:12951   */\n      dup5\n        /* \"#utility.yul\":12943:12944   */\n      0x08\n        /* \"#utility.yul\":12939:12952   */\n      mul\n        /* \"#utility.yul\":12910:12961   */\n      tag_122\n      jump\t// in\n    tag_273:\n        /* \"#utility.yul\":12906:12962   */\n      not\n        /* \"#utility.yul\":12991:12995   */\n      dup1\n        /* \"#utility.yul\":12985:12989   */\n      dup4\n        /* \"#utility.yul\":12981:12996   */\n      and\n        /* \"#utility.yul\":12971:12996   */\n      swap2\n      pop\n        /* \"#utility.yul\":12884:13002   */\n      pop\n        /* \"#utility.yul\":12833:13002   */\n      swap3\n      swap2\n      pop\n      pop\n      jump\t// out\n        /* \"#utility.yul\":13007:13302   */\n    tag_124:\n        /* \"#utility.yul\":13083:13087   */\n      0x00\n        /* \"#utility.yul\":13229:13258   */\n      tag_275\n        /* \"#utility.yul\":13254:13257   */\n      dup4\n        /* \"#utility.yul\":13248:13252   */\n      dup4\n        /* \"#utility.yul\":13229:13258   */\n      tag_123\n      jump\t// in\n    tag_275:\n        /* \"#utility.yul\":13221:13258   */\n      swap2\n      pop\n        /* \"#utility.yul\":13291:13294   */\n      dup3\n        /* \"#utility.yul\":13288:13289   */\n      0x02\n        /* \"#utility.yul\":13284:13295   */\n      mul\n        /* \"#utility.yul\":13278:13282   */\n      dup3\n        /* \"#utility.yul\":13275:13296   */\n      or\n        /* \"#utility.yul\":13267:13296   */\n      swap1\n      pop\n        /* \"#utility.yul\":13007:13302   */\n      swap3\n      swap2\n      pop\n      pop\n      jump\t// out\n        /* \"#utility.yul\":13307:14702   */\n    tag_38:\n        /* \"#utility.yul\":13424:13461   */\n      tag_277\n        /* \"#utility.yul\":13457:13460   */\n      dup3\n        /* \"#utility.yul\":13424:13461   */\n      tag_98\n      jump\t// in\n    tag_277:\n        /* \"#utility.yul\":13526:13544   */\n      0xffffffffffffffff\n        /* \"#utility.yul\":13518:13524   */\n      dup2\n        /* \"#utility.yul\":13515:13545   */\n      gt\n        /* \"#utility.yul\":13512:13568   */\n      iszero\n      tag_278\n      jumpi\n        /* \"#utility.yul\":13548:13566   */\n      tag_279\n      tag_49\n      jump\t// in\n    tag_279:\n        /* \"#utility.yul\":13512:13568   */\n    tag_278:\n        /* \"#utility.yul\":13592:13630   */\n      tag_280\n        /* \"#utility.yul\":13624:13628   */\n      dup3\n        /* \"#utility.yul\":13618:13629   */\n      sload\n        /* \"#utility.yul\":13592:13630   */\n      tag_60\n      jump\t// in\n    tag_280:\n        /* \"#utility.yul\":13677:13744   */\n      tag_281\n        /* \"#utility.yul\":13737:13743   */\n      dup3\n        /* \"#utility.yul\":13729:13735   */\n      dup3\n        /* \"#utility.yul\":13723:13727   */\n      dup6\n        /* \"#utility.yul\":13677:13744   */\n      tag_121\n      jump\t// in\n    tag_281:\n        /* \"#utility.yul\":13771:13772   */\n      0x00\n        /* \"#utility.yul\":13795:13799   */\n      0x20\n        /* \"#utility.yul\":13782:13799   */\n      swap1\n      pop\n        /* \"#utility.yul\":13827:13829   */\n      0x1f\n        /* \"#utility.yul\":13819:13825   */\n      dup4\n        /* \"#utility.yul\":13816:13830   */\n      gt\n        /* \"#utility.yul\":13844:13845   */\n      0x01\n        /* \"#utility.yul\":13839:14457   */\n      dup2\n      eq\n      tag_283\n      jumpi\n        /* \"#utility.yul\":14501:14502   */\n      0x00\n        /* \"#utility.yul\":14518:14524   */\n      dup5\n        /* \"#utility.yul\":14515:14592   */\n      iszero\n      tag_284\n      jumpi\n        /* \"#utility.yul\":14567:14576   */\n      dup3\n        /* \"#utility.yul\":14562:14565   */\n      dup8\n        /* \"#utility.yul\":14558:14577   */\n      add\n        /* \"#utility.yul\":14552:14578   */\n      mload\n        /* \"#utility.yul\":14543:14578   */\n      swap1\n      pop\n        /* \"#utility.yul\":14515:14592   */\n    tag_284:\n        /* \"#utility.yul\":14618:14685   */\n      tag_285\n        /* \"#utility.yul\":14678:14684   */\n      dup6\n        /* \"#utility.yul\":14671:14676   */\n      dup3\n        /* \"#utility.yul\":14618:14685   */\n      tag_124\n      jump\t// in\n    tag_285:\n        /* \"#utility.yul\":14612:14616   */\n      dup7\n        /* \"#utility.yul\":14605:14686   */\n      sstore\n        /* \"#utility.yul\":14474:14696   */\n      pop\n        /* \"#utility.yul\":13809:14696   */\n      jump(tag_282)\n        /* \"#utility.yul\":13839:14457   */\n    tag_283:\n        /* \"#utility.yul\":13891:13895   */\n      0x1f\n        /* \"#utility.yul\":13887:13896   */\n      not\n        /* \"#utility.yul\":13879:13885   */\n      dup5\n        /* \"#utility.yul\":13875:13897   */\n      and\n        /* \"#utility.yul\":13925:13962   */\n      tag_286\n        /* \"#utility.yul\":13957:13961   */\n      dup7\n        /* \"#utility.yul\":13925:13962   */\n      tag_110\n      jump\t// in\n    tag_286:\n        /* \"#utility.yul\":13984:13985   */\n      0x00\n        /* \"#utility.yul\":13998:14206   */\n    tag_287:\n        /* \"#utility.yul\":14012:14019   */\n      dup3\n        /* \"#utility.yul\":14009:14010   */\n      dup2\n        /* \"#utility.yul\":14006:14020   */\n      lt\n        /* \"#utility.yul\":13998:14206   */\n      iszero\n      tag_289\n      jumpi\n        /* \"#utility.yul\":14091:14100   */\n      dup5\n        /* \"#utility.yul\":14086:14089   */\n      dup10\n        /* \"#utility.yul\":14082:14101   */\n      add\n        /* \"#utility.yul\":14076:14102   */\n      mload\n        /* \"#utility.yul\":14068:14074   */\n      dup3\n        /* \"#utility.yul\":14061:14103   */\n      sstore\n        /* \"#utility.yul\":14142:14143   */\n      0x01\n        /* \"#utility.yul\":14134:14140   */\n      dup3\n        /* \"#utility.yul\":14130:14144   */\n      add\n        /* \"#utility.yul\":14120:14144   */\n      swap2\n      pop\n        /* \"#utility.yul\":14189:14191   */\n      0x20\n        /* \"#utility.yul\":14178:14187   */\n      dup6\n        /* \"#utility.yul\":14174:14192   */\n      add\n        /* \"#utility.yul\":14161:14192   */\n      swap5\n      pop\n        /* \"#utility.yul\":14035:14039   */\n      0x20\n        /* \"#utility.yul\":14032:14033   */\n      dup2\n        /* \"#utility.yul\":14028:14040   */\n      add\n        /* \"#utility.yul\":14023:14040   */\n      swap1\n      pop\n        /* \"#utility.yul\":13998:14206   */\n      jump(tag_287)\n    tag_289:\n        /* \"#utility.yul\":14234:14240   */\n      dup7\n        /* \"#utility.yul\":14225:14232   */\n      dup4\n        /* \"#utility.yul\":14222:14241   */\n      lt\n        /* \"#utility.yul\":14219:14398   */\n      iszero\n      tag_290\n      jumpi\n        /* \"#utility.yul\":14292:14301   */\n      dup5\n        /* \"#utility.yul\":14287:14290   */\n      dup10\n        /* \"#utility.yul\":14283:14302   */\n      add\n        /* \"#utility.yul\":14277:14303   */\n      mload\n        /* \"#utility.yul\":14335:14383   */\n      tag_291\n        /* \"#utility.yul\":14377:14381   */\n      0x1f\n        /* \"#utility.yul\":14369:14375   */\n      dup10\n        /* \"#utility.yul\":14365:14382   */\n      and\n        /* \"#utility.yul\":14354:14363   */\n      dup3\n        /* \"#utility.yul\":14335:14383   */\n      tag_123\n      jump\t// in\n    tag_291:\n        /* \"#utility.yul\":14327:14333   */\n      dup4\n        /* \"#utility.yul\":14320:14384   */\n      sstore\n        /* \"#utility.yul\":14242:14398   */\n      pop\n        /* \"#utility.yul\":14219:14398   */\n    tag_290:\n        /* \"#utility.yul\":14444:14445   */\n      0x01\n        /* \"#utility.yul\":14440:14441   */\n      0x02\n        /* \"#utility.yul\":14432:14438   */\n      dup9\n        /* \"#utility.yul\":14428:14442   */\n      mul\n        /* \"#utility.yul\":14424:14446   */\n      add\n        /* \"#utility.yul\":14418:14422   */\n      dup9\n        /* \"#utility.yul\":14411:14447   */\n      sstore\n        /* \"#utility.yul\":13846:14457   */\n      pop\n      pop\n      pop\n        /* \"#utility.yul\":13809:14696   */\n    tag_282:\n      pop\n        /* \"#utility.yul\":13399:14702   */\n      pop\n      pop\n      pop\n        /* \"#utility.yul\":13307:14702   */\n      pop\n      pop\n      jump\t// out\n        /* \"#utility.yul\":14708:14888   */\n    tag_125:\n        /* \"#utility.yul\":14756:14833   */\n      0x4e487b7100000000000000000000000000000000000000000000000000000000\n        /* \"#utility.yul\":14753:14754   */\n      0x00\n        /* \"#utility.yul\":14746:14834   */\n      mstore\n        /* \"#utility.yul\":14853:14857   */\n      0x11\n        /* \"#utility.yul\":14850:14851   */\n      0x04\n        /* \"#utility.yul\":14843:14858   */\n      mstore\n        /* \"#utility.yul\":14877:14881   */\n      0x24\n        /* \"#utility.yul\":14874:14875   */\n      0x00\n        /* \"#utility.yul\":14867:14882   */\n      revert\n        /* \"#utility.yul\":14894:15085   */\n    tag_41:\n        /* \"#utility.yul\":14934:14937   */\n      0x00\n        /* \"#utility.yul\":14953:14973   */\n      tag_294\n        /* \"#utility.yul\":14971:14972   */\n      dup3\n        /* \"#utility.yul\":14953:14973   */\n      tag_82\n      jump\t// in\n    tag_294:\n        /* \"#utility.yul\":14948:14973   */\n      swap2\n      pop\n        /* \"#utility.yul\":14987:15007   */\n      tag_295\n        /* \"#utility.yul\":15005:15006   */\n      dup4\n        /* \"#utility.yul\":14987:15007   */\n      tag_82\n      jump\t// in\n    tag_295:\n        /* \"#utility.yul\":14982:15007   */\n      swap3\n      pop\n        /* \"#utility.yul\":15030:15031   */\n      dup3\n        /* \"#utility.yul\":15027:15028   */\n      dup3\n        /* \"#utility.yul\":15023:15032   */\n      add\n        /* \"#utility.yul\":15016:15032   */\n      swap1\n      pop\n        /* \"#utility.yul\":15051:15054   */\n      dup1\n        /* \"#utility.yul\":15048:15049   */\n      dup3\n        /* \"#utility.yul\":15045:15055   */\n      gt\n        /* \"#utility.yul\":15042:15078   */\n      iszero\n      tag_296\n      jumpi\n        /* \"#utility.yul\":15058:15076   */\n      tag_297\n      tag_125\n      jump\t// in\n    tag_297:\n        /* \"#utility.yul\":15042:15078   */\n    tag_296:\n        /* \"#utility.yul\":14894:15085   */\n      swap3\n      swap2\n      pop\n      pop\n      jump\t// out\n        /* \"#utility.yul\":15091:15323   */\n    tag_126:\n        /* \"#utility.yul\":15231:15265   */\n      0x74686973206164647265737320697320616c72656164792061737369676e6564\n        /* \"#utility.yul\":15227:15228   */\n      0x00\n        /* \"#utility.yul\":15219:15225   */\n      dup3\n        /* \"#utility.yul\":15215:15229   */\n      add\n        /* \"#utility.yul\":15208:15266   */\n      mstore\n        /* \"#utility.yul\":15300:15315   */\n      0x20746f2061206e756d6265722e00000000000000000000000000000000000000\n        /* \"#utility.yul\":15295:15297   */\n      0x20\n        /* \"#utility.yul\":15287:15293   */\n      dup3\n        /* \"#utility.yul\":15283:15298   */\n      add\n        /* \"#utility.yul\":15276:15316   */\n      mstore\n        /* \"#utility.yul\":15091:15323   */\n      pop\n      jump\t// out\n        /* \"#utility.yul\":15329:15695   */\n    tag_127:\n        /* \"#utility.yul\":15471:15474   */\n      0x00\n        /* \"#utility.yul\":15492:15559   */\n      tag_300\n        /* \"#utility.yul\":15556:15558   */\n      0x2d\n        /* \"#utility.yul\":15551:15554   */\n      dup4\n        /* \"#utility.yul\":15492:15559   */\n      tag_107\n      jump\t// in\n    tag_300:\n        /* \"#utility.yul\":15485:15559   */\n      swap2\n      pop\n        /* \"#utility.yul\":15568:15661   */\n      tag_301\n        /* \"#utility.yul\":15657:15660   */\n      dup3\n        /* \"#utility.yul\":15568:15661   */\n      tag_126\n      jump\t// in\n    tag_301:\n        /* \"#utility.yul\":15686:15688   */\n      0x40\n        /* \"#utility.yul\":15681:15684   */\n      dup3\n        /* \"#utility.yul\":15677:15689   */\n      add\n        /* \"#utility.yul\":15670:15689   */\n      swap1\n      pop\n        /* \"#utility.yul\":15329:15695   */\n      swap2\n      swap1\n      pop\n      jump\t// out\n        /* \"#utility.yul\":15701:16120   */\n    tag_44:\n        /* \"#utility.yul\":15867:15871   */\n      0x00\n        /* \"#utility.yul\":15905:15907   */\n      0x20\n        /* \"#utility.yul\":15894:15903   */\n      dup3\n        /* \"#utility.yul\":15890:15908   */\n      add\n        /* \"#utility.yul\":15882:15908   */\n      swap1\n      pop\n        /* \"#utility.yul\":15954:15963   */\n      dup2\n        /* \"#utility.yul\":15948:15952   */\n      dup2\n        /* \"#utility.yul\":15944:15964   */\n      sub\n        /* \"#utility.yul\":15940:15941   */\n      0x00\n        /* \"#utility.yul\":15929:15938   */\n      dup4\n        /* \"#utility.yul\":15925:15942   */\n      add\n        /* \"#utility.yul\":15918:15965   */\n      mstore\n        /* \"#utility.yul\":15982:16113   */\n      tag_303\n        /* \"#utility.yul\":16108:16112   */\n      dup2\n        /* \"#utility.yul\":15982:16113   */\n      tag_127\n      jump\t// in\n    tag_303:\n        /* \"#utility.yul\":15974:16113   */\n      swap1\n      pop\n        /* \"#utility.yul\":15701:16120   */\n      swap2\n      swap1\n      pop\n      jump\t// out\n        /* \"#utility.yul\":16126:16306   */\n    tag_57:\n        /* \"#utility.yul\":16174:16251   */\n      0x4e487b7100000000000000000000000000000000000000000000000000000000\n        /* \"#utility.yul\":16171:16172   */\n      0x00\n        /* \"#utility.yul\":16164:16252   */\n      mstore\n        /* \"#utility.yul\":16271:16275   */\n      0x32\n        /* \"#utility.yul\":16268:16269   */\n      0x04\n        /* \"#utility.yul\":16261:16276   */\n      mstore\n        /* \"#utility.yul\":16295:16299   */\n      0x24\n        /* \"#utility.yul\":16292:16293   */\n      0x00\n        /* \"#utility.yul\":16285:16300   */\n      revert\n\n    auxdata: 0xa2646970667358221220a0f29da958f331ea53c767e65f3d43510c13464450e492c112e603158e81b7eb64736f6c63430008190033\n}\n",
				"bytecode": {
					"linkReferences": {},
					"object": "6080604052348015600e575f80fd5b50610ea28061001c5f395ff3fe608060405234801561000f575f80fd5b5060043610610060575f3560e01c8063067efedf1461006457806315fab77a146100975780631aa3a008146100b357806352d2912d146100bd578063afdfa3a3146100db578063b51ce2a9146100f9575b5f80fd5b61007e60048036038101906100799190610637565b61012a565b60405161008e94939291906106a3565b60405180910390f35b6100b160048036038101906100ac9190610822565b610181565b005b6100bb6101e1565b005b6100c56103c8565b6040516100d29190610869565b60405180910390f35b6100e36103d4565b6040516100f0919061099d565b60405180910390f35b610113600480360381019061010e91906109e7565b610517565b604051610121929190610a5a565b60405180910390f35b6001602052805f5260405f205f91509050805f015f9054906101000a900473ffffffffffffffffffffffffffffffffffffffff1690806001015490806002015f9054906101000a900460ff16908060030154905084565b600260405180604001604052808381526020015f815250908060018154018082558091505060019003905f5260205f2090600202015f909190919091505f820151815f0190816101d19190610c82565b5060208201518160010155505050565b5f6003549050600160035f8282546101f99190610d7e565b925050819055505f60015f3373ffffffffffffffffffffffffffffffffffffffff1673ffffffffffffffffffffffffffffffffffffffff1681526020019081526020015f206001015414610282576040517f08c379a000000000000000000000000000000000000000000000000000000000815260040161027990610e21565b60405180910390fd5b5f60405180608001604052803373ffffffffffffffffffffffffffffffffffffffff1681526020018381526020015f151581526020015f81525090508060015f3373ffffffffffffffffffffffffffffffffffffffff1673ffffffffffffffffffffffffffffffffffffffff1681526020019081526020015f205f820151815f015f6101000a81548173ffffffffffffffffffffffffffffffffffffffff021916908373ffffffffffffffffffffffffffffffffffffffff160217905550602082015181600101556040820151816002015f6101000a81548160ff02191690831515021790555060608201518160030155905050335f808481526020019081526020015f205f6101000a81548173ffffffffffffffffffffffffffffffffffffffff021916908373ffffffffffffffffffffffffffffffffffffffff1602179055505050565b5f600280549050905090565b60605f60028054905067ffffffffffffffff8111156103f6576103f56106fe565b5b60405190808252806020026020018201604052801561042957816020015b60608152602001906001900390816104145790505b5090505f5b60028054905081101561050f576002818154811061044f5761044e610e3f565b5b905f5260205f2090600202015f01805461046890610ab5565b80601f016020809104026020016040519081016040528092919081815260200182805461049490610ab5565b80156104df5780601f106104b6576101008083540402835291602001916104df565b820191905f5260205f20905b8154815290600101906020018083116104c257829003601f168201915b50505050508282815181106104f7576104f6610e3f565b5b6020026020010181905250808060010191505061042e565b508091505090565b60028181548110610526575f80fd5b905f5260205f2090600202015f91509050805f01805461054590610ab5565b80601f016020809104026020016040519081016040528092919081815260200182805461057190610ab5565b80156105bc5780601f10610593576101008083540402835291602001916105bc565b820191905f5260205f20905b81548152906001019060200180831161059f57829003601f168201915b5050505050908060010154905082565b5f604051905090565b5f80fd5b5f80fd5b5f73ffffffffffffffffffffffffffffffffffffffff82169050919050565b5f610606826105dd565b9050919050565b610616816105fc565b8114610620575f80fd5b50565b5f813590506106318161060d565b92915050565b5f6020828403121561064c5761064b6105d5565b5b5f61065984828501610623565b91505092915050565b61066b816105fc565b82525050565b5f819050919050565b61068381610671565b82525050565b5f8115159050919050565b61069d81610689565b82525050565b5f6080820190506106b65f830187610662565b6106c3602083018661067a565b6106d06040830185610694565b6106dd606083018461067a565b95945050505050565b5f80fd5b5f80fd5b5f601f19601f8301169050919050565b7f4e487b71000000000000000000000000000000000000000000000000000000005f52604160045260245ffd5b610734826106ee565b810181811067ffffffffffffffff82111715610753576107526106fe565b5b80604052505050565b5f6107656105cc565b9050610771828261072b565b919050565b5f67ffffffffffffffff8211156107905761078f6106fe565b5b610799826106ee565b9050602081019050919050565b828183375f83830152505050565b5f6107c66107c184610776565b61075c565b9050828152602081018484840111156107e2576107e16106ea565b5b6107ed8482856107a6565b509392505050565b5f82601f830112610809576108086106e6565b5b81356108198482602086016107b4565b91505092915050565b5f60208284031215610837576108366105d5565b5b5f82013567ffffffffffffffff811115610854576108536105d9565b5b610860848285016107f5565b91505092915050565b5f60208201905061087c5f83018461067a565b92915050565b5f81519050919050565b5f82825260208201905092915050565b5f819050602082019050919050565b5f81519050919050565b5f82825260208201905092915050565b8281835e5f83830152505050565b5f6108dd826108ab565b6108e781856108b5565b93506108f78185602086016108c5565b610900816106ee565b840191505092915050565b5f61091683836108d3565b905092915050565b5f602082019050919050565b5f61093482610882565b61093e818561088c565b9350836020820285016109508561089c565b805f5b8581101561098b578484038952815161096c858261090b565b94506109778361091e565b925060208a01995050600181019050610953565b50829750879550505050505092915050565b5f6020820190508181035f8301526109b5818461092a565b905092915050565b6109c681610671565b81146109d0575f80fd5b50565b5f813590506109e1816109bd565b92915050565b5f602082840312156109fc576109fb6105d5565b5b5f610a09848285016109d3565b91505092915050565b5f82825260208201905092915050565b5f610a2c826108ab565b610a368185610a12565b9350610a468185602086016108c5565b610a4f816106ee565b840191505092915050565b5f6040820190508181035f830152610a728185610a22565b9050610a81602083018461067a565b9392505050565b7f4e487b71000000000000000000000000000000000000000000000000000000005f52602260045260245ffd5b5f6002820490506001821680610acc57607f821691505b602082108103610adf57610ade610a88565b5b50919050565b5f819050815f5260205f209050919050565b5f6020601f8301049050919050565b5f82821b905092915050565b5f60088302610b417fffffffffffffffffffffffffffffffffffffffffffffffffffffffffffffffff82610b06565b610b4b8683610b06565b95508019841693508086168417925050509392505050565b5f819050919050565b5f610b86610b81610b7c84610671565b610b63565b610671565b9050919050565b5f819050919050565b610b9f83610b6c565b610bb3610bab82610b8d565b848454610b12565b825550505050565b5f90565b610bc7610bbb565b610bd2818484610b96565b505050565b5b81811015610bf557610bea5f82610bbf565b600181019050610bd8565b5050565b601f821115610c3a57610c0b81610ae5565b610c1484610af7565b81016020851015610c23578190505b610c37610c2f85610af7565b830182610bd7565b50505b505050565b5f82821c905092915050565b5f610c5a5f1984600802610c3f565b1980831691505092915050565b5f610c728383610c4b565b9150826002028217905092915050565b610c8b826108ab565b67ffffffffffffffff811115610ca457610ca36106fe565b5b610cae8254610ab5565b610cb9828285610bf9565b5f60209050601f831160018114610cea575f8415610cd8578287015190505b610ce28582610c67565b865550610d49565b601f198416610cf886610ae5565b5f5b82811015610d1f57848901518255600182019150602085019450602081019050610cfa565b86831015610d3c5784890151610d38601f891682610c4b565b8355505b6001600288020188555050505b505050505050565b7f4e487b71000000000000000000000000000000000000000000000000000000005f52601160045260245ffd5b5f610d8882610671565b9150610d9383610671565b9250828201905080821115610dab57610daa610d51565b5b92915050565b7f74686973206164647265737320697320616c72656164792061737369676e65645f8201527f20746f2061206e756d6265722e00000000000000000000000000000000000000602082015250565b5f610e0b602d83610a12565b9150610e1682610db1565b604082019050919050565b5f6020820190508181035f830152610e3881610dff565b9050919050565b7f4e487b71000000000000000000000000000000000000000000000000000000005f52603260045260245ffdfea2646970667358221220a0f29da958f331ea53c767e65f3d43510c13464450e492c112e603158e81b7eb64736f6c63430008190033",
					"opcodes": "PUSH1 0x80 PUSH1 0x40 MSTORE CALLVALUE DUP1 ISZERO PUSH1 0xE JUMPI PUSH0 DUP1 REVERT JUMPDEST POP PUSH2 0xEA2 DUP1 PUSH2 0x1C PUSH0 CODECOPY PUSH0 RETURN INVALID PUSH1 0x80 PUSH1 0x40 MSTORE CALLVALUE DUP1 ISZERO PUSH2 0xF JUMPI PUSH0 DUP1 REVERT JUMPDEST POP PUSH1 0x4 CALLDATASIZE LT PUSH2 0x60 JUMPI PUSH0 CALLDATALOAD PUSH1 0xE0 SHR DUP1 PUSH4 0x67EFEDF EQ PUSH2 0x64 JUMPI DUP1 PUSH4 0x15FAB77A EQ PUSH2 0x97 JUMPI DUP1 PUSH4 0x1AA3A008 EQ PUSH2 0xB3 JUMPI DUP1 PUSH4 0x52D2912D EQ PUSH2 0xBD JUMPI DUP1 PUSH4 0xAFDFA3A3 EQ PUSH2 0xDB JUMPI DUP1 PUSH4 0xB51CE2A9 EQ PUSH2 0xF9 JUMPI JUMPDEST PUSH0 DUP1 REVERT JUMPDEST PUSH2 0x7E PUSH1 0x4 DUP1 CALLDATASIZE SUB DUP2 ADD SWAP1 PUSH2 0x79 SWAP2 SWAP1 PUSH2 0x637 JUMP JUMPDEST PUSH2 0x12A JUMP JUMPDEST PUSH1 0x40 MLOAD PUSH2 0x8E SWAP5 SWAP4 SWAP3 SWAP2 SWAP1 PUSH2 0x6A3 JUMP JUMPDEST PUSH1 0x40 MLOAD DUP1 SWAP2 SUB SWAP1 RETURN JUMPDEST PUSH2 0xB1 PUSH1 0x4 DUP1 CALLDATASIZE SUB DUP2 ADD SWAP1 PUSH2 0xAC SWAP2 SWAP1 PUSH2 0x822 JUMP JUMPDEST PUSH2 0x181 JUMP JUMPDEST STOP JUMPDEST PUSH2 0xBB PUSH2 0x1E1 JUMP JUMPDEST STOP JUMPDEST PUSH2 0xC5 PUSH2 0x3C8 JUMP JUMPDEST PUSH1 0x40 MLOAD PUSH2 0xD2 SWAP2 SWAP1 PUSH2 0x869 JUMP JUMPDEST PUSH1 0x40 MLOAD DUP1 SWAP2 SUB SWAP1 RETURN JUMPDEST PUSH2 0xE3 PUSH2 0x3D4 JUMP JUMPDEST PUSH1 0x40 MLOAD PUSH2 0xF0 SWAP2 SWAP1 PUSH2 0x99D JUMP JUMPDEST PUSH1 0x40 MLOAD DUP1 SWAP2 SUB SWAP1 RETURN JUMPDEST PUSH2 0x113 PUSH1 0x4 DUP1 CALLDATASIZE SUB DUP2 ADD SWAP1 PUSH2 0x10E SWAP2 SWAP1 PUSH2 0x9E7 JUMP JUMPDEST PUSH2 0x517 JUMP JUMPDEST PUSH1 0x40 MLOAD PUSH2 0x121 SWAP3 SWAP2 SWAP1 PUSH2 0xA5A JUMP JUMPDEST PUSH1 0x40 MLOAD DUP1 SWAP2 SUB SWAP1 RETURN JUMPDEST PUSH1 0x1 PUSH1 0x20 MSTORE DUP1 PUSH0 MSTORE PUSH1 0x40 PUSH0 KECCAK256 PUSH0 SWAP2 POP SWAP1 POP DUP1 PUSH0 ADD PUSH0 SWAP1 SLOAD SWAP1 PUSH2 0x100 EXP SWAP1 DIV PUSH20 0xFFFFFFFFFFFFFFFFFFFFFFFFFFFFFFFFFFFFFFFF AND SWAP1 DUP1 PUSH1 0x1 ADD SLOAD SWAP1 DUP1 PUSH1 0x2 ADD PUSH0 SWAP1 SLOAD SWAP1 PUSH2 0x100 EXP SWAP1 DIV PUSH1 0xFF AND SWAP1 DUP1 PUSH1 0x3 ADD SLOAD SWAP1 POP DUP5 JUMP JUMPDEST PUSH1 0x2 PUSH1 0x40 MLOAD DUP1 PUSH1 0x40 ADD PUSH1 0x40 MSTORE DUP1 DUP4 DUP2 MSTORE PUSH1 0x20 ADD PUSH0 DUP2 MSTORE POP SWAP1 DUP1 PUSH1 0x1 DUP2 SLOAD ADD DUP1 DUP3 SSTORE DUP1 SWAP2 POP POP PUSH1 0x1 SWAP1 SUB SWAP1 PUSH0 MSTORE PUSH1 0x20 PUSH0 KECCAK256 SWAP1 PUSH1 0x2 MUL ADD PUSH0 SWAP1 SWAP2 SWAP1 SWAP2 SWAP1 SWAP2 POP PUSH0 DUP3 ADD MLOAD DUP2 PUSH0 ADD SWAP1 DUP2 PUSH2 0x1D1 SWAP2 SWAP1 PUSH2 0xC82 JUMP JUMPDEST POP PUSH1 0x20 DUP3 ADD MLOAD DUP2 PUSH1 0x1 ADD SSTORE POP POP POP JUMP JUMPDEST PUSH0 PUSH1 0x3 SLOAD SWAP1 POP PUSH1 0x1 PUSH1 0x3 PUSH0 DUP3 DUP3 SLOAD PUSH2 0x1F9 SWAP2 SWAP1 PUSH2 0xD7E JUMP JUMPDEST SWAP3 POP POP DUP2 SWAP1 SSTORE POP PUSH0 PUSH1 0x1 PUSH0 CALLER PUSH20 0xFFFFFFFFFFFFFFFFFFFFFFFFFFFFFFFFFFFFFFFF AND PUSH20 0xFFFFFFFFFFFFFFFFFFFFFFFFFFFFFFFFFFFFFFFF AND DUP2 MSTORE PUSH1 0x20 ADD SWAP1 DUP2 MSTORE PUSH1 0x20 ADD PUSH0 KECCAK256 PUSH1 0x1 ADD SLOAD EQ PUSH2 0x282 JUMPI PUSH1 0x40 MLOAD PUSH32 0x8C379A000000000000000000000000000000000000000000000000000000000 DUP2 MSTORE PUSH1 0x4 ADD PUSH2 0x279 SWAP1 PUSH2 0xE21 JUMP JUMPDEST PUSH1 0x40 MLOAD DUP1 SWAP2 SUB SWAP1 REVERT JUMPDEST PUSH0 PUSH1 0x40 MLOAD DUP1 PUSH1 0x80 ADD PUSH1 0x40 MSTORE DUP1 CALLER PUSH20 0xFFFFFFFFFFFFFFFFFFFFFFFFFFFFFFFFFFFFFFFF AND DUP2 MSTORE PUSH1 0x20 ADD DUP4 DUP2 MSTORE PUSH1 0x20 ADD PUSH0 ISZERO ISZERO DUP2 MSTORE PUSH1 0x20 ADD PUSH0 DUP2 MSTORE POP SWAP1 POP DUP1 PUSH1 0x1 PUSH0 CALLER PUSH20 0xFFFFFFFFFFFFFFFFFFFFFFFFFFFFFFFFFFFFFFFF AND PUSH20 0xFFFFFFFFFFFFFFFFFFFFFFFFFFFFFFFFFFFFFFFF AND DUP2 MSTORE PUSH1 0x20 ADD SWAP1 DUP2 MSTORE PUSH1 0x20 ADD PUSH0 KECCAK256 PUSH0 DUP3 ADD MLOAD DUP2 PUSH0 ADD PUSH0 PUSH2 0x100 EXP DUP2 SLOAD DUP2 PUSH20 0xFFFFFFFFFFFFFFFFFFFFFFFFFFFFFFFFFFFFFFFF MUL NOT AND SWAP1 DUP4 PUSH20 0xFFFFFFFFFFFFFFFFFFFFFFFFFFFFFFFFFFFFFFFF AND MUL OR SWAP1 SSTORE POP PUSH1 0x20 DUP3 ADD MLOAD DUP2 PUSH1 0x1 ADD SSTORE PUSH1 0x40 DUP3 ADD MLOAD DUP2 PUSH1 0x2 ADD PUSH0 PUSH2 0x100 EXP DUP2 SLOAD DUP2 PUSH1 0xFF MUL NOT AND SWAP1 DUP4 ISZERO ISZERO MUL OR SWAP1 SSTORE POP PUSH1 0x60 DUP3 ADD MLOAD DUP2 PUSH1 0x3 ADD SSTORE SWAP1 POP POP CALLER PUSH0 DUP1 DUP5 DUP2 MSTORE PUSH1 0x20 ADD SWAP1 DUP2 MSTORE PUSH1 0x20 ADD PUSH0 KECCAK256 PUSH0 PUSH2 0x100 EXP DUP2 SLOAD DUP2 PUSH20 0xFFFFFFFFFFFFFFFFFFFFFFFFFFFFFFFFFFFFFFFF MUL NOT AND SWAP1 DUP4 PUSH20 0xFFFFFFFFFFFFFFFFFFFFFFFFFFFFFFFFFFFFFFFF AND MUL OR SWAP1 SSTORE POP POP POP JUMP JUMPDEST PUSH0 PUSH1 0x2 DUP1 SLOAD SWAP1 POP SWAP1 POP SWAP1 JUMP JUMPDEST PUSH1 0x60 PUSH0 PUSH1 0x2 DUP1 SLOAD SWAP1 POP PUSH8 0xFFFFFFFFFFFFFFFF DUP2 GT ISZERO PUSH2 0x3F6 JUMPI PUSH2 0x3F5 PUSH2 0x6FE JUMP JUMPDEST JUMPDEST PUSH1 0x40 MLOAD SWAP1 DUP1 DUP3 MSTORE DUP1 PUSH1 0x20 MUL PUSH1 0x20 ADD DUP3 ADD PUSH1 0x40 MSTORE DUP1 ISZERO PUSH2 0x429 JUMPI DUP2 PUSH1 0x20 ADD JUMPDEST PUSH1 0x60 DUP2 MSTORE PUSH1 0x20 ADD SWAP1 PUSH1 0x1 SWAP1 SUB SWAP1 DUP2 PUSH2 0x414 JUMPI SWAP1 POP JUMPDEST POP SWAP1 POP PUSH0 JUMPDEST PUSH1 0x2 DUP1 SLOAD SWAP1 POP DUP2 LT ISZERO PUSH2 0x50F JUMPI PUSH1 0x2 DUP2 DUP2 SLOAD DUP2 LT PUSH2 0x44F JUMPI PUSH2 0x44E PUSH2 0xE3F JUMP JUMPDEST JUMPDEST SWAP1 PUSH0 MSTORE PUSH1 0x20 PUSH0 KECCAK256 SWAP1 PUSH1 0x2 MUL ADD PUSH0 ADD DUP1 SLOAD PUSH2 0x468 SWAP1 PUSH2 0xAB5 JUMP JUMPDEST DUP1 PUSH1 0x1F ADD PUSH1 0x20 DUP1 SWAP2 DIV MUL PUSH1 0x20 ADD PUSH1 0x40 MLOAD SWAP1 DUP2 ADD PUSH1 0x40 MSTORE DUP1 SWAP3 SWAP2 SWAP1 DUP2 DUP2 MSTORE PUSH1 0x20 ADD DUP3 DUP1 SLOAD PUSH2 0x494 SWAP1 PUSH2 0xAB5 JUMP JUMPDEST DUP1 ISZERO PUSH2 0x4DF JUMPI DUP1 PUSH1 0x1F LT PUSH2 0x4B6 JUMPI PUSH2 0x100 DUP1 DUP4 SLOAD DIV MUL DUP4 MSTORE SWAP2 PUSH1 0x20 ADD SWAP2 PUSH2 0x4DF JUMP JUMPDEST DUP3 ADD SWAP2 SWAP1 PUSH0 MSTORE PUSH1 0x20 PUSH0 KECCAK256 SWAP1 JUMPDEST DUP2 SLOAD DUP2 MSTORE SWAP1 PUSH1 0x1 ADD SWAP1 PUSH1 0x20 ADD DUP1 DUP4 GT PUSH2 0x4C2 JUMPI DUP3 SWAP1 SUB PUSH1 0x1F AND DUP3 ADD SWAP2 JUMPDEST POP POP POP POP POP DUP3 DUP3 DUP2 MLOAD DUP2 LT PUSH2 0x4F7 JUMPI PUSH2 0x4F6 PUSH2 0xE3F JUMP JUMPDEST JUMPDEST PUSH1 0x20 MUL PUSH1 0x20 ADD ADD DUP2 SWAP1 MSTORE POP DUP1 DUP1 PUSH1 0x1 ADD SWAP2 POP POP PUSH2 0x42E JUMP JUMPDEST POP DUP1 SWAP2 POP POP SWAP1 JUMP JUMPDEST PUSH1 0x2 DUP2 DUP2 SLOAD DUP2 LT PUSH2 0x526 JUMPI PUSH0 DUP1 REVERT JUMPDEST SWAP1 PUSH0 MSTORE PUSH1 0x20 PUSH0 KECCAK256 SWAP1 PUSH1 0x2 MUL ADD PUSH0 SWAP2 POP SWAP1 POP DUP1 PUSH0 ADD DUP1 SLOAD PUSH2 0x545 SWAP1 PUSH2 0xAB5 JUMP JUMPDEST DUP1 PUSH1 0x1F ADD PUSH1 0x20 DUP1 SWAP2 DIV MUL PUSH1 0x20 ADD PUSH1 0x40 MLOAD SWAP1 DUP2 ADD PUSH1 0x40 MSTORE DUP1 SWAP3 SWAP2 SWAP1 DUP2 DUP2 MSTORE PUSH1 0x20 ADD DUP3 DUP1 SLOAD PUSH2 0x571 SWAP1 PUSH2 0xAB5 JUMP JUMPDEST DUP1 ISZERO PUSH2 0x5BC JUMPI DUP1 PUSH1 0x1F LT PUSH2 0x593 JUMPI PUSH2 0x100 DUP1 DUP4 SLOAD DIV MUL DUP4 MSTORE SWAP2 PUSH1 0x20 ADD SWAP2 PUSH2 0x5BC JUMP JUMPDEST DUP3 ADD SWAP2 SWAP1 PUSH0 MSTORE PUSH1 0x20 PUSH0 KECCAK256 SWAP1 JUMPDEST DUP2 SLOAD DUP2 MSTORE SWAP1 PUSH1 0x1 ADD SWAP1 PUSH1 0x20 ADD DUP1 DUP4 GT PUSH2 0x59F JUMPI DUP3 SWAP1 SUB PUSH1 0x1F AND DUP3 ADD SWAP2 JUMPDEST POP POP POP POP POP SWAP1 DUP1 PUSH1 0x1 ADD SLOAD SWAP1 POP DUP3 JUMP JUMPDEST PUSH0 PUSH1 0x40 MLOAD SWAP1 POP SWAP1 JUMP JUMPDEST PUSH0 DUP1 REVERT JUMPDEST PUSH0 DUP1 REVERT JUMPDEST PUSH0 PUSH20 0xFFFFFFFFFFFFFFFFFFFFFFFFFFFFFFFFFFFFFFFF DUP3 AND SWAP1 POP SWAP2 SWAP1 POP JUMP JUMPDEST PUSH0 PUSH2 0x606 DUP3 PUSH2 0x5DD JUMP JUMPDEST SWAP1 POP SWAP2 SWAP1 POP JUMP JUMPDEST PUSH2 0x616 DUP2 PUSH2 0x5FC JUMP JUMPDEST DUP2 EQ PUSH2 0x620 JUMPI PUSH0 DUP1 REVERT JUMPDEST POP JUMP JUMPDEST PUSH0 DUP2 CALLDATALOAD SWAP1 POP PUSH2 0x631 DUP2 PUSH2 0x60D JUMP JUMPDEST SWAP3 SWAP2 POP POP JUMP JUMPDEST PUSH0 PUSH1 0x20 DUP3 DUP5 SUB SLT ISZERO PUSH2 0x64C JUMPI PUSH2 0x64B PUSH2 0x5D5 JUMP JUMPDEST JUMPDEST PUSH0 PUSH2 0x659 DUP5 DUP3 DUP6 ADD PUSH2 0x623 JUMP JUMPDEST SWAP2 POP POP SWAP3 SWAP2 POP POP JUMP JUMPDEST PUSH2 0x66B DUP2 PUSH2 0x5FC JUMP JUMPDEST DUP3 MSTORE POP POP JUMP JUMPDEST PUSH0 DUP2 SWAP1 POP SWAP2 SWAP1 POP JUMP JUMPDEST PUSH2 0x683 DUP2 PUSH2 0x671 JUMP JUMPDEST DUP3 MSTORE POP POP JUMP JUMPDEST PUSH0 DUP2 ISZERO ISZERO SWAP1 POP SWAP2 SWAP1 POP JUMP JUMPDEST PUSH2 0x69D DUP2 PUSH2 0x689 JUMP JUMPDEST DUP3 MSTORE POP POP JUMP JUMPDEST PUSH0 PUSH1 0x80 DUP3 ADD SWAP1 POP PUSH2 0x6B6 PUSH0 DUP4 ADD DUP8 PUSH2 0x662 JUMP JUMPDEST PUSH2 0x6C3 PUSH1 0x20 DUP4 ADD DUP7 PUSH2 0x67A JUMP JUMPDEST PUSH2 0x6D0 PUSH1 0x40 DUP4 ADD DUP6 PUSH2 0x694 JUMP JUMPDEST PUSH2 0x6DD PUSH1 0x60 DUP4 ADD DUP5 PUSH2 0x67A JUMP JUMPDEST SWAP6 SWAP5 POP POP POP POP POP JUMP JUMPDEST PUSH0 DUP1 REVERT JUMPDEST PUSH0 DUP1 REVERT JUMPDEST PUSH0 PUSH1 0x1F NOT PUSH1 0x1F DUP4 ADD AND SWAP1 POP SWAP2 SWAP1 POP JUMP JUMPDEST PUSH32 0x4E487B7100000000000000000000000000000000000000000000000000000000 PUSH0 MSTORE PUSH1 0x41 PUSH1 0x4 MSTORE PUSH1 0x24 PUSH0 REVERT JUMPDEST PUSH2 0x734 DUP3 PUSH2 0x6EE JUMP JUMPDEST DUP2 ADD DUP2 DUP2 LT PUSH8 0xFFFFFFFFFFFFFFFF DUP3 GT OR ISZERO PUSH2 0x753 JUMPI PUSH2 0x752 PUSH2 0x6FE JUMP JUMPDEST JUMPDEST DUP1 PUSH1 0x40 MSTORE POP POP POP JUMP JUMPDEST PUSH0 PUSH2 0x765 PUSH2 0x5CC JUMP JUMPDEST SWAP1 POP PUSH2 0x771 DUP3 DUP3 PUSH2 0x72B JUMP JUMPDEST SWAP2 SWAP1 POP JUMP JUMPDEST PUSH0 PUSH8 0xFFFFFFFFFFFFFFFF DUP3 GT ISZERO PUSH2 0x790 JUMPI PUSH2 0x78F PUSH2 0x6FE JUMP JUMPDEST JUMPDEST PUSH2 0x799 DUP3 PUSH2 0x6EE JUMP JUMPDEST SWAP1 POP PUSH1 0x20 DUP2 ADD SWAP1 POP SWAP2 SWAP1 POP JUMP JUMPDEST DUP3 DUP2 DUP4 CALLDATACOPY PUSH0 DUP4 DUP4 ADD MSTORE POP POP POP JUMP JUMPDEST PUSH0 PUSH2 0x7C6 PUSH2 0x7C1 DUP5 PUSH2 0x776 JUMP JUMPDEST PUSH2 0x75C JUMP JUMPDEST SWAP1 POP DUP3 DUP2 MSTORE PUSH1 0x20 DUP2 ADD DUP5 DUP5 DUP5 ADD GT ISZERO PUSH2 0x7E2 JUMPI PUSH2 0x7E1 PUSH2 0x6EA JUMP JUMPDEST JUMPDEST PUSH2 0x7ED DUP5 DUP3 DUP6 PUSH2 0x7A6 JUMP JUMPDEST POP SWAP4 SWAP3 POP POP POP JUMP JUMPDEST PUSH0 DUP3 PUSH1 0x1F DUP4 ADD SLT PUSH2 0x809 JUMPI PUSH2 0x808 PUSH2 0x6E6 JUMP JUMPDEST JUMPDEST DUP2 CALLDATALOAD PUSH2 0x819 DUP5 DUP3 PUSH1 0x20 DUP7 ADD PUSH2 0x7B4 JUMP JUMPDEST SWAP2 POP POP SWAP3 SWAP2 POP POP JUMP JUMPDEST PUSH0 PUSH1 0x20 DUP3 DUP5 SUB SLT ISZERO PUSH2 0x837 JUMPI PUSH2 0x836 PUSH2 0x5D5 JUMP JUMPDEST JUMPDEST PUSH0 DUP3 ADD CALLDATALOAD PUSH8 0xFFFFFFFFFFFFFFFF DUP2 GT ISZERO PUSH2 0x854 JUMPI PUSH2 0x853 PUSH2 0x5D9 JUMP JUMPDEST JUMPDEST PUSH2 0x860 DUP5 DUP3 DUP6 ADD PUSH2 0x7F5 JUMP JUMPDEST SWAP2 POP POP SWAP3 SWAP2 POP POP JUMP JUMPDEST PUSH0 PUSH1 0x20 DUP3 ADD SWAP1 POP PUSH2 0x87C PUSH0 DUP4 ADD DUP5 PUSH2 0x67A JUMP JUMPDEST SWAP3 SWAP2 POP POP JUMP JUMPDEST PUSH0 DUP2 MLOAD SWAP1 POP SWAP2 SWAP1 POP JUMP JUMPDEST PUSH0 DUP3 DUP3 MSTORE PUSH1 0x20 DUP3 ADD SWAP1 POP SWAP3 SWAP2 POP POP JUMP JUMPDEST PUSH0 DUP2 SWAP1 POP PUSH1 0x20 DUP3 ADD SWAP1 POP SWAP2 SWAP1 POP JUMP JUMPDEST PUSH0 DUP2 MLOAD SWAP1 POP SWAP2 SWAP1 POP JUMP JUMPDEST PUSH0 DUP3 DUP3 MSTORE PUSH1 0x20 DUP3 ADD SWAP1 POP SWAP3 SWAP2 POP POP JUMP JUMPDEST DUP3 DUP2 DUP4 MCOPY PUSH0 DUP4 DUP4 ADD MSTORE POP POP POP JUMP JUMPDEST PUSH0 PUSH2 0x8DD DUP3 PUSH2 0x8AB JUMP JUMPDEST PUSH2 0x8E7 DUP2 DUP6 PUSH2 0x8B5 JUMP JUMPDEST SWAP4 POP PUSH2 0x8F7 DUP2 DUP6 PUSH1 0x20 DUP7 ADD PUSH2 0x8C5 JUMP JUMPDEST PUSH2 0x900 DUP2 PUSH2 0x6EE JUMP JUMPDEST DUP5 ADD SWAP2 POP POP SWAP3 SWAP2 POP POP JUMP JUMPDEST PUSH0 PUSH2 0x916 DUP4 DUP4 PUSH2 0x8D3 JUMP JUMPDEST SWAP1 POP SWAP3 SWAP2 POP POP JUMP JUMPDEST PUSH0 PUSH1 0x20 DUP3 ADD SWAP1 POP SWAP2 SWAP1 POP JUMP JUMPDEST PUSH0 PUSH2 0x934 DUP3 PUSH2 0x882 JUMP JUMPDEST PUSH2 0x93E DUP2 DUP6 PUSH2 0x88C JUMP JUMPDEST SWAP4 POP DUP4 PUSH1 0x20 DUP3 MUL DUP6 ADD PUSH2 0x950 DUP6 PUSH2 0x89C JUMP JUMPDEST DUP1 PUSH0 JUMPDEST DUP6 DUP2 LT ISZERO PUSH2 0x98B JUMPI DUP5 DUP5 SUB DUP10 MSTORE DUP2 MLOAD PUSH2 0x96C DUP6 DUP3 PUSH2 0x90B JUMP JUMPDEST SWAP5 POP PUSH2 0x977 DUP4 PUSH2 0x91E JUMP JUMPDEST SWAP3 POP PUSH1 0x20 DUP11 ADD SWAP10 POP POP PUSH1 0x1 DUP2 ADD SWAP1 POP PUSH2 0x953 JUMP JUMPDEST POP DUP3 SWAP8 POP DUP8 SWAP6 POP POP POP POP POP POP SWAP3 SWAP2 POP POP JUMP JUMPDEST PUSH0 PUSH1 0x20 DUP3 ADD SWAP1 POP DUP2 DUP2 SUB PUSH0 DUP4 ADD MSTORE PUSH2 0x9B5 DUP2 DUP5 PUSH2 0x92A JUMP JUMPDEST SWAP1 POP SWAP3 SWAP2 POP POP JUMP JUMPDEST PUSH2 0x9C6 DUP2 PUSH2 0x671 JUMP JUMPDEST DUP2 EQ PUSH2 0x9D0 JUMPI PUSH0 DUP1 REVERT JUMPDEST POP JUMP JUMPDEST PUSH0 DUP2 CALLDATALOAD SWAP1 POP PUSH2 0x9E1 DUP2 PUSH2 0x9BD JUMP JUMPDEST SWAP3 SWAP2 POP POP JUMP JUMPDEST PUSH0 PUSH1 0x20 DUP3 DUP5 SUB SLT ISZERO PUSH2 0x9FC JUMPI PUSH2 0x9FB PUSH2 0x5D5 JUMP JUMPDEST JUMPDEST PUSH0 PUSH2 0xA09 DUP5 DUP3 DUP6 ADD PUSH2 0x9D3 JUMP JUMPDEST SWAP2 POP POP SWAP3 SWAP2 POP POP JUMP JUMPDEST PUSH0 DUP3 DUP3 MSTORE PUSH1 0x20 DUP3 ADD SWAP1 POP SWAP3 SWAP2 POP POP JUMP JUMPDEST PUSH0 PUSH2 0xA2C DUP3 PUSH2 0x8AB JUMP JUMPDEST PUSH2 0xA36 DUP2 DUP6 PUSH2 0xA12 JUMP JUMPDEST SWAP4 POP PUSH2 0xA46 DUP2 DUP6 PUSH1 0x20 DUP7 ADD PUSH2 0x8C5 JUMP JUMPDEST PUSH2 0xA4F DUP2 PUSH2 0x6EE JUMP JUMPDEST DUP5 ADD SWAP2 POP POP SWAP3 SWAP2 POP POP JUMP JUMPDEST PUSH0 PUSH1 0x40 DUP3 ADD SWAP1 POP DUP2 DUP2 SUB PUSH0 DUP4 ADD MSTORE PUSH2 0xA72 DUP2 DUP6 PUSH2 0xA22 JUMP JUMPDEST SWAP1 POP PUSH2 0xA81 PUSH1 0x20 DUP4 ADD DUP5 PUSH2 0x67A JUMP JUMPDEST SWAP4 SWAP3 POP POP POP JUMP JUMPDEST PUSH32 0x4E487B7100000000000000000000000000000000000000000000000000000000 PUSH0 MSTORE PUSH1 0x22 PUSH1 0x4 MSTORE PUSH1 0x24 PUSH0 REVERT JUMPDEST PUSH0 PUSH1 0x2 DUP3 DIV SWAP1 POP PUSH1 0x1 DUP3 AND DUP1 PUSH2 0xACC JUMPI PUSH1 0x7F DUP3 AND SWAP2 POP JUMPDEST PUSH1 0x20 DUP3 LT DUP2 SUB PUSH2 0xADF JUMPI PUSH2 0xADE PUSH2 0xA88 JUMP JUMPDEST JUMPDEST POP SWAP2 SWAP1 POP JUMP JUMPDEST PUSH0 DUP2 SWAP1 POP DUP2 PUSH0 MSTORE PUSH1 0x20 PUSH0 KECCAK256 SWAP1 POP SWAP2 SWAP1 POP JUMP JUMPDEST PUSH0 PUSH1 0x20 PUSH1 0x1F DUP4 ADD DIV SWAP1 POP SWAP2 SWAP1 POP JUMP JUMPDEST PUSH0 DUP3 DUP3 SHL SWAP1 POP SWAP3 SWAP2 POP POP JUMP JUMPDEST PUSH0 PUSH1 0x8 DUP4 MUL PUSH2 0xB41 PUSH32 0xFFFFFFFFFFFFFFFFFFFFFFFFFFFFFFFFFFFFFFFFFFFFFFFFFFFFFFFFFFFFFFFF DUP3 PUSH2 0xB06 JUMP JUMPDEST PUSH2 0xB4B DUP7 DUP4 PUSH2 0xB06 JUMP JUMPDEST SWAP6 POP DUP1 NOT DUP5 AND SWAP4 POP DUP1 DUP7 AND DUP5 OR SWAP3 POP POP POP SWAP4 SWAP3 POP POP POP JUMP JUMPDEST PUSH0 DUP2 SWAP1 POP SWAP2 SWAP1 POP JUMP JUMPDEST PUSH0 PUSH2 0xB86 PUSH2 0xB81 PUSH2 0xB7C DUP5 PUSH2 0x671 JUMP JUMPDEST PUSH2 0xB63 JUMP JUMPDEST PUSH2 0x671 JUMP JUMPDEST SWAP1 POP SWAP2 SWAP1 POP JUMP JUMPDEST PUSH0 DUP2 SWAP1 POP SWAP2 SWAP1 POP JUMP JUMPDEST PUSH2 0xB9F DUP4 PUSH2 0xB6C JUMP JUMPDEST PUSH2 0xBB3 PUSH2 0xBAB DUP3 PUSH2 0xB8D JUMP JUMPDEST DUP5 DUP5 SLOAD PUSH2 0xB12 JUMP JUMPDEST DUP3 SSTORE POP POP POP POP JUMP JUMPDEST PUSH0 SWAP1 JUMP JUMPDEST PUSH2 0xBC7 PUSH2 0xBBB JUMP JUMPDEST PUSH2 0xBD2 DUP2 DUP5 DUP5 PUSH2 0xB96 JUMP JUMPDEST POP POP POP JUMP JUMPDEST JUMPDEST DUP2 DUP2 LT ISZERO PUSH2 0xBF5 JUMPI PUSH2 0xBEA PUSH0 DUP3 PUSH2 0xBBF JUMP JUMPDEST PUSH1 0x1 DUP2 ADD SWAP1 POP PUSH2 0xBD8 JUMP JUMPDEST POP POP JUMP JUMPDEST PUSH1 0x1F DUP3 GT ISZERO PUSH2 0xC3A JUMPI PUSH2 0xC0B DUP2 PUSH2 0xAE5 JUMP JUMPDEST PUSH2 0xC14 DUP5 PUSH2 0xAF7 JUMP JUMPDEST DUP2 ADD PUSH1 0x20 DUP6 LT ISZERO PUSH2 0xC23 JUMPI DUP2 SWAP1 POP JUMPDEST PUSH2 0xC37 PUSH2 0xC2F DUP6 PUSH2 0xAF7 JUMP JUMPDEST DUP4 ADD DUP3 PUSH2 0xBD7 JUMP JUMPDEST POP POP JUMPDEST POP POP POP JUMP JUMPDEST PUSH0 DUP3 DUP3 SHR SWAP1 POP SWAP3 SWAP2 POP POP JUMP JUMPDEST PUSH0 PUSH2 0xC5A PUSH0 NOT DUP5 PUSH1 0x8 MUL PUSH2 0xC3F JUMP JUMPDEST NOT DUP1 DUP4 AND SWAP2 POP POP SWAP3 SWAP2 POP POP JUMP JUMPDEST PUSH0 PUSH2 0xC72 DUP4 DUP4 PUSH2 0xC4B JUMP JUMPDEST SWAP2 POP DUP3 PUSH1 0x2 MUL DUP3 OR SWAP1 POP SWAP3 SWAP2 POP POP JUMP JUMPDEST PUSH2 0xC8B DUP3 PUSH2 0x8AB JUMP JUMPDEST PUSH8 0xFFFFFFFFFFFFFFFF DUP2 GT ISZERO PUSH2 0xCA4 JUMPI PUSH2 0xCA3 PUSH2 0x6FE JUMP JUMPDEST JUMPDEST PUSH2 0xCAE DUP3 SLOAD PUSH2 0xAB5 JUMP JUMPDEST PUSH2 0xCB9 DUP3 DUP3 DUP6 PUSH2 0xBF9 JUMP JUMPDEST PUSH0 PUSH1 0x20 SWAP1 POP PUSH1 0x1F DUP4 GT PUSH1 0x1 DUP2 EQ PUSH2 0xCEA JUMPI PUSH0 DUP5 ISZERO PUSH2 0xCD8 JUMPI DUP3 DUP8 ADD MLOAD SWAP1 POP JUMPDEST PUSH2 0xCE2 DUP6 DUP3 PUSH2 0xC67 JUMP JUMPDEST DUP7 SSTORE POP PUSH2 0xD49 JUMP JUMPDEST PUSH1 0x1F NOT DUP5 AND PUSH2 0xCF8 DUP7 PUSH2 0xAE5 JUMP JUMPDEST PUSH0 JUMPDEST DUP3 DUP2 LT ISZERO PUSH2 0xD1F JUMPI DUP5 DUP10 ADD MLOAD DUP3 SSTORE PUSH1 0x1 DUP3 ADD SWAP2 POP PUSH1 0x20 DUP6 ADD SWAP5 POP PUSH1 0x20 DUP2 ADD SWAP1 POP PUSH2 0xCFA JUMP JUMPDEST DUP7 DUP4 LT ISZERO PUSH2 0xD3C JUMPI DUP5 DUP10 ADD MLOAD PUSH2 0xD38 PUSH1 0x1F DUP10 AND DUP3 PUSH2 0xC4B JUMP JUMPDEST DUP4 SSTORE POP JUMPDEST PUSH1 0x1 PUSH1 0x2 DUP9 MUL ADD DUP9 SSTORE POP POP POP JUMPDEST POP POP POP POP POP POP JUMP JUMPDEST PUSH32 0x4E487B7100000000000000000000000000000000000000000000000000000000 PUSH0 MSTORE PUSH1 0x11 PUSH1 0x4 MSTORE PUSH1 0x24 PUSH0 REVERT JUMPDEST PUSH0 PUSH2 0xD88 DUP3 PUSH2 0x671 JUMP JUMPDEST SWAP2 POP PUSH2 0xD93 DUP4 PUSH2 0x671 JUMP JUMPDEST SWAP3 POP DUP3 DUP3 ADD SWAP1 POP DUP1 DUP3 GT ISZERO PUSH2 0xDAB JUMPI PUSH2 0xDAA PUSH2 0xD51 JUMP JUMPDEST JUMPDEST SWAP3 SWAP2 POP POP JUMP JUMPDEST PUSH32 0x74686973206164647265737320697320616C72656164792061737369676E6564 PUSH0 DUP3 ADD MSTORE PUSH32 0x20746F2061206E756D6265722E00000000000000000000000000000000000000 PUSH1 0x20 DUP3 ADD MSTORE POP JUMP JUMPDEST PUSH0 PUSH2 0xE0B PUSH1 0x2D DUP4 PUSH2 0xA12 JUMP JUMPDEST SWAP2 POP PUSH2 0xE16 DUP3 PUSH2 0xDB1 JUMP JUMPDEST PUSH1 0x40 DUP3 ADD SWAP1 POP SWAP2 SWAP1 POP JUMP JUMPDEST PUSH0 PUSH1 0x20 DUP3 ADD SWAP1 POP DUP2 DUP2 SUB PUSH0 DUP4 ADD MSTORE PUSH2 0xE38 DUP2 PUSH2 0xDFF JUMP JUMPDEST SWAP1 POP SWAP2 SWAP1 POP JUMP JUMPDEST PUSH32 0x4E487B7100000000000000000000000000000000000000000000000000000000 PUSH0 MSTORE PUSH1 0x32 PUSH1 0x4 MSTORE PUSH1 0x24 PUSH0 REVERT INVALID LOG2 PUSH5 0x6970667358 0x22 SLT KECCAK256 LOG0 CALLCODE SWAP14 0xA9 PC RETURN BALANCE 0xEA MSTORE8 0xC7 PUSH8 0xE65F3D43510C1346 PREVRANDAO POP 0xE4 SWAP3 0xC1 SLT 0xE6 SUB ISZERO DUP15 DUP2 0xB7 0xEB PUSH5 0x736F6C6343 STOP ADDMOD NOT STOP CALLER "
				},
				"gasEstimates": {
					"creation": {
						"codeDepositCost": "749200",
						"executionCost": "784",
						"totalCost": "749984"
					},
					"external": {
						"addCendidate(string)": "infinite",
						"cendidates(uint256)": "infinite",
						"electors(address)": "infinite",
						"getNameCendidate()": "infinite",
						"getNumberCendidate()": "2484",
						"register()": "infinite"
					}
				},
				"methodIdentifiers": {
					"addCendidate(string)": "15fab77a",
					"cendidates(uint256)": "b51ce2a9",
					"electors(address)": "067efedf",
					"getNameCendidate()": "afdfa3a3",
					"getNumberCendidate()": "52d2912d",
					"register()": "1aa3a008"
				}
			},
			"storageLayout": {
				"storage": [
					{
						"astId": 19,
						"contract": "contracts/3_Ballot.sol:Ballot",
						"label": "adresses",
						"offset": 0,
						"slot": "0",
						"type": "t_mapping(t_uint256,t_address)"
					},
					{
						"astId": 24,
						"contract": "contracts/3_Ballot.sol:Ballot",
						"label": "electors",
						"offset": 0,
						"slot": "1",
						"type": "t_mapping(t_address,t_struct(Elector)15_storage)"
					},
					{
						"astId": 28,
						"contract": "contracts/3_Ballot.sol:Ballot",
						"label": "cendidates",
						"offset": 0,
						"slot": "2",
						"type": "t_array(t_struct(Cendidate)6_storage)dyn_storage"
					},
					{
						"astId": 30,
						"contract": "contracts/3_Ballot.sol:Ballot",
						"label": "electoralNumberMax",
						"offset": 0,
						"slot": "3",
						"type": "t_uint256"
					}
				],
				"types": {
					"t_address": {
						"encoding": "inplace",
						"label": "address",
						"numberOfBytes": "20"
					},
					"t_array(t_struct(Cendidate)6_storage)dyn_storage": {
						"base": "t_struct(Cendidate)6_storage",
						"encoding": "dynamic_array",
						"label": "struct Ballot.Cendidate[]",
						"numberOfBytes": "32"
					},
					"t_bool": {
						"encoding": "inplace",
						"label": "bool",
						"numberOfBytes": "1"
					},
					"t_mapping(t_address,t_struct(Elector)15_storage)": {
						"encoding": "mapping",
						"key": "t_address",
						"label": "mapping(address => struct Ballot.Elector)",
						"numberOfBytes": "32",
						"value": "t_struct(Elector)15_storage"
					},
					"t_mapping(t_uint256,t_address)": {
						"encoding": "mapping",
						"key": "t_uint256",
						"label": "mapping(uint256 => address)",
						"numberOfBytes": "32",
						"value": "t_address"
					},
					"t_string_storage": {
						"encoding": "bytes",
						"label": "string",
						"numberOfBytes": "32"
					},
					"t_struct(Cendidate)6_storage": {
						"encoding": "inplace",
						"label": "struct Ballot.Cendidate",
						"members": [
							{
								"astId": 3,
								"contract": "contracts/3_Ballot.sol:Ballot",
								"label": "name",
								"offset": 0,
								"slot": "0",
								"type": "t_string_storage"
							},
							{
								"astId": 5,
								"contract": "contracts/3_Ballot.sol:Ballot",
								"label": "voteCount",
								"offset": 0,
								"slot": "1",
								"type": "t_uint256"
							}
						],
						"numberOfBytes": "64"
					},
					"t_struct(Elector)15_storage": {
						"encoding": "inplace",
						"label": "struct Ballot.Elector",
						"members": [
							{
								"astId": 8,
								"contract": "contracts/3_Ballot.sol:Ballot",
								"label": "delegate",
								"offset": 0,
								"slot": "0",
								"type": "t_address"
							},
							{
								"astId": 10,
								"contract": "contracts/3_Ballot.sol:Ballot",
								"label": "electoralNumber",
								"offset": 0,
								"slot": "1",
								"type": "t_uint256"
							},
							{
								"astId": 12,
								"contract": "contracts/3_Ballot.sol:Ballot",
								"label": "voted",
								"offset": 0,
								"slot": "2",
								"type": "t_bool"
							},
							{
								"astId": 14,
								"contract": "contracts/3_Ballot.sol:Ballot",
								"label": "vote",
								"offset": 0,
								"slot": "3",
								"type": "t_uint256"
							}
						],
						"numberOfBytes": "128"
					},
					"t_uint256": {
						"encoding": "inplace",
						"label": "uint256",
						"numberOfBytes": "32"
					}
				}
			},
			"userdoc": {
				"kind": "user",
				"methods": {},
				"version": 1
			}
		}
	}
}